:0200000420409A
:100000009711C05F938101279702000093828201BC
:100010007390523093021000638402007350107C7E
:100020009702000093824212739052301701C0DF92
:10003000130141FD631601001731C05F13018104F4
:10004000732540F181421713C0DF1303A3FB137123
:1000500001FF6385A2001A918502D5BF97000000B9
:1000600093802008638300008290732540F18145CE
:100070000146CD209700C0DF9380C0F86383000065
:100080008290970200009382C20073905230032343
:100090000000F5BF000000008280A14673B3063067
:1000A0009302400063C555001376350011CA230042
:1000B00005000505FD15E347B0FE7310033082808F
:1000C000232005001105F115E34EB0FC7310033039
:1000D0008280232003001103E34D73FE8280068497
:1000E0009702C0DF938202F2638C02049702C0DFA2
:1000F000938242F1F32740F1A14673B006300A83A0
:100100009713C0DF938303F08A9363037300D1379F
:10011000639857021703C05F1303C3EE9723C05FB2
:100120009383C3EA630373006D371703C05F130340
:1001300063ED9703C05F9383E3EC63037300513F68
:10014000A2808280F322203473231034F3233034CE
:10015000D5BF828006849711C05F9381A11193025D
:1001600000006313550E97820000938222AB1703A1
:10017000C05F130323E99723C05F938323E5638C58
:100180006200635A730003A5020091022320A300BA
:100190001103E34A73FE970200009382A21817032B
:1001A000C05F130323E69703C05F9383A3E5638CCB
:1001B0006200635A730003A5020091022320A3008A
:1001C0001103E34A73FE0F100000970200009382B0
:1001D00062151703C05F1303E3E29703C05F9383C5
:1001E00063E2638C6200635A730003A5020091020C
:1001F0002320A3001103E34A73FE0F10000017230E
:10020000C05F1303A3DC9723C05F9383A3E7635707
:100210007300232003001103E34D73FE1722C05F18
:100220001302C2DA11C2029617550000130505FF2A
:10023000EF40F07AEF50C0011765000013052593D9
:10024000EF40F079EF5050122937FD5673B0463029
:1002500073B04634F3271030372704007D8F09C769
:1002600073B0363073B02630370704007D8F19C362
:1002700073B006183707010013078702F98F89CB7F
:10028000F32700300967D98F73900730735030001F
:10029000F327103037072000F98F99C7F327003074
:1002A00093E707207390073005459385011913865E
:1002B00041193120EF40D073A280828082804111A9
:1002C00006C2F32240F1130300006385620073004D
:0C02D0005010F5BFF120924041018280E7
:0C02E000EC0240200A034020FE024020F7
:1002EC00F1653715008093850520130505A56F5022
:1002FC00F00B37050080130505096F609070B7256A
:10030C00F4003705008093850540130505096F70CF
:02031C00C07AA5
:100380002320000002902320000002902320000080
:1003900002900000000000000000000000000000CB
:1003A000597186D60567A2D4A6D2CAD0CECED2CCF9
:1003B000D6CADAC8DEC6E2C4E6C2EAC013010181C9
:1003C000930607820808AA96FD771386877E938591
:1003D000477EB6973EC693070782AA973E96930735
:1003E0000782AA97BE95B2471305E10523A2077EAF
:1003F000EF3010230545EF30A030B2472396A77E9B
:100400000945EF30E02FB2472397A77E0D45EF3027
:10041000202FB2472398A77E1145EF30602E2ADCAB
:100420001545EF30E02D6304056E2ADE05671307DE
:1004300007821408FD773697BA973EC683A7C77E12
:100440006387074005671307078214083697FD770F
:10045000BA9703A7C77E3EC68547630EF76C8565CE
:10046000080893850582AA957D76F2572E9632C6A6
:10047000B24593F61700901013F727001395060165
:1004800023AAC57E4181B335E000231E010413F683
:1004900047002E9501C60505420541811306007DE2
:1004A0003345A6028564930801017D761384048296
:1004B00046949305C67EA29513840482469401480F
:1004C0000143054E22968D482ADAB31E0E01B3FE73
:1004D000FE00330FA30263930E6A0508E31718FFAB
:1004E000639206386314073A918B99CF0567130717
:1004F00007821408FD773697BA9742568395C77ED0
:1005000052553EC6EF30C005E257639C071A854737
:100510003EDC85677D749387078218081304C47EC8
:10052000BA973E946257814493172700BA9786077B
:100530003EDCEF30F005E25982CA82CC63533017BB
:1005400093F73900C9CF05476383E70609476389F5
:10055000E70285452285EF00A06783554105854464
:10056000EF300021231AA104FD552285EF004066DB
:1005700083554105EF30C01F231AA104231BA1049A
:1005800085452285EF00C06483554105EF30401E4C
:10059000231AA104FD552285EF0080638355410590
:1005A000EF30001D231AA104638D04568504854590
:1005B0002285392D83554105EF30801B231AA10474
:1005C000FD552285312583554105EF30601A231AE8
:1005D000A10499E0231BA10485046384990C85453B
:1005E0002285FD238355410513891400930A1900C0
:1005F000EF300018231AA104FD552285D12B835515
:100600004105130A2900EF30A016AA87231AF10426
:100610008545228599E0231BF1045D2B8355410517
:1006200093043900EF30C014231AA104FD5522852C
:10063000452383554105EF30A013AA87231AF104FF
:100640008545228563140900231BF104512383553A
:100650004105EF30E011231AA104FD5522858D2BB1
:1006600083554105EF30C010AA87231AF104854550
:10067000228563940A00231BF104992B83554105BD
:10068000EF30000F231AA104FD55228591238355D5
:100690004105EF30E00D231AA104630F0A46E390F1
:1006A00099F4EF30E070EF30A072EF306075E35BEB
:1006B000A0E6A947B3C7A70262578507B387E70239
:1006C0003EDCEF30E06C856418087D74938704820B
:1006D000BA971305C47E3E95EF009071EF30406DE0
:1006E000EF30006F180893870482BA97A2972A8B7D
:1006F0000395C77E81453EC6EF30804FB247AA853D
:100700000395E77EEF30C04EB247AA850395077F79
:10071000EF30004EAA8503154103EF30604DA1670D
:10072000938757B0AA896309F54663F9A718A567A7
:10073000938727A06308F546BD679387579F631E7D
:10074000F5401385418FEF3030040D4A3719008092
:10075000832709A7014D8144814C6351F01A8566B6
:1007600093860682100893171A007D77B296369703
:10077000938B0186938AC1FE138A81FF3AC6BE9B82
:10078000BE9A3E9A35A00100B24766940A043E9490
:1007900085673E940317C4828504832709A73A9D81
:1007A000C204C180420D135D0D41A68C63D8F414C0
:1007B00013944C003247B30794018A07BA97056C2B
:1007C0003E9C8327CC8023160C82858B8DC30356D9
:1007D0006C8283D60B00630CD600E6851385C1942A
:1007E000EF30A0698357CC8285072316FC823247FD
:1007F000B30794018A07BA97056C3E9C0327CC8007
:10080000937727009DC303568C8283D60A00630E1C
:10081000D600E6851385C197EF3020668357CC82DA
:100820000327CC8085072316FC82118B31DF3247EA
:10083000B30794018A07BA9705643E940356A482CD
:1008400083560A00631CD6080317C482B1B7B247A7
:100850008397077FE39807BE324793076006231804
:10086000F77ECDB605671408130707823697FD7724
:10087000BA970396C77E83A5877F3EC6EF005023B5
:10088000F257AAC013F72700E30007C6056714084C
:10089000130707823697FD77BA973EC6324783978C
:1008A000E77E52550316C77E8325C77FC2075D8E3C
:1008B000D400EF20E01DF25705B901008967938746
:1008C000278F6307F52E95679387F7EA6315F5027F
:1008D0001385418CEF30406B094A8DBDE685138549
:1008E000019BEF3080590357C482050742074187B7
:1008F0002316E48255B57D5D37190080EF304047FF
:10090000D255B304AD001385019EEF300057DA8550
:100910001385819FEF3060565A85EF30604EAA856F
:10092000138501A1EF306055C2045A85C184EF30B0
:10093000204D6350A002832509A762545A853304D1
:10094000B402EF30E04BB345A402138581A2EF302F
:10095000C0525A85EF30C04AA54763D9A7208327E4
:1009600009A7E255138501A8B385F502EF30E050E1
:10097000938581A9138541AAEF3020509385C1AB9F
:100980001385C1E6EF30604F938541E81385C1E8D8
:10099000EF30A04ECE85138541EAEF30004EF2577E
:1009A00013F7170031C7032709A76353E00405674E
:1009B000130707821408FD773697BA9701448145DB
:1009C0003EC6056A939745003247AE978A07BA97A5
:1009D000D29703D66782138501EC0504EF30E04916
:1009E000832709A742044180A285E34DF4FCF25716
:1009F00013F72700832609A721C76353D00405678F
:100A0000130707821408FD773697BA97014481458A
:100A10003EC6056A939745003247AE978A07BA9754
:100A2000D29703D687821385C1ED0504EF30E044E9
:100A3000832709A742044180A285E34DF4FCF257C5
:100A4000918B032709A7A1C76353E0040567130728
:100A500007821408FD773697BA97014481453EC650
:100A6000056A0100939745003247AE978A07BA9707
:100A7000D29703D6A782138581EF0504EF30E03FBC
:100A8000832709A742044180A285E34DF4FC832714
:100A900009A76352F0040567130707821408FD775E
:100AA0003697BA97014481453EC6056A939745003B
:100AB0003247AE978A07BA97D29703D647821385F3
:100AC00041F10504EF30603B832709A742044180D0
:100AD000A285E34DF4FCD1C463589004138581F7DB
:100AE000EF30804A1305E105EF3080351301017FB7
:100AF000B6500145265496540659F649664AD64AD8
:100B0000464BB64B264C964C064D656182809D4700
:100B10003EDE6FF0BF910100231BA104E39199AC6D
:100B200049B6231BA10459B4E3DE04FA138581F806
:100B3000EF30804545BFB2478397077FE391079227
:100B40003247B7371534938757412326F77E9307EB
:100B500060062318F77E6FF09F907D5D3719008047
:100B600071BB138501F3EF302042ADBF85041385BF
:100B700001A4C204EF304041C184D5B3832F467F26
:100B8000931E28000503AE9E42037E9F135303016C
:100B900023A6EE016FF07F9413858189EF30C03E6C
:100BA000054A6DB61385C186EF30003E014A79BE15
:100BB00013850192EF30403D114A49BE000000000C
:100BC0000000000000000000000000000000000025
:100BD000031E45001D716AD86ED686CEA2CCA6CA69
:100BE000CAC8CEC6D2C4D6C2DAC05EDE62DC66DA5D
:100BF00002CAAA8D032D4502635DC0692EC6014657
:100C000001430145014F0100B2479376F60F36CA02
:100C100063C2072C93180F0193D8084163040D2E6B
:100C200003274D00B246EA8703172700631AD7004F
:100C300011A80100D843B246031727006304D70068
:100C40009C43EDFB814611A03A8D03270D00232024
:100C5000DD00EA8675FB6387072AD8430505420550
:100C60000317070041819376170081CE2587058BF6
:100C700046979318070193D80841139F0801135F03
:100C80000F01944381CA984298C383270D009CC2E8
:100C90002320DD00B24763C80700138B17009317AA
:100CA0000B01C1873EC6050642064186E31ECEF40F
:100CB00093172500B3876740338CF80093170C0116
:100CC000C1833ECE6343B02A83270D006A848443E8
:100CD000D843D0409440D0C3D8C094C3B24723A0D7
:100CE000040063C1071801005C40B24683972700E7
:100CF0006388D70000406DF883270D003E8491CFB4
:100D000083274D00F24503950700EF20706E0040E9
:100D10002ACE7DF4D84083270D00D0439443054567
:100D2000D0C0D8C394C084C3854F0100014F014394
:100D3000814801009306F5FF9D8A050F6350A018B6
:100D400083270D00054763810718B9C69C430546F4
:100D50008D45114E0947D9C36380C604638BE602F3
:100D60006386B6026381C6031546638BC6001946C7
:100D70006385C6009C430507B5C39C430507B9CFEF
:100D80009C430507A1CF9C430507A9CB9C430507BE
:100D9000B1C79C430507B9C36302A7049C43050779
:100DA000BA868DCF9C43050795CB9C4313872600BD
:100DB00095C79C431387360095C39C431387460011
:100DC00091CF9C431387560091CB9C4313876600B9
:100DD00091C79C4313877600E1F301002A869A8528
:100DE00046846355E006010055C2CDC3032E4D0075
:100DF00003A3470083160E008312230083182E00DE
:100E0000939E060193DE0E0193F606F093DE8E00AC
:100E1000B3E6D6012310DE0083160300B3885840E2
:100E2000139E0601135E0E0193F606F0135E8E000C
:100E3000B3E6C6012310D30063541005BE869C435D
:100E40007D1689CD94C1B685E340E0FA6356C004AF
:100E5000A1CF49FFBE867D169C43EDF53684B6854D
:100E6000E5B701005C40D24683C70700E38AD7E8B4
:100E700000406DF883270D003E84E39307E871BDC1
:100E8000EA867D17032D0D006DBF0100EA867D17F0
:100E9000032D0D007DB701003E8DA2882E83E39BBC
:100EA00007E8228D19A00100228D23A0050063D23E
:100EB000EF090605E31C04E66FF0EFCCEA87014773
:100EC0002A869A85468431BF05472A869A854684B4
:100ED00009BF010093180F0193D8084163040D0264
:100EE00003274D00EA87034707006399E60099BB93
:100EF000D843D24603470700E306D7D49C43EDFB13
:100F000091B3010003270D0093071300139307010A
:100F10005C4313530301038C1700137C1C00469C95
:100F200093180C0193D80841139F0801135F0F0118
:100F300095B3044099C801005C40F2450395070051
:100F4000EF20104B84402ACEE5F8F6406644724507
:100F5000D6444649B649264A964A064BF25B625C3D
:100F6000D25C425DB25D2561828093878D02054A25
:100F70003ECC010063070D168146014702C80100FF
:100F800042469307FAFF9D8B050632C86358402FEF
:100F9000832C0D00054C63890C2EADC783AC0C006F
:100FA00005468D451145094C63800C0C638CC704C4
:100FB00063858705638EB7026387A7021546638F33
:100FC000C70019466387C70083AC0C00050C638D0E
:100FD0000C0883AC0C00050C63880C0883AC0C0077
:100FE000050C63830C0883AC0C00050C638E0C06A7
:100FF00083AC0C00050C63890C0683AC0C00050C5B
:1010000063840C0663028A0783AC0C00050CE2873C
:10101000638C0C0483AC0C00050C63870C0483AC5C
:101020000C00138C270063810C0483AC0C00138C20
:101030003700638B0C0283AC0C00138C4700638574
:101040000C0283AC0C00138C5700638F0C0083AC34
:101050000C00138C670063890C0083AC0C00138CAC
:101060007700E3910CFA0100D28BB684BA896356FB
:101070008005010063820B0663800C06832A4D0005
:1010800003A94C0003940A0093770408C5CB137B93
:10109000F407831A090093F70A08B9C713F4FA078B
:1010A00033048B4063578008E68783AC0C00FD1B3C
:1010B00085C09CC0BE84E34F80FB6353700D638D7D
:1010C0000C16E31D0CFAE687FD1B83AC0C00F5F053
:1010D000BE89BE84CDB70100EA877D1C032D0D00BB
:1010E000C1BF6FF0EFA9010093D53A40BD89939637
:1010F000450013F77A0083D78D03D58D55C78546F4
:101100006308D70813950A0156844181BE85EF20F4
:1011100020661374F40713FE0AF0336EC401239C97
:10112000AD02136E0E082310C90133048B40E34D4A
:1011300080F6EA877D1C032D0D009DBF935534403A
:10114000BD89939645001377740083D78D03D58DA1
:1011500055C785466306D70813150401228B4181C4
:10116000BE85EF20E060137BFB07137E04F0336E37
:10117000CB01239CAD02136E0E082390CA0111BF50
:10118000668D4E87A686E39D0CDE4E8D7DA0010008
:1011900062453E86352583D7CD031314050141846E
:1011A000D5C783D78D039DB7930620022E8763D4BE
:1011B000D5001307200283962D0003960D0083A50A
:1011C0004D0103A58D011377F70FEF10703183D711
:1011D000ED03131405014184C1C383D78D033DB7CB
:1011E00062453E86F12B83D7CD03131B0501135BAC
:1011F0000B41ADCB83D78D03A5B701009306200229
:101200002E8763D4D5001307200283962D00039602
:101210000D0083A54D0103A58D011377F70FEF1086
:10122000302C83D7ED03131B0501135B0B41A9C3BE
:1012300083D78D0335B701004E8D424723A00400AC
:10124000854763DBE704060A35B3010083D78D03C6
:10125000239EAD0265BD0100239FAD0283D78D03A0
:1012600075B5010083D78D03239EAD02D5BD010066
:10127000239FAD0283D78D03E5B50100EA8C014CB5
:10128000D28BB684BA89E5B3054CD28BB684BA89C1
:10129000F9BB2EC602CE3DB44E8D3DB40000000019
:1012A000000000000000000000000000000000003E
:1012B000D1473345F502E1771388070823A00500DD
:1012C0009386050193C7F7FF1387850079151313DC
:1012D00035002E9323A26500931E250023100301E1
:1012E00023110300130883009A9E9308430063FDB3
:1012F000662C637FD82D23A6150123A4050098C171
:10130000FD58231213012313F3006355A00A617FD4
:10131000937715008148134FFFFF6399072601005B
:10132000139E0801135E0E41B347CE00BD8B137EA2
:101330007E008E07B3E7C70193928700138E860065
:10134000930F4800B3E75700637F6E0063FDDF0132
:1013500098C294C123A2060136872310F8002311F6
:10136000E801F2867E888508139E0801135E0E410F
:10137000B347CE00BD8B137E7E008E07B3E7C70157
:10138000939F8700138E8600B3E7F70163716E02A7
:10139000930F480063FDDF0198C294C123A20601A8
:1013A0002310F8002311E80136877E88F28685082D
:1013B000E398A8F61C43A1C795481163B3481503E9
:1013C00085477D1301A8010018432311A800850754
:1013D000144395C613950701032847004185E3C5CB
:1013E00017FF85079396870093F60670318D184393
:1013F000C98EB3F666002311D8001443E1FE854878
:1014000085420100814F0143014601009386F8FFA8
:101410009D8A850F635E10159C4105476380071602
:10142000B9C69C43054E0D4811450947D1C3638099
:10143000C605638BE602638606036381A602154533
:10144000638BA60019456385A6009C430507ADC3C1
:101450009C430507B1CF9C430507B9CB9C430507C7
:10146000A1CB9C430507A9C79C430507B1C36301F2
:1014700017059C430507BA8685CF9C4305078DCB8E
:101480009C43138726008DC79C43138736008DC36A
:101490009C431387460089CF9C431387560089CB12
:1014A0009C431387660089C79C4313877600E1F34A
:1014B000C6861A8832856357E0060100C1C6D9C3C3
:1014C00083AE450003AE470003960E0083132E0043
:1014D00003932E00131F0601135F0F01137606F00E
:1014E000135F8F003366E6012390CE0003160E00D3
:1014F00033037340931E060193DE0E01137606F04C
:1015000093DE8E003366D6012310CE00635860024E
:101510003E869C43FD16630008022320C8003288E3
:10152000E34EE0F86354D00295CB59FB3E86FD169E
:101530009C43E31408FE32853288DDB72E867D1782
:101540008C41D1BF2E867D178C41F1B7BE852A868E
:101550004283E39D07EAAA8519A00100AA852320FA
:10156000080063D3F2038608E31E05E86FE01FE27C
:10157000AE870147C6861A88328535BF0547C686BD
:101580001A8832850DBF0100828001009377F60032
:101590008E07939F870093888600130E4800B3E759
:1015A000F70163FF6800637DDE0198C294C123A246
:1015B00006012310F8002311E80136877288C686D9
:1015C0008548E39FA8D4FDB3BA864688014735BB5A
:1015D000BA864688014715BB0000000000000000E5
:1015E00000000000000000000000000000000000FB
:1015F00001114EC68329C50106CE22CC26CA4AC88F
:1016000052C456C2232C0502232E0502635E3017F6
:1016100093F739002A848144D1CF05476382E706D6
:1016200009476388E7028545EFF08FDA8355840325
:101630008544EF20E013231CA402FD552285EFF022
:101640002FD983558403EF20A012231CA402231D4D
:10165000A40285452285EFF0AFD783558403EF20A0
:101660002011231CA402FD552285EFF06FD683556F
:101670008403EF20E00F231CA402638D0412850471
:1016800085452285EFF0CFD483558403EF20400EAB
:10169000231CA402FD552285EFF08FD383558403CC
:1016A000EF20000D231CA402638004108504638DC9
:1016B000990C010085452285EFF08FD18355840375
:1016C00013891400930A1900EF20800A231CA40236
:1016D000FD552285EFF0CFCF83558403130A2900EF
:1016E000EF200009AA87231CF4028545228599E092
:1016F000231DF402EFF0CFCD83558403930439000A
:10170000EF200007231CA402FD552285EFF04FCCEB
:1017100083558403EF20C005AA87231CF402854566
:10172000228563140900231DF402EFF06FCA83556C
:101730008403EF20E003231CA402FD552285EFF073
:101740002FC983558403EF20A002AA87231CF4022B
:101750008545228563940A00231DF402EFF04FC7EC
:1017600083558403EF20C000231CA402FD5522856D
:10177000EFF00FC683558403EF10907F231CA40263
:10178000630E0A00E39899F2F2406244D24442495F
:10179000B249224A924A014505618280231DA40272
:1017A000E39A99F0D5B70100231DA4028504E393C1
:1017B00099F0D9BF231DA4028504D9B5000000000B
:1017C0001D715C41D2C4032A0500A2CCD6C2DAC086
:1017D0007D7486CEA6CACAC8CEC65EDE62DC66DA74
:1017E0006AD86ED63EC232C4032BC500832A850058
:1017F0004D8C634440016F10A026AE8481461319BE
:101800001A0001001307E9FF058305071D8BB38547
:1018100027013DCF05466305C7060946630CC7048B
:101820000D466303C7041146630AC70215466301E8
:10183000C70219466308C70003D707008907269720
:10184000239FE7FE03D7070089072697239FE7FE1C
:1018500003D7070089072697239FE7FE03D70700D2
:1018600089072697239FE7FE03D707008907269756
:10187000239FE7FE03D7070089072697239FE7FEEC
:1018800003D7070089072697239FE7FE638DB704D8
:1018900083DE070003DE270003D3470083D86700F9
:1018A00003D8870003D5A70003D6C70003D7E700F6
:1018B000A69E269E2693A698269826952696269737
:1018C0002390D7012391C701239267002393170127
:1018D000239407012395A7002396C7002397E700C9
:1018E000C107E397B7FA8506E31EDAF09247814510
:1018F00093192A005A8601009306E9FF858285061E
:101900009D8A328733852701C9CE05486381060940
:101910000948638606070D48638B060511486380F6
:1019200006051548638506031948638A06018396F0
:101930000700130746008907B386960214C28396F0
:10194000070011078907B3869602232ED7FE8396D8
:10195000070011078907B3869602232ED7FE8396C8
:10196000070011078907B3869602232ED7FE8396B8
:10197000070011078907B3869602232ED7FE8396A8
:10198000070011078907B3869602232ED7FE839698
:10199000070089071107B3869602232ED7FE6387B7
:1019A000A706839F0700039F2700839E4700039E8F
:1019B0006700039387008398A7000398C700839666
:1019C000E700B38F9F02C10713070702330F9F027F
:1019D0002320F7FFB38E9E022322E7FF330E9E02E1
:1019E0002324D7FF330393022326C7FFB38898022B
:1019F000232867FE33089802232A17FFB38696022E
:101A0000232C07FF232ED7FEE39DA7F885054E96CE
:101A1000E314BAEEB30C4041814E814701430146C5
:101A200013983C00B3063B0193952C003387B60016
:101A3000338EE640711E135E2E00050E137E7E006F
:101A4000BA887685630D0E16854E6304DE0D894EC9
:101A50006303DE0B8D4E6302DE09914E6302DE07E7
:101A6000954E6302DE05994E6302DE03032E0700E6
:101A70007293635464006F00B07DB3A7C701AA9747
:101A800013950701418593084700F28703AE0800CC
:101A90007293E34D6464B3A7C701AA971395070136
:101AA00041859108F28703AE08007293E3486462AF
:101AB000B3A7C701AA971395070141859108F2873B
:101AC00003AE08007293E34B6462B3A7C701AA9701
:101AD0001395070141859108F28703AE08007293C0
:101AE000E34E6462B3AEC701B307D5011395070196
:101AF00041859108F28703AE08007293E348646061
:101B0000B3AEC701B307D50113950701418591080D
:101B1000F28703AE08007293E3446464B3AEC70176
:101B2000B307D5011395070141859108F2876398A2
:101B3000D80835A203A54800A9070143C2072A9384
:101B4000C1876348640A332EAE00F29703AE880063
:101B5000C207C18772936347640A3325C501AA97F8
:101B600003A5C800C207C1872A936346640A332EBF
:101B7000AE00F29703AE0801C207C18772936345B6
:101B8000640A3325C501AA9703A54801C207C18786
:101B90002A936344640A332EAE00F29703AE8801A1
:101BA000C207C18772936343640A3325C501AA97AC
:101BB00013950701F1084185F2876382D80A83AE45
:101BC00008007693E35464509307A500C2070143CD
:101BD000C18703AE480091087293E34D64F403A5F6
:101BE0004800B3AECE01F697C2072A93C187E35CE3
:101BF00064F403AE8800A9070143C2077293C1874A
:101C0000E35D64F403A5C800A9070143C2072A9352
:101C1000C187E35E64F403AE0801A9070143C2076C
:101C20007293C187E35F64F403A54801A9070143E8
:101C3000C2072A93C187E35064F603AE8801A9075F
:101C40000143C2077293C187E35164F6A907139554
:101C50000701F10841850143F287E392D8F60506B2
:101C6000F287AA8EB3060741E312CADC8145EF1062
:101C700030789245B3073B012AC83EC65A85B382E5
:101C80002A01010033875241791705830507232074
:101C900005001D8B2E868147D6864DC705486308F3
:101CA00007090948630C07070D4863000707114837
:101CB000630407051548630807031948630C070107
:101CC0000397050083970A001386250093862A0050
:101CD000B307F702031706000398060009068906F2
:101CE00033070703BA97031706000398060009068F
:101CF000890633070703BA970317060003980600FF
:101D00000906890633070703BA97031706000398E5
:101D100006000906890633070703BA97031706006A
:101D2000039806000906890633070703BA970317C5
:101D30000600039806008906090633070703BA97C9
:101D4000638ED2060318060003970600839E2600C2
:101D5000031D26003307E80283104600839D4600DA
:101D6000831F6600039C6600031E8600839B86001B
:101D70000313A6008393A6008318C600330DDD036A
:101D80003E97039FC6000318E600839EE600C10647
:101D90004106B380B0036A97B3878F030697330E6B
:101DA0007E03BA9733037302F297B388E8039A97D6
:101DB0003307D803C697BA97E396D2F81CC1B24747
:101DC0001105CA95E390A7EC814E81480143014675
:101DD00013983C00B3063B0193952C003387D50044
:101DE000338FE640711F135F2F00050F137F7F00B5
:101DF0003A8EF68763000F160545630AAF0A094558
:101E0000630BAF080D45630CAF061145630DAF04BE
:101E10001545630EAF021945630FAF0008432A93BF
:101E2000E3406442B3A8A800B3871E01C207C1877C
:101E3000130E4700AA8803250E002A93E34E643C44
:101E4000B3A8A800C697C207C187110EAA880325A8
:101E50000E002A93E3406430B3A8A800C697C207D7
:101E6000C187110EAA8803250E002A93E34E642C25
:101E7000B3A8A800C697C207C187110EAA88832EEF
:101E80000E007693E3446438B3A8D801C697C2071E
:101E9000C187110EF688832E0E007693E340642AE4
:101EA000B3A8D801C697C207C187110EF688832E42
:101EB0000E007693E34C642EB3A8D801C697C207F0
:101EC000C187110EF6886317DE081DA203254E0098
:101ED000A9070143C2072A93C1876346640AB3A8CE
:101EE000A800C69783288E00C207C1874693634522
:101EF000640A33251501AA970325CE00C207C187BE
:101F00002A936344640AB3A8A800C69783280E01E5
:101F1000C207C18746936343640A33251501AA9714
:101F200003254E01C207C1872A936342640A832EA8
:101F30008E01B3A8A800C697C2077693C1876341F4
:101F4000640A3325D501AA97C207710EC187F688A6
:101F50006300DE0A832E0E007693E359641CA90702
:101F6000C2070143C18783284E00110E4693E34FF9
:101F700064F403254E00B3AE1E01F697C2072A9300
:101F8000C187E35E64F483288E00A9070143C2077A
:101F90004693C187E35F64F40325CE00A90701439C
:101FA000C2072A93C187E35064F683280E01A9076C
:101FB0000143C2074693C187E35164F603254E01EE
:101FC000A9070143C2072A93C187E35264F6832E0F
:101FD0008E01A9070143C2077693C187E35364F6D4
:101FE000A907C207710EC1870143F688E314DEF624
:101FF0000506F688B3060741BE8EE311CADEC24568
:102000003E85EF10F03EB3872A0192453ECCA6876D
:10201000DA83A2842ACE5A8481403E8BA2871E880E
:10202000528456863305B9003E8A0100B308B54094
:10203000F91893D8180085082320080093F8780031
:10204000B287AE8601476386080A0543638868083D
:102050000943638C68060D436380680611436384FB
:1020600068041543638868021943638C6800839889
:1020700005000317060093862500B3072601338762
:10208000E80283980600039307008906CA97B3887D
:102090006802469783980600039307008906CA974B
:1020A000B388680246978398060003930700890661
:1020B000CA97B3886802469783980600039307007F
:1020C0008906CA97B38868024697839806000393E7
:1020D00007008906CA97B388680246978398060066
:1020E000039307008906CA97B38868024697630D71
:1020F000D50803930700839D0600CA9783980700BD
:10210000039F2600B38D6D02CA9703936600839EDA
:102110004600039D07001AC6CA97039E0700839FC7
:1021200086008392A600330F1F036E97CA977EC85E
:10213000039C070016CACA97839B0700CA9703939C
:10214000C6007A97B38EAE03324F83920700CA97C8
:102150008398E600839F0700C106CA97330ECF031A
:10216000BA9E4247330C87033387CE01524EB30BDE
:102170007E036297330353025E97B388F8031A977E
:102180004697E318D5F60100E2472320E800090648
:102190001108E39DC7E8D2878500228AAA853E847C
:1021A000CE93E31D1AE6DA87228B814E268481487E
:1021B000BE840143014613983C00B3063B0193954E
:1021C0002C0001003387D500338FE640711F135F69
:1021D0002F00050F137F7F003A8EF687630A0F16D4
:1021E0000545630AAF0A0945630BAF080D45630C4B
:1021F000AF061145630DAF041545630EAF021945D7
:10220000630FAF0008432A93E3446402B3A8A80015
:10221000B3871E01C207C187130E4700AA88032592
:102220000E002A9363486476B3A8A800C697C20735
:10223000C187110EAA8803250E002A936342647693
:10224000B3A8A800C697C207C187110EAA880325A4
:102250000E002A93634A6472B3A8A800C697C20707
:10226000C187110EAA88832E0E007693634864708E
:10227000B3A8D801C697C207C187110EF688832E6E
:102280000E0076936346646EB3A8D801C697C20762
:10229000C187110EF688832E0E0076936342647612
:1022A000B3A8D801C697C207C187110EF6886391FB
:1022B000C60B35AA83284E00A9070143C2074693DF
:1022C000C187110E6356640A03254E00A907014316
:1022D000C2072A93C1876347640AB3A8A800C697B8
:1022E00083288E00C207C18746936346640A33255C
:1022F0001501AA970325CE00C207C1872A9363451B
:10230000640AB3A8A800C69783280E01C207C18734
:1023100046936344640A33251501AA9703254E01A9
:10232000C207C1872A936343640A832E8E01B3A830
:10233000A800C697C2077693C1876342640A332513
:10234000D501AA97C207710EC187F6886381C60BB3
:10235000832E0E007693E34F64F4B3A8D801C6979A
:1023600083284E00C207C1874693110EE34E64F4E2
:1023700003254E00B3AE1E01F697C2072A93C1870C
:10238000E35D64F483288E00A9070143C2074693E6
:10239000C187E35E64F40325CE00A9070143C207A9
:1023A0002A93C187E35F64F483280E01A9070143E0
:1023B000C2074693C187E35064F603254E01A9077F
:1023C0000143C2072A93C187E35164F6832E8E012D
:1023D000A9070143C2077693C187E35264F6A907B0
:1023E000C207710EC1870143F688E393C6F705065D
:1023F000F688B3060741BE8EE316CADCF2453E8579
:10240000EF10007F9248AA85014FDA8EB38F2A0120
:1024100076835685330819013306184179160582EB
:102420000506232003000D8AAA87468781463DCEF4
:10243000054E6309C605094E6304C60383160500ED
:102440000396080013872800B30725013306D60238
:10245000935626401586BD8A1376F607B386C602C4
:10246000039E070003160700CA9709073306C60331
:10247000135E26401586137EFE001376F60733069C
:10248000CE02B296039E0700031607000907CA97FB
:102490003306C603135E26401586137EFE001376B0
:1024A000F6073306CE02B296630EE80803960700DD
:1024B000031D0700CA97031C270083930700CA97D0
:1024C000831B470083920700CA9783106700330D70
:1024D000CD02039E07002107CA97B3037C0213565F
:1024E0005D40135C2D40137CFC001376F607B3822D
:1024F0005B0293DB234093D3534093FBFB0093F3A6
:10250000F307338EC00393D0224093D2524093F00E
:10251000F00093F2F2073306CC02135C2E40135EF8
:102520005E40137CFC00137EFE07B3837B02B296F1
:10253000B38250029E96330ECC039696F296E31722
:10254000E8F601002320D30009051103E396AFEC60
:10255000050FC288CE9EE31DEAEB814E0147014E76
:10256000814613963C00DA9993982C003388380101
:10257000338F0941711F135F2F00050F137F7F00F9
:102580004283F687630C0F160545630BAF0A0945B6
:10259000630CAF080D45630DAF061145630EAF0424
:1025A0001545630FAF0219456300AF02032508000C
:1025B0002A9E6349C4473327A700B387EE00C207AA
:1025C000C187130348002A87032503002A9E634B13
:1025D000C43F3327A700BA97C207C18711032A87D0
:1025E000832E0300769E6349C43D3327D701BA97F3
:1025F000C207C18711037687832E0300769E634945
:10260000C43D3327D701BA97C207C1871103768724
:10261000832E0300769E6349C43D3327D701BA97C2
:10262000C207C18711037687832E0300769E634716
:10263000C43B3327D701BA97C207C18711037687F6
:10264000832E0300769E6347C43B3327D701BA9796
:10265000C207C187110376876392690A3DAA010008
:1026600003254300A907014EC2072A9EC187110313
:102670006356C40B03274300A907014EC2073A9EC5
:10268000C1876347C40B3325E500AA970325830060
:10269000C207C1872A9E6346C40B3327A700BA9797
:1026A0000327C300C207C1873A9E6345C40B332585
:1026B000E500AA9703250301C207C1872A9E634448
:1026C000C40B3327A700BA9703274301C207C1876A
:1026D0003A9E6343C40B832E83013325E500AA97FA
:1026E000C207769EC1876342C40B3327D701BA97CE
:1026F000C2077103C18776876381690A832E03004D
:10270000769EE34FC4F5032543003327D701BA97DC
:10271000C2072A9EC1871103E34EC4F50327430075
:10272000B3AEAE00F697C2073A9EC187E35DC4F52B
:1027300003258300A907014EC2072A9EC187E35ED5
:10274000C4F50327C300A907014EC2073A9EC187FB
:10275000E35FC4F503250301A907014EC2072A9EC2
:10276000C187E350C4F703274301A907014EC207FD
:102770003A9EC187E351C4F7832E8301A907014E16
:10278000C207769EC187E352C4F7A907C207710347
:10279000C187014E7687E39369F685067687B3098C
:1027A000C840BE8EE314DADC3E85EF1060449247E9
:1027B000814601001307E9FF058305071D8B3308D8
:1027C000F9003DCF05466305C7060946630CC704FB
:1027D0000D466303C7041146630AC7021546630129
:1027E000C70219466308C70003D707008907058F8A
:1027F000239FE7FE03D707008907058F239FE7FE86
:1028000003D707008907058F239FE7FE03D707003B
:102810008907058F239FE7FE03D707008907058FE8
:10282000239FE7FE03D707008907058F239FE7FE55
:1028300003D707008907058F239FE7FE63820707F9
:1028400003DF070083DE270003DE470003D36700B2
:1028500083D8870083D5A70003D6C70003D7E70036
:10286000330F9F40B38E9E40330E9E403303934000
:10287000B3889840858D058E058F2390E7012391BD
:10288000D7012392C701239367002394170123954F
:10289000B7002396C7002397E700C107E39207FB21
:1028A0008506E319DAF06644A245F640D644464967
:1028B000B649264A964A064BF25B625CD25C425DA0
:1028C000B25D4205418525616F108032B3A7D70103
:1028D000AA97C207C1876FF0CFAF01009307A50089
:1028E00013950701418501436FF04F9D9307A500A4
:1028F00013950701418501436FF0AF9A9307A50037
:1029000013950701418501436FF0EF9C9307A500E4
:1029100013950701418501436FF06F9F9307A50051
:1029200013950701418501436FF0AF9CB3A8D8010F
:10293000C697C207C1876FF00FE30100A907C2075E
:10294000C18701436FF06FD6A907C207C187014352
:102950006FF0AFD2A907C207C18701436FF06FD0F4
:102960009307A50013950701418501436FF0EF9B85
:10297000A907C207C187014329BA0100A907C207F5
:10298000C1870143DDB80100A907C207C187014320
:10299000C9B80100A907C207C187014359B801009E
:1029A000A907C207C18701434DB00100A907C207AB
:1029B000C18701436FF0EFD0A907C207C187014E5D
:1029C00015B90100A907C207C187014E01B901006D
:1029D000A907C207C187014E15B90100A907C2079F
:1029E000C187014EA1B90100A907C207C187014EE5
:1029F00015B90100A907C207C187014EA1B901009D
:102A0000A907C207C18701434DB00100A907C2074A
:102A1000C18701436FF0EFC7A907C207C187014310
:102A20006FF0AFC29387AE00C207C187014E51BE9F
:102A30009387AE00C207C18701436FF0EFFD01002D
:102A40009387AE00C207C18701436FF06FBE0100DC
:102A50009307A50013950701418501436FF0AF82ED
:102A600081450145EF10C018AA850145EF104018B7
:102A7000AA850145EF10C017AA850145EF10401740
:102A80001DB5000000000000000000000000000074
:102A9000797122D626D44AD24ED052CE56CC5ACABA
:102AA0005EC862C666C42A8711E2054601456344D2
:102AB000E00009AC7285130E1500B307CE038E0734
:102AC000E3CAE7FEB304A502138AF5FF137ACAFF2F
:102AD000110A860433099A00635FA01AC16E01448B
:102AE000854F93191500CA82FD1E330F2A4101003C
:102AF000B307FE418D8B96857E88C5CF0547638DD4
:102B0000E7060947638FE7023306F60393970F0141
:102B1000C187B3085F0013881F00938522001357F5
:102B2000F64141833A963376D601198E3387C70032
:102B300042074187BA972390E20093F7F70F23905B
:102B4000F8003306060393170801C187B308BF00D6
:102B5000050889051357F64141833A963376D60125
:102B6000198E3387C70042074187BA97239FE5FE36
:102B700093F7F70F2390F800330606039317080125
:102B8000C187B308BF00050889051357F641418383
:102B90003A963376D601198E3387C70042074187AC
:102BA000BA97239FE5FE93F7F70F2390F800630E83
:102BB000C80D3306060313071800931B070193186B
:102BC000080193D80841930728001393070193DB6A
:102BD0000B41B303BF00130B3800935CF64193DC49
:102BE0000C0166963376D601330696413307E6022A
:102BF0004696420641862390C500B29893F8F80F96
:102C00002390130193180B01135303411356F741FB
:102C1000418232973377D701118FB307F7025E975E
:102C2000420741872391E500BA9B93FBFB0F93D8A2
:102C3000084123917301110813D7F7414183BA97D3
:102C4000B3F7D701998F338B67039A97C207C18770
:102C50002392F5003E931373F30F23926300A105B3
:102C60001356FB414182329B337BDB013306CB4061
:102C7000B387C800C207C187BE98239FF5FE93F8AB
:102C8000F80F23931301E316C8F30504AA9F2A9EA5
:102C9000CE92E31FA4E4B3079900FD173254F19BD1
:102CA000910723A2460123A42601DCC688C2A254B0
:102CB00012598259724AE24A524BC24B324CA24CD0
:102CC000456182801389F5FF1379C9FF130A490012
:102CD0007D5589441909C1B70000000000000000BB
:102CE000757122C506C726C34AC1CEDED2DCD6DA4C
:102CF000DAD8DED6E2D4E6D2EAD0EECE83C805003A
:102D000002D802C802DA02CA02DC02CC02DE02CE1B
:102D100082C002D082C202D282C402D482C602D64B
:102D20002AC436C6AE8E0144BE85638E080AC687A5
:102D30007685014D814B01498142814D014C014F06
:102D4000014B8143814A014A81408144254E9309C8
:102D5000E002930C50041303C00201006382675425
:102D6000138F07FD137FFF0F83461500130815000F
:102D70000504636FEE09638D065A930F2500638F78
:102D80006666B6878346250042856385370B938741
:102D900007FD93F7F70F6379FE16B6877E85850AE0
:102DA000854D054F85460100130801058A06C29628
:102DB00003A806FC050823A006FDCDF3630E0F4C07
:102DC00022D863030C001EDC63830D00D6C063832E
:102DD0000200D2C26303090006DE63830B00A6C4AF
:102DE00063030D005ADAA2473385FE0063F0AE1A82
:102DF000F6879306C00201006386D800B3C8C800F6
:102E000023801701BA9763F1A71883C80700EDB7AD
:102E1000130FB002638EE711130FD0026384E743F0
:102E2000638C3743B6874285050B054D054F8546B4
:102E3000A5BF0100850A6389065C138F1F00638D9F
:102E4000665E03482500854D93F7F60D6380970372
:102E5000938606FD93F6F60F6372DE0C7A85C287C1
:102E6000050A8542054F854681B70100050A6303BF
:102E7000084613051F006301684A130858FD1378BC
:102E8000D80F83C72F0085006308080005498542D5
:102E9000054F854611BF01006388074213082F00C4
:102EA00063826746938707FD93F7F70F83462F00EA
:102EB00085046369FE026387064A13053F00638B3E
:102EC000664C83473F00938606FD93F6F60F6373C7
:102ED000DE02050B054D854B05498542054F8546AC
:102EE000E1B50100B6874285854B05498542054F0E
:102EF00085465DBD63840748BE86638D674A834708
:102F000015000505C9B70100638206527E85B687A4
:102F1000638A665483C61F00850F85BD630F0854FE
:102F2000FA8FC2866306685603481F00050F29BF43
:102F300063830658130F2500638A665A834725006A
:102F40007A85138F06FD137FFF0F85036378EE01EB
:102F500063803603054C054F8546B9B5638C074041
:102F6000930F15006380674483462800054C31BDEC
:102F7000638F0752130F150063826756AA8FBE86B0
:102F800003482800054CC9B583C80E00638A080AA7
:102F9000D25BE254064B964A7259A64901463AC49E
:102FA000C686A2837688014C81478140814D814C41
:102FB000814F254F130AE002130D5004130EC00277
:102FC000328701006382C62D938F06FD93FFFF0FAA
:102FD000034618001303180085036375FF09930F58
:102FE000B0026389F61B930FD0026383F625638FCB
:102FF0004627B2861A88850B0547854F054601008E
:10300000130301050A061A96032306FC0503232071
:1030100066FCCDFABA86224763840F261ED86383E6
:103020000C0026DC63830D00DAC063830000D6C287
:1030300091C34ADE63030C00CEC41E8491C25EDAE3
:1030400063F6AE1AB2469307C00201006386F80029
:10305000B3C8D80023801E01BA9E63F9AE1883C896
:103060000E00EDB7630A062E93022800630EC631E8
:10307000B286034628001A8863804603938606FDBD
:1030800093F6F60F6374DF0EB2861688050B854D36
:10309000854F0546B5B70100050B630D0636938FC6
:1030A00012006303C63B03432800854D9376F60D5B
:1030B0006380A603130606FD1376F60F6372CF0C2A
:1030C0007E889A86850A8540854F054615BF010092
:1030D000850A630F031C13881F006303C3211303B6
:1030E00053FD1373D30F83C6220005096308030041
:1030F00085478540854F054621B701006380061C42
:1031000013832F006386C61F938606FD93F6F60F82
:1031100083C72F0085096369DF0263810722138853
:103120003F006383C72B83C63F00938707FD93F758
:10313000F70F6373FF02850B0547054C85478540F4
:10314000854F054675BD0100BE861A88054C85472A
:103150008540854F05466DB5638A061EB687638D2B
:10316000C627834618000508C9B70100630A062A66
:103170001688B2866302C62F03C612008502EDBD13
:103180006308032EFE821A86630EC32F03C31F003B
:10319000850F29BF63040630930F28006302C633EE
:1031A000834628007E88930F06FD93FFFF0F85045A
:1031B0006378FF0163004603854C854F054689B55A
:1031C00063840616930218006382C6230346230015
:1031D000854C5DB56389062C930F18006388C62F54
:1031E00003432300C2823686854CC9B51309010307
:1031F0000408CA8921A00100032409008840910421
:103200001109FD25AA852285E525AA85E39634FFC7
:10321000BA402A449A440A49F659665AD65A465B35
:10322000B65B265C965C065DF64D496182800100C6
:103230006309062C930F28006300C62F83462800DD
:103240007E8895B7638A062A130F25006380662C53
:10325000834725007A85F5B1638C062C130F250072
:103260006382662EC28F03482500F9BE6307062CD1
:10327000930F28006308C62B9A82034328003DB5AC
:10328000A283E3900CDA79BB428301461308130052
:1032900083461300B5B301000144E3160CB22DB60A
:1032A0002A8881461305180083471800F5BC0100E1
:1032B0007E8881468540854F0D4699B38547854078
:1032C000854F194635BB010005498542054F994692
:1032D000E1BC01007A8581478542054F8D46E9B4FE
:1032E0007E838540854F0D468346130011BB010048
:1032F0009A87428385403E88854F85471946834695
:103300001300FDB9C2872A8805493E858542054FCD
:1033100099468347180049BC7A888542054F8D46F7
:103320008347180051B40100854C854F1146C9B937
:1033300042858147054F914685BC01001A88814628
:10334000054C85478540854F1D465DB9054C854731
:103350008540854F1D466DB11A888146854F1146BF
:1033600045B1010042858147854B05498542054F9E
:103370009D461DBC054C054F91463DB4854B054906
:103380008542054F9D460DB41688854F11468346EC
:103390001300BDB1854B05498542054F9D468347C6
:1033A000180019B42A88054C7E85054F914683473D
:1033B0001800DDBA2A88854B0549054F85429D4690
:1033C00013051800D5B50100054C85478540854F8C
:1033D0001D46834613002DB142831D46054C854092
:1033E0008547854F1308130065B501004283854C5E
:1033F0001688854F11468346130019B17E85054F07
:103400009146834718004DB27E858147854D054F13
:10341000954659BA16888146854D854F1546CDB6D5
:1034200016888146854F1146E1BE01007E858147A1
:10343000054F914695BA01007E887A85854D054FE6
:103440009546834718008DB216837E88854D854F3B
:103450001546834613006DB616831146854F130833
:1034600013003DB57E88054F9146130518002DBD0C
:103470007E888146854F154661B67A858147054F1E
:1034800095461DB27E831546854F1308130009B576
:103490007A889546054F1305180039B51A88814674
:1034A000854F0946B1BE854C854F154691BE054CEA
:1034B000054F9546D5B842858147054F8946EDB001
:1034C0007E880946854F834613001DBE4283854C86
:1034D0007E881546854F834613001DB62A88054C05
:1034E0007A859546054F834718007DB87A858946C9
:1034F000054F834718004DB842858147054F8946DF
:1035000065B01A888146854F0946DDBC7A858946B3
:10351000054F8347180049B87E880946854F834682
:103520001300F9BC7E881546854F83461300C9BC3D
:1035300042858147054F954685B81A888146854F53
:1035400015467DBC7A859546054F834718006FF078
:10355000BF85000000000000000000000000000027
:10356000011122CE26CC52C64ACA4EC856C4014AC0
:10357000814701479306F5FF1144A1449303C0021C
:10358000194E15438D481D4893824102938F410186
:10359000138F4103938E41003309F70093091900FB
:1035A00063DCD902E1EF8505C205C18593D73540BB
:1035B00013F975008D8B636B2E0B63736912636B4C
:1035C00019118A07FE9703AA0700A1473309F700DC
:1035D00093091900E3C8D9FCB307E6002A96635F94
:1035E000A7063307F6401D8B39C785466300D7040D
:1035F0008946630AD7028D466304D7029146630E5B
:10360000D70095466308D70099466311D70E2380EB
:1036100007008507238007008507238007008507AB
:103620002380070085072380070085072380070084
:1036300085076385C70223800700A38007002381D5
:103640000700A381070023820700A38207002383CA
:103650000700A3830700A107E39FC7FC7244E2446D
:103660005249C249324AA24A05618280631409075D
:103670008A07F69703AA0700A14739BF834A0A00C1
:103680003309E60023005901834A1A00A3005901B7
:10369000834A2A0023015901834A3A00A3015901B0
:1036A00063848702834A4A0023025901834A5A00ED
:1036B000A3025901834A6A002303590163969700C4
:1036C000034A7A00A3034901B297BA97238077008F
:1036D0004E87D1BD8A07969703AA070091476DBD13
:1036E0008A07FA9703AA0700A1477DB52380070040
:1036F000850731BF0000000000000000000000004E
:103700008D476305F50463DDA70091476306F50463
:1037100095476313F502B727008003A507FD828054
:103720008547630FF5008947631AF500B7270080C6
:1037300003A5C7FC8280010001458280014582808B
:10374000B727008003A587FC82800100B71700809F
:1037500003A547A782800100B717008003A587A7AC
:103760008280000000000000000000000000000057
:1037700033C6A5009376F50F058A13D7160093D7A5
:10378000150011C669760506B18FC207C1833D8F4A
:1037900013761700858313D7260011C669760506B0
:1037A000B18FC207C1833D8F058B13D63600858349
:1037B00011C769770507B98FC207C1833D8E058A96
:1037C00013D74600858311C669760506B18FC207F7
:1037D000C1833D8F058B13D65600858311C769774A
:1037E0000507B98FC207C1833D8E058A13D76600CE
:1037F000858311C669760506B18FC207C1833D8FE7
:10380000058B9D82858311C769770507B98FC2072C
:10381000C18313F7170085836307D700697705070E
:10382000B98FC207C18321813346F5001377F50FA5
:10383000058A9356170013D5170011C6E977850737
:103840003D8D42054181A98E858A935727000581C8
:1038500091C6E9768506358D42054181A98F858B14
:1038600093563700058191C7E97785073D8D42055D
:103870004181A98E858A93574700058191C6E976D3
:103880008506358D42054181A98F858B935657005A
:10389000058191C7E97785073D8D42054181A98E54
:1038A000858A93576700058191C6E9768506358D2F
:1038B00042054181A98F858B1D83058191C7E977D9
:1038C00085073D8D4205418193771500058163870A
:1038D000E700E97785073D8D420541818280000040
:1038E00000000000000000000000000000000000D8
:1038F00033C8A5009376F50F131705011378180048
:10390000418313D6160093D7150063070800E975A5
:103910008505AD8FC207C1833D8E937516008583E3
:1039200013D6260091C5E9758505AD8FC207C18301
:103930003D8E058A93D53600858311C669760506C6
:10394000B18FC207C183BD8D858913D6460085839B
:1039500091C5E9758505AD8FC207C1833D8E058A86
:1039600093D55600858311C669760506B18FC207C7
:10397000C183BD8D858913D66600858391C5E975A0
:103980008505AD8FC207C1833D8E058A9D828583E3
:1039900011C669760506B18FC207C18313F61700F9
:1039A00085836307D600E9768506B58FC207C18394
:1039B0002183B3C6E700858A1377F70F13561700E4
:1039C000858391C6E9768506B58FC207C1833D8E92
:1039D000058A93562700858311C669760506B18F3F
:1039E000C207C183BD8E858A13563700858391C671
:1039F000E9768506B58FC207C1833D8E058A935649
:103A00004700858311C669760506B18FC207C18359
:103A1000BD8E858A13565700858391C6E976850643
:103A2000B58FC207C1833D8E058A93566700858393
:103A300011C669760506B18FC207C183BD8E858A1E
:103A40001D83858391C6E9768506B58FC207C1833C
:103A500093F6170085836387E60069770507B98FBA
:103A6000C207C1834185B3C5A7001377F50F93162D
:103A700005018589C1821356170013D5170091C51A
:103A8000E97785073D8D42054181298E058A935747
:103A90002700058111C669760506318D42054181F1
:103AA000A98F858B13563700058191C7E977850764
:103AB0003D8D42054181298E058A93574700058136
:103AC00011C669760506318D42054181A98F858B26
:103AD00013565700058191C7E97785073D8D42054B
:103AE0004181298E058A93576700058111C6697641
:103AF0000506318D42054181A98F858B1D83058186
:103B000091C7E97785073D8D42054181937715007F
:103B100005816387E700E97785073D8D420541818F
:103B200093D7860033C7A700058B93F7F70F93D67B
:103B30001700058111C769770507398D4205418155
:103B4000A98E858A13D72700058191C6E976850657
:103B5000358D42054181298F058B93D6370005812C
:103B600011C769770507398D42054181A98E858A7C
:103B700013D74700058191C6E9768506358D420544
:103B80004181298F058B93D65700058111C769772D
:103B90000507398D42054181A98E858A13D76700B3
:103BA000058191C6E9768506358D42054181298FCB
:103BB000058B9D83058111C769770507398D4205FE
:103BC00041811377150005816307F700E9778507C1
:103BD0003D8D420541818280000000000000000010
:103BE00000000000000000000000000000000000D5
:103BF00033C6A5001377F50F93170501058AC18316
:103C00009356170013D5150011C6E97585052D8D3E
:103C100042054181A98E13F61600058193562700AF
:103C200011C6E97585052D8D42054181A98E858ACC
:103C300013563700058191C6E9768506358D420514
:103C40004181298E058A93564700058111C6697600
:103C50000506318D42054181A98E858A135657008C
:103C6000058191C6E9768506358D42054181298E0B
:103C7000058A93566700058111C669760506318D60
:103C800042054181A98E858A1D83058191C6E97609
:103C90008506358D42054181937615000581638740
:103CA000E60069770507398D42054181A18333C755
:103CB000A700058B93F7F70F93D61700058111C75F
:103CC00069770507398D42054181A98E858A13D709
:103CD0002700058191C6E9768506358D420541812B
:103CE000298F058B93D63700058111C769770507A2
:103CF000398D42054181A98E858A13D747000581F8
:103D000091C6E9768506358D42054181298F058B5F
:103D100093D65700058111C769770507398D42058C
:103D20004181A98E858A13D76700058191C6E976FE
:103D30008506358D42054181298F058B9D8305813F
:103D400011C769770507398D420541811377150041
:103D500005816307F700E97785073D8D42054181BD
:103D60008280000000000000000000000000000051
:103D700001458280000000000000000000000000FB
:103D80000000000000000000000000000000000033
:103D9000411106C67D28B240B727008023AAA7FCA0
:103DA00041018280000000000000000000000000CF
:103DB000411106C67928B240B727008023ACA7FC82
:103DC00041018280000000000000000000000000AF
:103DD000B727008003A587FDB727008083A747FD8D
:103DE0001D8D828000000000000000000000000027
:103DF00000000000000000000000000000000000C3
:103E0000B7470F00938707243345F50282800000EF
:103E100000000000000000000000000000000000A2
:103E200085472300F50082800000000000000000AC
:103E30000000000000000000000000000000000082
:103E40002300050082800000000000000000000048
:103E500000009387C180884301118A8506CE152A08
:103E6000FD576309F500924702453E95A2473E95EE
:103E7000B2473E95F2400561828039713EDA2ED21A
:103E800032D436D63AD842DC46DE9387C18022CC83
:103E9000804326CA06CEAA8409C41C4C99E3228515
:103EA00011230C4454102686228536C6EF00F015E7
:103EB000F2406244D24421618280011126CA4AC87C
:103EC00006CE22CC4EC652C4AA842E8901C51C4DF2
:103ED00091E3C9299C4C804499E32685E12193878D
:103EE0004111631CF402C0408357C400A18BB1C3CD
:103EF0001C48A1C3FD59294A1C4483450900FD17EC
:103F0000B1E51CC463DA07062286A9452685692027
:103F1000FD576304F502294515A0938741136314E7
:103F2000F4008044D1B79387410FE31FF4FAC044F3
:103F300065BFA2852685192A55DD7D55F24062446C
:103F4000D2444249B249224A056182801CC4050913
:103F500063D70700184C63CBE700638945011C4019
:103F60001387170018C02380B70079B722862685EB
:103F70002520E31335F9D1B71C401387170018C06B
:103F800029472380E70041BF9387C180AA858843E2
:103F90002DB72E856F102018011122CC26CA4AC8D1
:103FA00006CE4EC6AA842E89328401C51C4D91E3EB
:103FB000D52E938741116319F406C0401C4C1CC4D4
:103FC0008357C400A18BADCF1C48BDCB1C48084013
:103FD0009379F90F1379F90F1D8D5C486346F5004D
:103FE000A28526854D2C2DE11C440505FD171CC41A
:103FF0001C401387170018C0238037015C48638971
:10400000A7008357C400858B81CBA9476316F900AD
:10401000A285268549240DE9F24062444A85D244AE
:104020004249B24905618280938741136314F400C9
:10403000804469B79387410FE312F4F8C044BDBFD1
:10404000A2852685212059D17D59F9B74111938741
:10405000C18026C2844322C44AC006C62A892E844F
:1040600089C49C4C99E32685352E93874111631CA6
:10407000F402C0400317C40093170701C18393F6ED
:104080008700B5EA93F607019DEAA5472320F900CA
:10409000136707042316E4007D55B240224492447E
:1040A000024941018280938741136314F4008044E4
:1040B000D1B79387410FE31FF4FAC04465BF918BDA
:1040C0008DC74C5889C9930744046384F5004A8519
:1040D0009123232A04028357C4002322040093F768
:1040E000B7FD2316F4001C481CC08357C40093E797
:1040F00087002316F4001C4881EF8357C400130780
:10410000002093F707286385E700A2854A85A9293F
:104110008357C40013F7170005C75C482324040025
:10412000B307F0401CCC1C480145A5FB8317C40015
:1041300013F707083DD393E707042316F400A9BF3C
:10414000898B014791E3584818C4F1BF83D7C50054
:10415000011122CC26CA06CE4AC84EC613F78700E4
:10416000AA842E8465E7D8416347E000B8416344E0
:10417000E0000145C1A058546DDF03A904009396E7
:10418000370123A0040063DE060668488357C40095
:10419000918B99C75C401D8D5C5899C33C401D8D27
:1041A0005C540C502A86814626858297FD5703571A
:1041B000C400631DF5009440F54763E4D708B707D2
:1041C00040208507B3D7D700858BA5CF1C48232275
:1041D00004001CC09317370163D80700FD57631410
:1041E000F5009C4091E368C84C5823A02401D1D12C
:1041F000930744046384F50026852929232A0402B1
:104200008DBF0C508546014626850297FD57E31F5A
:10421000F5F69C40A5DF75476385E7005947639530
:10422000E70023A02401B1B78357C40093E7070434
:104230002316F400F2406244D2444249B249056177
:104240008280136707042316E400EDB783A90501F4
:10425000E38109F203A905008D8B23A03501330901
:104260003941014791E3D84918C4E35420F11C5463
:104270000C50CA864E8626858297634AA0008357D3
:10428000C4007D5593E707042316F40065B7AA9987
:104290003309A940D9BF9C49A9CB011122CC06CE34
:1042A0002A8411C51C4D81E72EC6ED28B24593879F
:1042B0004111639BF5004C408397C50095C322854F
:1042C0006244F240056159B5938741136394F50048
:1042D0000C44DDB79387410FE390F5FE4C44E9BFF2
:1042E000F2406244014505618280014582804111AE
:1042F00022C406C62A842316B5002317C50023202E
:104300000500232205002324050023220506232877
:104310000500232A0500232C0500214681451305AD
:10432000C505CD24970700009387477A5CD097078F
:1043300000009387A77C1CD4971700009387E78021
:104340005CD4971700009387A78300D01CD8B24095
:1043500022444101828097050000938505F499A2CB
:10436000411126C2130680069384F5FFB384C4026C
:104370004AC02E8922C406C69385440791262A8402
:1043800019C92320050023222501310508C41386FD
:1043900084068145852C2285B240224492440249FC
:1043A000410182801C4DADE3411106C622C497072E
:1043B0000000938787FA1CD5938701819C432324AF
:1043C000050423260504232805046314F500854706
:1043D0001CCD2A841D2848C02285052808C42285B2
:1043E0002D2048C4484001469145113708440546F0
:1043F000A545F53D48440946C945D53D85471CCCF2
:10440000B240224441018280828041119387018120
:1044100026C284434AC006C69C4C22C42A8999E31A
:1044200026854937938484048044DC40FD1763D695
:1044300007009C40B1CF8440C5BF0317C40031E7DB
:10444000C1778507232204062320040023220400C9
:10445000232404005CC423280400232A0400232C02
:104460000400214681451305C405692A232A040254
:10447000232C040223240404232604042285B240AE
:10448000224492440249410182801304840679BF88
:1044900091454A85F13588C02A8451FDB1472320D2
:1044A000F900E9BF797122D44AD052CC56CA5AC811
:1044B0005EC606D626D24ECE2A8AAE8A130485045C
:1044C0000149054BFD5B09ECB25022544A859254D8
:1044D0000259F249624AD24A424BB24B456182804C
:1044E000044483294400FD1963D409000040E1BF5E
:1044F00083D7C400637BFB008397E4006387770165
:10450000A6855285829A3369A90093848406E1BF07
:104510001971A6DAAE848395E500A2DC86DE3284CA
:1045200063DC050083D7C40023A0060093F70708C7
:104530009DE39307004015A0300836C66D25B246AE
:10454000E34205FE7247BD67F98F7977BA9793B753
:1045500017009CC2F9BF930700041CC0F6506654B4
:10456000D65401450961828083D7C500011122CC50
:1045700006CE26CA4AC8898B2E8489CF9307740435
:104580001CC01CC885475CC8F2406244D244424902
:104590000561828074003000AA849D3FA2452A896B
:1045A0002685392A01ED8317C40013F7072069FF18
:1045B000F19B93E727002316F400C9B79707000083
:1045C0009387A7D99CD48357C40008C008C893E731
:1045D00007082316F400A2475CC8B24789CF8315A9
:1045E000E4002685152D01C98357C400F19B93E78C
:1045F00017002316F4008357C4003369F90023160B
:10460000240159B72A8311C62300B3007D16050380
:1046100065FE8280CDC583A7C5FF411122C406C6B1
:1046200026C21384C5FF63D307003E94AA84A52540
:1046300097E7BF5F9387C79A9C4389EF23220400C3
:1046400097E7BF5F23AE87982244B2402685924405
:10465000410199A5637EF40014403307D4006396AA
:10466000E7009843DC43369718C05CC0D1BFBA87D7
:10467000D84319C3E37DE4FE94433386D700631F18
:1046800086001040B29694C33386D700E31EC7FA63
:1046900010435843B29694C3D8C37DB76375C40022
:1046A000B1479CC055B71040B306C4006316D7008D
:1046B00014435843B29614C058C0C0C371B7828027
:1046C000011126CA93843500F19806CE22CC4AC83F
:1046D0004EC6A104B14763F7F404B14463E6B404E1
:1046E0002A89552B97E7BF5F9387878F98433A8432
:1046F00031E497E7BF5F9387E78E9C4381EB814569
:104700004A85592E97E7BF5F23AEA78CA6854A85B9
:104710006126FD5963193507B1472320F9004A8501
:10472000A52B29A0E3DC04FAB1471CC10145F240E6
:104730006244D2444249B249056182801C40858F5F
:1047400063C00704AD4663F6F6001CC03E9404C087
:1047500001A85C406314870217E7BF5F2322F78834
:104760004A851D2B1305B400930744006199330754
:10477000F54055DF3A94898F1CC055BF5CC3CDB757
:1047800022874040B5B7130435007198E30185FCDA
:10479000B305A4404A850926E31B35FBB5BF1C467B
:1047A000FD171CC663DA0700184E63C5E700A9476A
:1047B0006394F5006FF04FFE1C422E85138717009F
:1047C00018C22380B7008280011122CC26CA4AC8B1
:1047D0004EC652C406CE2A89AE893284B304D600AE
:1047E0007D5A63149400014509A8834504004E8650
:1047F0004A8575370504E31645FFF2406244D2440A
:104800004249B249224A05618280357122CD26CBC8
:104810004AC94EC706CF52C556C35AC1DEDEE2DCD6
:10482000E6DAAA89AE843289368409C51C4D99E33B
:10483000EFF05FB793874111639BF40C83A44900A9
:1048400083D7C400A18BF5C39C48E5C3930700023E
:10485000A304F1029307000302D22305F10222C64A
:10486000930B500297DABF5F938A0AB6054C294B27
:104870004A848347040099C3639C770DB30C244199
:10488000638D0C00E6864A86A6854E85353FFD572A
:104890006302F51E9256E69636D283470400638B78
:1048A000071CFD571309140002C802CE3ECA02CCF1
:1048B000A309010482D483450900154656857D2E3F
:1048C00013041900C24759E513F7070109C7130775
:1048D0000002A309E10413F7870009C71307B00218
:1048E000A309E104834609001307A002638CE606CE
:1048F000F2474A8481462546034704009305140085
:10490000130707FD6375E60AB5C63ECEA5A09387DB
:1049100041136395F40083A489001DB79387410F69
:10492000E390F4F283A4C90021BFA6854E85EFF081
:10493000EFF109DD7D55FA406A44DA444A49BA4943
:104940002A4A9A4A0A4BF65B665CD65C0D61828005
:10495000050405B7330555413315AC00C98F3EC872
:10496000228991BF324793064700184336C66349F0
:1049700007023ACE034704009307E002631FF704DF
:10498000034714009307A002631BF702B247090410
:10499000138747009C433AC663C107023ECA35A845
:1049A0003307E04093E727003ACE3EC8E1B7B3872C
:1049B000670385462E84BA9781B7FD57C5B70504AE
:1049C00002CA814681472546034704009305140027
:1049D000130707FD6376E606F1F2834504000D46F2
:1049E00017D5BF5F1305C59E512C11CD97D7BF5F5B
:1049F0009387079E1D8D93070004B397A700424538
:104A000005045D8D2AC883450400194617D5BF5F8C
:104A10001305459C130914002304B10285243DC1EC
:104A200097B7BFDF9387075E95E74247B247137793
:104A3000071009CF91073EC69257D2973ED20DBDBF
:104A4000B387670385462E84BA97BDBF9D07E19B58
:104A5000A107D5B7780097060000938626D726864B
:104A60000C084E8597000000E7000000FD572A8AD9
:104A7000E314F5FC83D7C40093F70704E39C07EA2B
:104A8000125555BD780097060000938626D42686D9
:104A90000C084E85092ED9BF411122C42A842E85C7
:104AA00097D7BF5F23AE075C06C62D25FD57631958
:104AB000F50097D7BF5F9387A75C9C4391C31CC049
:104AC000B240224441018280411122C42E84839548
:104AD000E50006C6952B634905007C48AA977CC86B
:104AE000B2402244410182808357C4007D777D1704
:104AF000F98F2316F400EDB783D7C500011122CC3E
:104B000026CA4AC84EC606CE93F70710AA842E843A
:104B10003289B68991C78395E500894601462D22E1
:104B20008357C4007D777D17F98F2316F400831512
:104B3000E4006244F240CE864A86B2494249268564
:104B4000D24405613DA8411122C42E848395E5001D
:104B500006C6DD28FD570357C400631BF500FD772B
:104B6000FD17F98F2316F400B240224441018280E0
:104B70008567D98F2316F40068C8FDB78395E500D3
:104B80001DA8411122C42A842E85B285368697D766
:104B9000BF5F23A7074E06C62925FD576319F500F9
:104BA00097D7BF5F9387C74D9C4391C31CC0B2404A
:104BB000224441018280411122C42A842E8597D744
:104BC000BF5F23AF074A06C65529FD576319F50095
:104BD00097D7BF5F9387C74A9C4391C31CC0B2401D
:104BE000224441018280411122C42A842E85B2854B
:104BF00097D7BF5F23A6074806C65929FD576319F3
:104C0000F50097D7BF5F9387A7479C4391C31CC00C
:104C1000B240224441018280411122C42A842E855F
:104C200097D7BF5F23AE074406C6AD29FD5763196A
:104C3000F50097D7BF5F9387A7449C4391C31CC0DF
:104C4000B240224441018280411122C42A842E852F
:104C5000B285368697D7BF5F23A4074206C6B9211F
:104C6000FD576319F50097D7BF5F938767419C4352
:104C700091C31CC0B24022444101828093F5F50FDC
:104C80002A966314C5000145828083470500E38DA1
:104C9000B7FE0505FDB782808280797156CA9C49AE
:104CA000BA8A984522D426D24ECE52CC06D64AD0C5
:104CB0005AC85EC6AA892E84B284368A63D3E700B6
:104CC000BA879CC00347340419C385079CC01C40A5
:104CD00093F7070281C79C4089079CC00329040001
:104CE00013796900631A0900130B9401FD5B5C449E
:104CF0009840998F634CF9041C408346340493F721
:104D00000702B336D000A5EB13063404D2854E85D6
:104D1000829AFD576303F5041C4011469840998B15
:104D2000544481446397C700B384E64063D30400CE
:104D300081441C4418486354F700998FBE9401497C
:104D400069047D5B63982405014509A885465A8658
:104D5000D2854E85829A631E75017D55B2502254CC
:104D600092540259F249624AD24A424BB24B4561CF
:104D700082800509ADBF3307D40013060003A301E9
:104D8000C7040347540493871600A2978906A3819A
:104D9000E7049DBF85462286D2854E85829AE30E22
:104DA00065FB050945B7797122D426D24AD04ECE8B
:104DB00006D652CC56CA5AC8B68983C6850193070F
:104DC000E0063289AA842E84138635046380F61E99
:104DD00063E2D706930730066382F60A63EDD700D5
:104DE000638A061E930780056386F616930A2404D9
:104DF0002301D40469A8930740066386F60093074D
:104E00009006E395F6FE1C40084393F607089305C9
:104E10004500C1C21C410CC363D807001307D00270
:104E2000B307F040A301E40497C6BF5F9386065B17
:104E3000294765A0930730076382F61A63EFD7000E
:104E40009307F006638FF60493070007E390F6FAE2
:104E50009C4193E707029CC109A89307500763820E
:104E6000F60493078007E393F6F893078007A302FD
:104E7000F40497C6BF5F9386A657DDA01C43938AB0
:104E80002504938647009C4314C32381F50485477A
:104E9000ADA293F607041C410CC3BDDEC207C18757
:104EA000A5BF0C401C4313F8050813854700630594
:104EB000080008C39C4339A093F5050408C3FDD935
:104EC00083D707001307F006638AE60C97C6BF5F17
:104ED0009386C6502947A30104044C400CC463C503
:104EE000050008406D9908C099E3B28A91CDB28A55
:104EF000B3F5E702FD1AB69583C505002380BA0015
:104F0000B3D5E70263F2E70AA147631EF7001C402E
:104F1000858B91CB58401C4863C7E700930700037B
:104F2000A38FFAFEFD1A3306564110C84E87CA8673
:104F30007000A285268595337D5A6314450D7D55F5
:104F4000B250225492540259F249624AD24A424B18
:104F500045618280A382D50497C6BF5F93860648C9
:104F60000C40084313F805081C41110563000802B2
:104F700008C313F7150001C793E505020CC04147AC
:104F8000B9FB0C4093F5F5FD0CC0B1B713F805045F
:104F900008C3E30008FEC207C183E1BF97C6BF5F35
:104FA0009386C643214705BFAE8799B794411C43FA
:104FB000CC4913F80608138547006306080008C3A8
:104FC0009C438CC301A808C393F606049C43F5DAFE
:104FD0002390B70023280400B28A89BF1C43D04124
:104FE00081459386470014C383AA0700568579310B
:104FF00001C53305554148C05C401CC8A3010404E9
:1050000035B714485686CA8526858299E30945F343
:105010001C40898B8DE7B2474844E353F5F23E8547
:1050200005B785465686CA8526858299E30965F1C6
:10503000050A5C443247998FE345FAFEE9BF014A0D
:10504000930A94017D5BF5B7411122C42A842E8511
:10505000B285368697D7BF5F23A4070206C68D2088
:10506000FD576319F50097D7BF5F938767019C438E
:1050700091C31CC0B240224441018280411106C646
:10508000A522B240930780051CC17D554101828055
:10509000411106C6912AB240930780FA1CC17D5582
:1050A000410182807D15133515008280411106C6AD
:1050B000252AB240930780051CC17D55410182809D
:1050C000411106C61522B240930780051CC17D55CB
:1050D000410182804111B73700803747008006C602
:1050E00022C493870708130707886384E70293871E
:1050F00041818043B306A40063FCE600AA852285B3
:1051000094C3EFA09FF92285B240224441018280DE
:1051100098C37D54CDBF797106D622D426D24AD009
:1051200052CE56CC5ACA5EC82A89EF00901A2C007B
:105130002A84EF00B0258A852285EF003023224A99
:10514000B24A024B924B5286D68623220900232470
:105150000900232609005A85DE8537440F001925EA
:1051600013040424B33785025286D686B38585029C
:1051700033058502BE95612CAA845286D6865A854F
:10518000DE85712433058502B2502254724AE24A08
:10519000524BC24B26952320A900925402594561D7
:1051A0008280411106C622C426C285476319F500D4
:1051B0002E84B384C500631E9400014531A02D20C8
:1051C000930780051CC17D55B240224492444101A1
:1051D0008280034504000504EF00501DE9BFAA8545
:1051E000814601460145D1A89387C18088438280CA
:1051F000411122C406C697070000938707152A8429
:1052000099C3814589229387018188431C5591C3A5
:1052100082972285EF20901F411197B7FFFF938758
:10522000670D22C417B4FFFF1304C40C1D8C26C2E3
:1052300006C60984BE8411E4B2402244924441016E
:1052400082807D1493172400A6979C438297E5B72C
:10525000411197B7FFFF9387E70822C417B4FFFFF8
:10526000130444081D8C26C24AC006C60984814422
:105270003E896396840297B7FFFF9387A70617B40A
:10528000FFFF130424061D8C098481443E89639F1B
:105290008400B240224492440249410182809397A3
:1052A0002400CA979C4385048297E1B79397240012
:1052B000CA979C4385048297D9BF97D7BF5F9387CE
:1052C000A7D29C432A8E8DE717D7BF5F130787D2DB
:1052D00097D7BF5F23AAE7D017B5BFDF130585D2E5
:1052E000BA8719C51C4117D5BF5F2329F5D8BA87DE
:1052F000D8437D487D556347E804630E0E0203A83A
:1053000087086301080493182700C29823A0C800E7
:105310000323081005463316E6003363C300232039
:10532000681023A0D80889466317DE00832648103A
:10533000558E2322C810930617000A07D4C3BA97C4
:105340008CC701458280797152CC56CA5AC85EC654
:1053500006D622D426D24AD04ECE62C42A8B2E8ABA
:1053600097DABF5F938A4AC8854B03A40A0011C825
:105370004440832984081389F4FF8A04A294635E5D
:105380000900B250225492540259F249624AD24A58
:10539000424BB24B224C45618280630E0A006395FA
:1053A00009007D19F114E1BF93172900CE9783A757
:1053B0000708E39847FF5840DC407D176318270330
:1053C00023222401F9DF032C44006388090083A60B
:1053D000091033972B01F98E89EE8297584083A7E5
:1053E0000A00E31487F9E30EF4FA41B723A204009C
:1053F000D1BF93162900CE968C4283A64910758F93
:1054000001E75A858297D9BF2E858297C1BFAE87A3
:10541000328836872A83639406209388411A63FE74
:10542000C50A41676374E60A1307F00F3337C700F4
:105430000E07B356E600B69883C608003697930663
:105440000002998E99CAB397D7003357E5003318F5
:10545000D600B365F7003313D5001355080133F7B1
:10546000A50213160801418293560301B3D5A50284
:105470004207D98EB307B6022E8763FCF600C296A8
:105480001387F5FF63E7060163F5F6001387E5FF71
:10549000C2969D8EB3F7A602420313530301B3D6FF
:1054A000A602C20733E36700B305D6023685637BE5
:1054B000B30042931385F6FF636603016374B30080
:1054C0001385E6FF4207498F81454DA8B7060001C5
:1054D0004147E360D6F66147A9BF01E6854633D868
:1054E000C602C166637ED8089306F00F63F3060117
:1054F0002147B356E800B69883C60800BA9613074A
:105500000002158F49E7B387074185451356080107
:105510009318080193D808019356030133F7C70283
:10552000B3D7C7024207D98E3385F8023E8763FCA2
:10553000A600C2961387F7FF63E7060163F5A6008E
:105540001387E7FFC296898EB3F7C602420313534F
:105550000301B3D6C602C20733E36700B388D8029B
:105560003685637B130142931385F6FF636603015F
:10557000637413011385E6FF4207498F3A858280E1
:10558000B70600014147E366D8F661479DB7331877
:10559000E800B3D5D7003313E500B356D500135553
:1055A0000801B397E70033F7A502B3E8F6009317B5
:1055B0000801C18313D60801B3D5A5024207518F54
:1055C000B386B7022E86637CD70042971386F5FF19
:1055D000636707016375D7001386E5FF4297B3063B
:1055E000D74033F7A602C20893D80801B3D6A60263
:1055F0004207B385D702B3671701368763FCB7004C
:10560000C2971387F6FF63E7070163F5B7001387B7
:10561000E6FFC2978D8F93150601D98DC5BD63E056
:10562000D514416763FCE6021308F00F3337D80046
:105630000E0733D8E6009385411AC29503C80500CA
:10564000930500023A98B385054185E10547E3E7F4
:10565000F6F23335C500134715000DB7B705000145
:105660004147E3E8B6FC6147E9B733570601B39613
:10567000B600D98E93DE060133D70701B378D7037E
:10568000B397B700335805013363F80093970601C9
:10569000C183135803013316B6003357D703C2082A
:1056A00033E80801338FE7023A8E637CE8013698CD
:1056B000130EF7FF6367D8006375E801130EE7FF69
:1056C00036983308E841B378D8033358D803C20872
:1056D000B38E070393170301C183B3E7F800428732
:1056E00063FCD701B6971307F8FF63E7D70063F5AC
:1056F000D7011307E8FFB697420EB387D741C16EB3
:105700003367EE001388FEFF3373070193580701D8
:10571000337806014182330E03033388080393561E
:105720000E013303C30242939A96B388C80263F30F
:105730000601F69813D60601B29863E01703E395C5
:1057400017D9C167FD17FD8EC206337EFE003315E3
:10575000B500F2968145E373D5E27D17B5B3814577
:10576000014729BDB2883687AA872E886396061C12
:105770009386411A63F8C50A4163637E6608130382
:10578000F00F6373C30021473353E6009A9603CEAC
:105790000600130300023A9E3303C341630C030067
:1057A000B3956500335EC501B31866003368BE006B
:1057B000B317650013D608013377C80213950801A3
:1057C000418193D607013358C8024207D98E330866
:1057D000050363F80601C69663E5160163F3060147
:1057E000C696B386064133F7C602C207C183B3D655
:1057F000C602B306D50213150701C98F63F8D70097
:10580000C69763E5170163F3D700C697958F33D525
:10581000670081458280370300014147E36666F6F1
:1058200061479DB701E60546B3581603416663F329
:10583000C8081306F00F63731601214733D6E8003A
:10584000B29603CE0600130300023A9E3303C3410F
:1058500063190306B385154113D708011395080191
:10586000418113D60701B3F6E502B3D5E502C206BE
:10587000D18EB305B50263F8B600C69663E516018E
:1058800063F3B600C696B385B640B3F6E502C20729
:10589000C183B3D5E502B305B50213950601C98FDF
:1058A00063F8B700C69763E5170163F3B700C697BF
:1058B0008D8FB1BF370600014147E3E1C8F861476A
:1058C000B5BFB398680033D7C501B3176500335E21
:1058D000C50113D50801B376A702B3956500336EF1
:1058E000BE0093950801C18113560E013357A702DC
:1058F000C206D18E3387E50263F8E600C69663E5FB
:10590000160163F3E600C6963386E640B376A60238
:10591000420E135E0E013356A602C2063386C5023E
:10592000B3E5C60163F8C500C69563E5150163F3E9
:10593000C500C695918D0DB7E3EED5EC416763F3D5
:10594000E604930EF00F33B7DE000E0733D3E60004
:105950009388411A9A9883CE0800130E0002BA9ECB
:10596000330EDE4163170E0263E4B6006369C500BF
:10597000B307C540958D3335F5003388A5403E8586
:10598000C28549BDB70800014147E3E116FD614703
:1059900075BF3357D601B396C601D98E13D8060109
:1059A00033D7D50133730703B395C501B357D50179
:1059B000CD8F93950601C18193D807013316C60197
:1059C0003315C501335707034203B3681301338FFF
:1059D000E5023A8363FCE801B6981303F7FF63E737
:1059E000D80063F5E8011303E7FFB698B388E841F0
:1059F00033FF0803B3D80803420F33881503939588
:105A00000701C181B365BF00C68763FC0501B69578
:105A10009387F8FF63E7D50063F505019387E8FFF7
:105A2000B6954203416F3363F3009307FFFFB378EA
:105A3000F300B38505411353030113580601F18F99
:105A40003387F802B307F302B38808033303030371
:105A5000BE981358070146986373F8007A939357DA
:105A600008013E93C167FD173378F80042087D8F27
:105A7000429763E66500639C6500637AE500330640
:105A8000C7403337C70036973303E34032873307C5
:105A9000E5403335E500B3856540898DB397D50181
:105AA0003357C70133E5E700B3D5C501A5B31C41A2
:105AB00003A3070002831C4103A3470002831C4188
:105AC00003A3C702028301E503A58181828001450A
:105AD0008280732540F18280B72700809387C7FEBC
:105AE000984315EF411122C426C23704402006C650
:105AF0000547B704402098C39384C42E9307042E0F
:105B00001304042E63EA9700B240224492444101F8
:105B100082801C4011048297E31D94FEF5B78280B9
:105B2000B7270080938787FE984315EF411122C461
:105B300026C23704402006C60547B704402098C354
