:0200000420409A
:100000009711C05F9381013E9702000093828201A5
:100010007390523093021000638402007350107C7E
:100020009702000093820212739052301701C0DFD2
:10003000130141FD631601001721C05F130181C246
:10004000732540F1814213030040137101FF638562
:10005000A2001A918502D5BF970000009380200866
:10006000638300008290732540F181450146CD20D5
:100070009700C0DF938000F96383000082909702AD
:1000800000009382C2007390523003230000F5BF3A
:10009000000000008280A14673B306309302400046
:1000A00063C555001376350011CA23000500050508
:1000B000FD15E347B0FE7310033082802320050056
:1000C0001105F115E34EB0FC73100330828023203C
:1000D00003001103E34D73FE828006849702C0DFA4
:1000E000938242F2638C02049702C0DF938282F112
:1000F000F32740F1A14673B006300A839703C0DFAF
:10010000938343308A9363037300D1376398570214
:100110001703C05F130303EF9713C05F938303B20A
:10012000630373006D371703C05F1303A3ED9703D9
:10013000C05F938323ED63037300513FA2808280ED
:10014000F322203473231034F3233034D5BF82805C
:1001500006849711C05F9381E12893020000631128
:10016000550E97B200009382628B1703C05F130392
:1001700063E99713C05F938363AC638C6200635A37
:10018000730003A5020091022320A3001103E34A98
:1001900073FE971200009382E2581703C05F1303A7
:1001A00063E69703C05F9383E3E5638C6200635A61
:1001B000730003A5020091022320A3001103E34A68
:1001C00073FE0F100000971200009382A2551703D0
:1001D000C05F130323E39703C05F9383A3E2638CA1
:1001E0006200635A730003A5020091022320A3005A
:1001F0001103E34A73FE0F1000001713C05F1303CF
:10020000E3A39383C14763577300232003001103C3
:10021000E34D73FE1712C05F130242A211C2029691
:10022000178500001305454BEF80A046EF80004E78
:100230001785000013054572EF80A045EF806071BF
:100240003937FD5673B0463073B04634F32710305B
:10025000372704007D8F09C773B0363073B026305E
:10026000370704007D8F19C373B0061837070100E4
:1002700013078702F98F89CBF32700300967D98FDD
:100280007390073073503000F32710303707200089
:10029000F98F99C7F327003093E707207390073051
:1002A0000545971500009385259B1716000013063A
:1002B000E69A3120EF80403FA28082808280411107
:1002C00006C2F32240F1130300006385620073004D
:0E02D0005010F5BFEF10C04A924041018280ED
:0C02E000EC0240200A034020FE024020F7
:1002EC00F1653715008093850520130505BC6F80DB
:1002FC008066370500801305C51F6F90304BB725FE
:10030C00F40037050080938505401305C51F6FA0C9
:02031C00E055AA
:10032000ABAA2A3E295C8FBD3208AC3D0000C84212
:100330005B475D3A25730A0D000000005B755D3A6E
:1003400025730A0D000000005B475D3A25730D0A16
:10035000000000005B755D3A25730D0A0000000087
:100360000000AA423D3D3D3D2053454350554D5070
:1003700020524953432D5620494E4954203D3D3D7E
:100380003D0D000041434B3A25730A003030000018
:100390005B2A5D20436F6E66696775726174696F71
:1003A0006E204D6F646520526571756573740D0024
:1003B0005B2A5D20537769746368696E6720746F88
:1003C000204175746F204D4F44450D005B2A5D2020
:1003D000537769746368696E6720746F204D616E2E
:1003E00075616C204D4F44450D0000003031000018
:1003F0005B2A5D2053657474696E67204D616E756C
:10040000616C20426F6C757320496E6A6563746914
:100410006F6E2056616C75650D0000003130000074
:100420005B2A5D20476C75636F7365204D65617352
:100430007572650D000000005B215D204552524F32
:100440005220554E4B4E4F574E204D4F44450D00B8
:1004500000000000ABAA2A3EABAAAA3E0000003F63
:10046000ABAA2A3F5555553F0000803F5555953F53
:10047000ABAAAA3F0000C03F5555D53FABAAEA3F03
:1004800000000040ABAA0A4055551540000020402E
:10049000ABAA2A405555354000004040ABAA4A401F
:1004A0005555554000006040ABAA6A40555575400F
:1004B0000000804055558540ABAA8A40000090401E
:1004C00055559540ABAA9A400000A0405555A5400F
:1004D000ABAAAA400000B0405555B540ABAABA40FF
:1004E0000000C0405555C540ABAACA400000D040EE
:1004F0005555D540ABAADA400000E0405555E540DF
:10050000ABAAEA400000F0405555F540ABAAFA40CE
:1005100000000041ABAA02415555054100000841C9
:10052000ABAA0A4155550D4100001041ABAA12413A
:100530005555154100001841ABAA1A4155551D41AA
:1005400000002041ABAA2241555525410000284119
:10055000ABAA2A4155552D4100003041ABAA32418A
:100560005555354100003841ABAA3A4155553D41FA
:1005700000004041ABAA4241555545410000484169
:10058000ABAA4A4155554D4100005041ABAA5241DA
:100590005555554100005841ABAA5A4155555D414A
:1005A00000006041ABAA62415555654100006841B9
:1005B000ABAA6A4155556D4100007041ABAA72412A
:1005C0005555754100007841ABAA7A4155557D419A
:1005D0000000804155558141ABAA82410000844111
:1005E00055558541ABAA8641000088415555894142
:1005F000ABAA8A4100008C4155558D41ABAA8E4172
:100600000000904155559141ABAA924100009441A0
:1006100055559541ABAA96410000984155559941D1
:10062000ABAA9A4100009C4155559D41ABAA9E4101
:100630000000A0415555A141ABAAA2410000A44130
:100640005555A541ABAAA6410000A8415555A94161
:10065000ABAAAA410000AC415555AD41ABAAAE4191
:100660000000B0415555B141ABAAB2410000B441C0
:100670005555B541ABAAB6410000B8415555B941F1
:10068000ABAABA410000BC415555BD41ABAABE4121
:100690000000C041401800002C1800005E18000047
:1006A0006418000040180000000000000000E03F57
:1006B000000000000000F03F0000000000000040CB
:1006C0000000C0FFFFFFDF419535A094FFFFDF3F33
:1006D00035E5AF350000E03F9535A094FFFFCF3FF3
:1006E0006E660000696E697479000000616E00003A
:1006F00035000000CEFBFFFFCB030000010000002F
:100700000000000034000000CEFBFFFFCB03000020
:100710000100000000000000BC89D897B2D29C3CC8
:1007200033A7A8D523F649393DA7F444FD0FA532D8
:100730009D978CCF08BA5B25436FAC64280668117F
:100740002D431CEBE2361A3F000000000000F0BF12
:100750000000000000000000000000000000000099
:100760000000000000000000000000000000000089
:100770000000000000000000000000000000000079
:100780000000000000000000000000000000000069
:100790000000000000000000000000000000000059
:1007A0000000000000000000000000000000000049
:1007B000BC07402050034020E80B00802E000000C2
:1007C00043000000504F5349580000000000000053
:1007D0000080E03779C34143176E05B5B5B893463D
:1007E000F5F93FE9034F384D321D30F94877825A09
:1007F0003CBF737FDD4F1575000000000000F03F27
:1008000000000000000024400000000000005940EB
:100810000000000000408F40000000000088C3403E
:1008200000000000006AF8400000000080842E41B3
:1008300000000000D01263410000000084D79741FF
:100840000000000065CDCD41000000205FA0024205
:10085000000000E876483742000000A2941A6D427A
:10086000000040E59C30A2420000901EC4BCD6426D
:1008700000003426F56B0C430080E03779C3414318
:1008800000A0D8855734764300C84E676DC1AB438E
:10089000003D9160E458E143408CB5781DAF1544AC
:1008A00050EFE2D6E41A4B4492D54D06CFF0804487
:1008B000F64AE1C7022DB544B49DD9794378EA449C
:1008C00000000000000024400500000019000000A6
:1008D0007D000000232D302B20000000686C4C00B0
:1008E0006566674546470000000000000000F87F8D
:1008F00000202020202020202020282828282820F0
:1009000020202020202020202020202020202020E7
:10091000208810101010101010101010101010104F
:10092000100404040404040404040410101010103F
:100930001010414141414141010101010101010109
:10094000010101010101010101010101101010105B
:1009500010104242424242420202020202020202DB
:10096000020202020202020202020202101010102F
:100970002000000000000000000000000000000057
:100980000000000000000000000000000000000067
:100990000000000000000000000000000000000057
:1009A0000000000000000000000000000000000047
:1009B0000000000000000000000000000000000037
:1009C0000000000000000000000000000000000027
:1009D0000000000000000000000000000000000017
:1009E0000000000000000000000000000000000007
:1009F0000000000000000000000000000000F83FC0
:100A000061436F63A787D23FB3C8608B288AC63F14
:100A1000FB799F501344D33F0000000000001C40AE
:100A20000000000000001440496E66696E69747928
:100A3000000000004E614E003000000030313233C3
:100A400034353637383941424344454600000000CA
:100A50003031323334353637383961626364656634
:100A600000000000E25D0000325D0000385D000023
:100A7000325D0000D45D0000325D0000385D000092
:100A8000E25D0000E25D0000D45D0000385D000022
:100A9000185D0000185D0000185D00003C5D00005E
:100AA000E6620000E6620000FE620000E062000014
:100AB000E06200008C630000FE620000E062000063
:100AC0008C630000E0620000FE620000DE62000055
:100AD000DE620000DE6200008C630000C671000070
:100AE000F071000018720000F071000064720000E4
:100AF000F071000018720000C6710000C67100009D
:100B00006472000018720000D8710000D8710000F3
:100B1000D87100001C720000B4740000B4740000AE
:100B2000CC740000B0740000B074000012750000B6
:100B3000CC740000B074000012750000B0740000A6
:100B4000CC740000AE740000AE740000AE740000FF
:100B500012750000000102020303030304040404ED
:100B60000404040405050505050505050505050539
:100B70000505050506060606060606060606060619
:100B80000606060606060606060606060606060605
:100B900006060606070707070707070707070707E9
:100BA00007070707070707070707070707070707D5
:100BB00007070707070707070707070707070707C5
:100BC00007070707070707070707070707070707B5
:100BD0000707070708080808080808080808080899
:100BE0000808080808080808080808080808080885
:100BF0000808080808080808080808080808080875
:100C00000808080808080808080808080808080864
:100C10000808080808080808080808080808080854
:100C20000808080808080808080808080808080844
:100C30000808080808080808080808080808080834
:100C40000808080808080808080808080808080824
:100C5000080808085C0C4020000000006C6962670E
:100C60006C6F737300000000E4894020BE8940204F
:100C7000A68940200000000000000000DC8B40201E
:100C8000FC8B4020CE8A4020A2894020828A4020CE
:100C9000368A402000000000000000000000000034
:100CA0000000000000000000000000000000000044
:100CB00000000000568B40207A8940200000000090
:100CC0000000000000000000000000007E8D4020B9
:100CD000908D4020B28D4020D48E4020E48D402065
:100CE000EA8D4020BE8F4020EE8D4020F28D4020C6
:100CF000228E4020528E4020828E4020928F4020B3
:100D0000988E4020AA8E4020B08E4020B88E402081
:100D1000348F4020C48F4020FC9840200000000009
:100D20000000000000000000000000003699402094
:100D3000000000007E9A4020849A402000000000BD
:100D400000000000000000000000000000000000A3
:100D50000000000000000000000000007A8D40202C
:100D60000000000000000000000000000000000083
:100D700000000000149D4020000000000000000062
:100D80000000000000000000000000000000000063
:100D9000D89A402000000000EA9D40202C9E402070
:100DA0000000000000000000AC9C4020229C40207D
:100DB000B09A40208A9A4020000000000000000005
:100DC00000000000000000006E9E4020D09E4020E9
:100DD000409C4020C69C4020B89F402008A0402056
:100DE000CAA040200100000020000000001BB70046
:100DF00000366E01010000001F000000030000002B
:100E00003F000000010000002000000000366E01DD
:100E1000006CDC02030000001F0000000200000064
:100E20003F0000000100000010000000808D5B000A
:100E3000001BB700000000001F00000003000000BE
:100E40003F0000000100000010000000001BB70080
:100E500000366E01010000001F00000002000000CB
:100E60003F000000010000001000000000366E018D
:100E7000006CDC02030000001F0000000200000004
:100E80001F0000000100000008000000808D5B00D2
:100E9000001BB700000000001F000000030000005E
:100EA0001F0000000100000008000000001BB70048
:100EB00000366E01010000001F000000020000006B
:100EC0001F000000010000000800000000366E0155
:100ED000006CDC02030000001F00000002000000A4
:100EE0000F0000000100000004000000808D5B0086
:100EF000001BB700000000001F00000003000000FE
:100F00000F0000000100000004000000001BB700FB
:100F100000366E01010000001F000000020000000A
:100F20000F000000010000000400000000366E0108
:100F3000006CDC02030000001F0000000200000043
:100F4000070000000100000002000000808D5B002F
:100F5000001BB700000000001F000000020000009E
:100F60000F0000000100000002000000001BB7009D
:100F700000366E01010000001F00000001000000AB
:100F80000F000000010000000200000000366E01AA
:100F9000006CDC02030000001F00000001000000E4
:100FA000070000000200000001000000808D5B00CF
:100FB000001BB700000000001F000000010000003F
:100FC000070000000200000001000000001BB70045
:100FD00000366E01010000001F000000010000004B
:100FE00003000000020000000100000000366E0156
:100FF000006CDC02030000001F0000000300000082
:10100000FFFFFFFF0400000001000000808D5B0077
:10101000001BB700000000001F00000003000000DC
:10102000000000000400000001000000001BB700E9
:1010300000366E01010000001F00000003000000E8
:10104000FFFFFFFF040000000100000000366E01FA
:10105000006CDC02030000001F0000000200000022
:10106000FFFFFFFF0600000001000000808D5B0015
:10107000AAC2A2000000000023000000010000003E
:10108000020000000600000001000000AAC2A20049
:10109000001BB70000000000170000000300000064
:1010A000FFFFFFFF0600000001000000001BB7006B
:1010B0000024F400010000002F00000003000000E5
:1010C000FFFFFFFF06000000010000000024F40005
:1010D00080A81201010000001700000002000000BB
:1010E000FFFFFFFF060000000100000080A81201C2
:1010F00055854501020000002300000002000000A9
:10110000FFFFFFFF0800000001000000808D5B0072
:10111000001BB700000000001F00000003000000DB
:10112000FFFFFFFF0800000001000000001BB700E8
:1011300000366E01010000001F00000002000000E8
:10114000FFFFFFFF080000000100000000366E01F5
:10115000006CDC02030000001F0000000100000022
:10116000FFFFFFFF0A00000001000000808D5B0010
:10117000007C920000000000270000000300000037
:10118000FFFFFFFF0A00000001000000007C92004A
:10119000001BB70000000000130000000200000068
:1011A000FFFFFFFF0A00000001000000001BB70066
:1011B00000F82401010000002700000002000000E8
:1011C000FFFFFFFF0A0000000100000000F82401FB
:1011D00000366E0101000000130000000100000055
:1011E000FFFFFFFF0A0000000100000000366E0153
:1011F00000F0490203000000270000000100000089
:10120000FFFFFFFF0C00000001000000808D5B006D
:1012100000127A00000000002F0000000300000010
:10122000FFFFFFFF0C0000000100000000127A0029
:10123000001BB700000000001700000002000000C3
:10124000FFFFFFFF0C00000001000000001BB700C3
:101250000024F400010000002F0000000200000044
:10126000FFFFFFFF0C000000010000000024F4005D
:1012700000366E01010000001700000001000000B0
:10128000FFFFFFFF0C0000000100000000366E01B0
:1012900080C3C901030000002F000000010000000E
:1012A000FFFFFFFF0C0000000100000080C3C90128
:1012B0000048E801030000002F00000001000000CA
:1012C000FFFFFFFF0E00000001000000808D5B00AB
:1012D000B6A1680000000000370000000300000015
:1012E000FFFFFFFF0E00000001000000B7A1680033
:1012F000001BB700000000001B00000002000000FF
:10130000FFFFFFFF0E00000001000000001BB70000
:101310006D43D10001000000370000000200000012
:10132000FFFFFFFF0E000000010000006E43D10030
:1013300000366E01010000001B00000001000000EB
:10134000FFFFFFFF0E0000000100000000366E01ED
:10135000DB86A2010300000037000000010000004E
:10136000FFFFFFFF1000000001000000808D5B0008
:10137000001BB700000000001F000000020000007A
:10138000FFFFFFFF1000000001000000001BB7007E
:1013900000366E01010000001F0000000100000087
:1013A000FFFFFFFF1200000001000000808D5B00C6
:1013B000AAC2A200000000002300000002000000FA
:1013C000FFFFFFFF1200000001000000ABC2A200FF
:1013D000001BB70000000000110000000100000029
:1013E000FFFFFFFF1200000001000000001BB7001C
:1013F00055854501010000002300000001000000A8
:10140000FFFFFFFF1400000001000000808D5B0063
:10141000007C920000000000270000000200000095
:10142000FFFFFFFF1400000001000000007C92009D
:10143000001BB700000000001300000001000000C6
:10144000FFFFFFFF1400000001000000001BB700B9
:1014500000F8240101000000270000000100000046
:10146000FFFFFFFF1600000001000000808D5B0001
:10147000E82A8500000000002B00000002000000A8
:10148000FFFFFFFF1600000001000000E92A8500B1
:10149000001BB70000000000150000000100000064
:1014A000FFFFFFFF1600000001000000001BB70057
:1014B000D1550A01010000002B00000001000000CE
:1014C000FFFFFFFF1800000001000000808D5B009F
:1014D00000127A00000000002F000000020000004F
:1014E000FFFFFFFF180000000100000000127A005B
:1014F000001BB70000000000170000000100000002
:10150000FFFFFFFF1800000001000000001BB700F4
:101510000024F400010000002F0000000100000082
:10152000FFFFFFFF1A00000001000000808D5B003C
:1015300027AE700000000000330000000200000031
:10154000FFFFFFFF1A0000000100000028AE70003E
:10155000001BB7000000000019000000010000009F
:10156000FFFFFFFF1A00000001000000001BB70092
:101570006658E10001000000330000000100000097
:10158000FFFFFFFF1C00000001000000808D5B00DA
:10159000B6A1680000000000370000000200000053
:1015A000FFFFFFFF1C00000001000000B7A1680062
:1015B000001BB700000000001B000000010000003D
:1015C000FFFFFFFF1C00000001000000001BB70030
:1015D0006D43D10001000000370000000100000051
:1015E000FFFFFFFF1E00000001000000808D5B0078
:1015F00000A86100000000003B00000002000000A5
:10160000FFFFFFFF1E0000000100000000A86100B6
:10161000001BB700000000001D00000001000000DA
:10162000FFFFFFFF1E00000001000000001BB700CD
:101630000050C300010000003B000000010000005A
:10164000FFFFFFFF2000000001000000808D5B0015
:10165000001BB700000000001F0000000100000098
:10166000FFFFFFFFE0A34020FEA340200EA4402088
:1016700008A4402030A4402016A440202AA44020E2
:101680001EA440205CA440206CA4402066A44020FE
:101690008EA4402074A4402088A440207CA4402034
:1016A000BEA24020A6A24020DAA24020EEA2402006
:1016B00002A340201EA3402036A340204EA340207A
:1016C0006AA3402082A34020A0A34020BCA34020C6
:1016D00036A4402096A44020ACA44020A4A74020DB
:1016E00074A64020DAA54020A8A64020CCA6402021
:1016F000D0A6402038A5402052A5402066A5402015
:1017000084A54020A0A54020BEA54020F4A54020EF
:1017100018A6402034A6402058A640200000000013
:1017800079713705402022D41305453626D24AD038
:101790004ECE52CC56CA5AC85EC606D662C4B709E7
:1017A00040208923370A40202289B70A4020370B7E
:1017B0004020B70B4020B71400809305000213852A
:1017C0008145B9269385814513854938FD2609460B
:1017D0009305CA3813858145292B29E9370540200F
:1017E0001305053901239387814583C72700130714
:1017F00000036390E702370540201305053BDD2118
:10180000238E04C213060002814513858145712E83
:101810006DB713071003E397E7FE37054020130564
:10182000C53CC9218547238EF4C2E9BF094693858B
:10183000CA3E13858145752905E13705402013050A
:10184000053F4D211385A145FD2C371C0080EF601D
:10185000F03B232CACC27DB709469305CB411385E1
:101860008145412945F113850B42AD2983C7C4C386
:1018700091CB0547638CE70037054020130585436E
:10188000952149B71385A1459D20ADBF1385A1457D
:101890001D248DBF370740203716008003230736ED
:1018A0008147138541F49385C1AB130686C59386A2
:1018B0008118138701D013084024130E0000B308C9
:1018C000F50023A0C801B388F50023A0C801B30820
:1018D000F60023A0C801B388F60023A06800B3086F
:1018E000F70023A0C8019107E39907FD82801971D1
:1018F000CED6B7190080138709C41C43930610097C
:1019000086DEB3F7D702A2DCA6DACAD8D2D4D6D202
:10191000DAD0DECEE2CCE6CA938909C41CC381E7E3
:101920002AC68D3F32450524EF60502EAA8BEF600A
:10193000702414081D46192C370540200C08130587
:101940000533A52C03A40900931424006303041099
:10195000B70740201307F4FF938707450A07B386AC
:101960009700BA978C438842EF60006FAA8A138968
:1019700041F4B307990023A0770193878118A697B4
:101980008843DE85371A0080EF60006D2A8B130ACA
:101990008AC5138CC1AB0DCC7D140A042299832512
:1019A00009005E85B30C9A00EF60006BD685EF608E
:1019B000001523A0AC00D6855A85EF6020486294BC
:1019C000AA85084033099C00EF5090622320A900AB
:1019D00033049C00370C402083254C325A85EF603D
:1019E000E04583A501D0832B0400269AEF50506078
:1019F00083254C32AA8C5E85EF604044AA856685BB
:101A0000EF50105FB707402083A587322A8C03254B
:101A10000A00138901D0330A9900EF602042AA8599
:101A20006285EF50F05CB707402083ACC7322A8C48
:101A3000E685EF60A0316353A00223209A01D6858A
:101A40005A85EF60A03FAA855E85EF60E06008C020
:101A500039A8B707402083AA073211BF93050000B9
:101A60006285EF6020366343050423208A01CA940F
:101A70008840EF60301014181D46C92837054020F3
:101A80000C181305C533152A83A70900F6506654B0
:101A9000850723A0F900D6544659B659265A965AB6
:101AA000065BF64B664CD64C0961828093070000BA
:101AB0002320FA0069B75D7186C67120EF601015AA
:101AC000EF60500B8A861D465120370540208A85DD
:101AD00013058534DD20B717008003A587C3EF60A9
:101AE000700914101D469D20370540200C10130569
:101AF0004535E120B64061618280B7370110DC4393
:101B000063C607002300F500014582807D55828071
:101B1000011122CC26CA06CEAA842A84B307944097
:101B200063CCB70063D305008145F2406244D244E0
:101B3000138515000561828022852EC67D3FB24542
:101B400065FD0504E1BF81456F00B06A011122CC3B
:101B500026CA3684B284814601464AC84EC606CE9D
:101B60002A89AE89EF409060228763590500930768
:101B7000D0022300F40013071400FD1417F5BF5F13
:101B8000130545060841014893077006A686CA85D5
:101B90004E86EF10001911E101442285F2406244A3
:101BA000D2444249B249056182802A8311C623008A
:101BB000B3007D16050365FE828039713EDA2ED2B0
:101BC00032D436D63AD842DC46DE97F7BF5F9387E9
:101BD000670122CC804326CA06CEAA8411C41C4CBD
:101BE00081E72285EF1060560C445410268622852A
:101BF00036C6EF20B032F2406244D2442161828086
:101C0000011126CA4AC806CE22CC4EC652C4AA84A6
:101C10002E8909C51C4D99E3EF1020539C4C80443C
:101C200081E72685EF10605297F7FFFF938787B40F
:101C3000631DF402C0408357C400A18BB9C71C4880
:101C4000A9C7FD59294A1C4483450900FD17A1ED88
:101C50001CC463D107082286A9452685EF00105BC6
:101C6000FD576309F50229453DA097F7FFFF9387CC
:101C700067B26314F40080447DBF97F7FFFF93873A
:101C800067ADE31AF4FAC0447DB7A2852685EF005C
:101C9000F06345D97D55F2406244D2444249B2498D
:101CA000224A056182801CC4050963D70700184CCD
:101CB00063CBE700638945011C401387170018C0F8
:101CC0002380B70049B722862685EF003054E31CF5
:101CD00035F7C9B71C401387170018C02947238060
:101CE000E70051B797F7BF5F9387C7EFAA8588438F
:101CF00001BF05C67D160147B307E500B386E500C1
:101D000083C7070083C606006396D7006304C70035
:101D10000507FDF33385D74082800145828001119C
:101D200022CC2A872E843A85A28532C606CEEF20A1
:101D3000404B32462A88AE8805C651801374F47F22
:101D40009307B006818F635DF000D2073707F03F3D
:101D500001483E974286BA86EF40904B2A88AE886B
:101D6000F24062444285C68505618280357197F7ED
:101D7000FFFF938727A4EAD82E8D8C434AC92A896E
:101D80002E8522CD26CB4EC732D436C82EC606CFDE
:101D900052C556C35AC1DEDEE2DCE6DAEED682C8B0
:101DA000EF209052C246B245AA8981440144EAC656
:101DB00035461305B0021308D002930800022543EC
:101DC000B64703C70700636BE608637F67085DC714
:101DD00002C8364A93070003814A03470A00631D7D
:101DE000F71283471A00130780056388E70013067C
:101DF0008007130700036397C710C2473688980807
:101E0000D40817F6FFFF1306E68EEC004A85EF10A4
:101E1000805693797500AA8A638809009947639868
:101E2000F906050AD2C602C8A25781C7B64722578B
:101E30001CC3C247A1CBB7050080A18DFA406A44FC
:101E400026854A49DA44BA492A4A9A4A0A4BF65B35
:101E5000665CD65C465DB65D0D6182806309A70055
:101E600063040703E31617F78507BEC691BF02C8D0
:101E700013871700BAC683C71700A1FFA257EAC687
:101E800002C8CDF7A2855DBF05473AC8D5B746461B
:101E900011CA93055003A808EF20205EC6454A8565
:101EA000EF10B051FD19914763EE370117E7FFFFBF
:101EB0001307877E8A09BA9983A70900BA97828790
:101EC000E644764493FA8A00E3800AF6B707008076
:101ED0005D8C99BFF6453704F0FF7D14B3F785009C
:101EE0005644E644130434439315440133E4B700E5
:101EF000D1BF3704F07FF9B7B705008013C4F5FFF1
:101F0000FD54C9B7B64793861700B6C683C71700F6
:101F1000E38AE7FE91DB854AB64C014A814B014CCE
:101F2000A5462148A9473645034B050013070BFD7D
:101F30001376F70F63FAC6044E86653B3DC1DA8718
:101F4000E28D8146014B0145130750066387E70088
:101F50001307500481496399E71663960D00B3E7B0
:101F6000560189DF814D364D1307B00293071D00DE
:101F7000BEC683471D006382E70E1307D0020148E7
:101F80006393E70E0548D9A863498801B38BFB0228
:101F9000BA9B0505050CAAC679B7330AFA023A9A24
:101FA000CDBF364581464E95AAC683470500630DD1
:101FB0000C06014BE28D138707FD25466376E6028A
:101FC000054559B7B647850613861700B2C683C7BD
:101FD0001700E389E7FE1387F7FC2146E36EE61E50
:101FE000B64C368B814D8146938707FD13871600CB
:101FF00085C73A9B3385B6016E872148C14829467B
:102000006317A702850DB69DA14663CFE602294757
:10201000B38BEB020147BE9BB64793861700B6C64B
:1020200083C71700BA8641BF130700035DB7930546
:1020300017006346E800B38BCB022E87D1B7E3CEFF
:10204000B8FE330ACA02D5BFC1460147E3C6B6FD92
:10205000A946330ADA023E9AC1B7014893072D0018
:10206000BEC683472D00138707FD25466367E60C30
:10207000130700036386E70A1387F7FC21468149AB
:102080006364E604B648138707FD2543294EB64727
:1020900013861700B2C683C71700938507FD93F513
:1020A000F50F6376B3089569330616419389F9E114
:1020B000A148CE8563C6C800BA8963D3E500AE895E
:1020C00063040800B3093041639E0D0CB3E6DA00E7
:1020D000E39C06D4E31405DA1307E004638AE706F9
:1020E0006340F70613079004E39AE7D897E5FFFFEC
:1020F0009385455FE800EF102076E30105D8B647E9
:1021000097E5FFFF9385455EE800FD17BEC6EF101B
:10211000A07401E5B6478507BEC63704F07F29B332
:10212000B64713861700B2C683C71700A1B7330797
:10213000C703BA97138707FD99BFEAC6814969B7F4
:1021400013079006E384E7FA1307E006E398E7D263
:1021500097E5FFFF9385C559E800EF10E06FE30FA7
:1021600005D0B64703C70700930780026313F70241
:10217000B00897E5FFFF93852559E800EF10C07080
:1021800095476318F500F6453704F07FE6444D8C1B
:1021900061B917E5FFFF1305E51BEF20F004AA84E2
:1021A0002E8459B1B38A694163130C006E8CC14708
:1021B0006E8D63D3B701414D5E85EF50803BA547DF
:1021C000AA842E8463DCB70393077DFF139737003F
:1021D00097E7FFFF93878762BA979043D443EF4016
:1021E00030032A845285AE84EF50A0382A86AE860A
:1021F0002285A685EF303034AA842E84BD4763CB78
:10220000B709E3830AC26352500759476341570332
:102210008E0A97E7FFFF9387675EBE9A03A50A00C1
:1022200083A54A002686A286EF40807E8DBF1307D5
:1022300050023307B741634F5705B38DB74117E9D4
:10224000FFFF1309A95B93973D00CA978843CC43CE
:10225000B38DBA412686A2868E0DEF40607BCA9D63
:1022600003A60D0083A64D00C1B7A95763C4FA02A7
:10227000B3093B41139B390097E9FFFF9389095844
:10228000DA9903A6090083A649002685A285EF40B6
:10229000A00931B7338DAD41569D6357A011937797
:1022A000FD0099CF17E7FFFF130747558E07BA9731
:1022B0008843CC432686A286EF408075AA842E846C
:1022C000137D0DFF63080D0A9307401363D5A7051F
:1022D000014B814902C6814B930720022320F9005C
:1022E0003704F07F8144B247E38007B4C6454A858E
:1022F000EF10B00CDE854A85EF10300CCE854A8594
:10230000EF10B00BB2454A85EF10300BDA854A85E5
:10231000EF10B00A11BE135D4D402685A28581479E
:10232000014A054897E8FFFF9388C84A6346A80515
:1023300099C3AA842E8417E7FFFF1307A7499317B1
:102340003A00BA978843CC433707B0FC22972686D9
:10235000BA86EF40E06B3704F07FB377B4003707FD
:10236000A07CAA84E366F7F63707907C637AF702CD
:102370007D14FD54014ADDA813771D0011CF1317FA
:102380003A00469710435443EF408068854705481C
:1023900097E8FFFF93880844050A135D1D4079B74D
:1023A000370450032E94F9B7E3060DFC330DA0411A
:1023B0009377FD0099CF17E7FFFF130727448E0798
:1023C000BA979043D4432685A285EF30F075AA844E
:1023D0002E84135D4D40E30F0DF8FD4763DDA7012B
:1023E000014B814902C6814B93072002814401447D
:1023F0002320F900CDBD137A0D0163040A00130AEE
:10240000A0062685A28597E7FFFF9387273101471E
:1024100093761D0081CA9043D4433EC6EF40405F8F
:10242000B2470547135D1D40A107E3130DFE19C315
:10243000AA842E8463050A029357440113F7F77F99
:102440009307B006998F635CF0007D476354F722D1
:102450001307400381446359F72037047003014692
:1024600081462685A285EF40803F3DD95E87EE8676
:102470006286E6854A85EF10B0012AC6E30A05E4C4
:1024800093D7FA41B3093B41B3F7F9003ED056CE9A
:1024900063D30A0002CEB247014B8149B1073ED84F
:1024A000B7071000FD173ED6B2474A85CC43EF1060
:1024B0000068AA8BE30205E2B247C2553105904B92
:1024C00009060A06EF104065B808D4082286A685DA
:1024D0004A8526CA22CCEF107060AAC8E30E05DE3A
:1024E00085454A85EF10D00FAA89E30705DED64758
:1024F00063C707180257724C338DE7006647B387EE
:10250000474193066003BA97FD17930D20C0998E3B
:1025100063D6B7193387FD407D46998E6346E6162C
:10252000854DB397ED003ED2814C369CB30DDD0056
:10253000529CEA8763D3AD01EE876353FC00E287C8
:102540006358F000B38DFD40330CFC40330DFD406B
:1025500082576358F002CE853E864A85EF10101EE2
:10256000AA89E30B05D64646AA854A85EF10F008EE
:102570002ADAE30305D6C6454A85EF100064D25730
:10258000BEC8634FB011635A50017246DE854A855A
:10259000EF10D01AAA8BE30105D4635A8001DE85BF
:1025A00062864A85EF10F024AA8BE30705D2635AAE
:1025B000A001CE856A864A85EF10B023AA89E30D73
:1025C00005D0C6455E864A85EF10B0322A8BE305FA
:1025D00005D0032CC500CE8523260500EF10502E14
:1025E0006359050C336C9C0063110C129317C400E3
:1025F000639D0710B707F07FE18F3707B00663765A
:10260000F71083274B0191E703270B01854763DE12
:10261000E70EDA8505464A85EF10B01DCE852A8B78
:10262000EF10102A6353A00E630C0A10B707F07F57
:10263000E18F3707B0066345F71037077003E3559E
:10264000F7DA0147B70750392685A2853A86BE8654
:10265000EF40003C2E84C98DAA84E39905C89307F6
:1026600020022320F90059B181177D57B317F700D5
:102670007D8CF5B37D57B317F700FD8CCDB3724752
:10268000025D330CF7409DBD930C20BEB387FC4028
:10269000854CB39CFC0085473ED241BD814CE5BFD3
:1026A000C6456E864A85EF10D014AAC8E31D05EC16
:1026B00025B169E9370710007D17B377E400630996
:1026C0000C046399E7047D5763000A02B707F07FA3
:1026D000E18FB706A00663E9F600D1839306B00642
:1026E000B387F6403317F7006396E402B707F07F2D
:1026F000FD176315F400FD57E380F4BEB705F07FC6
:10270000E18D370410002E948144E31C0AF2F9BED7
:10271000C58F99DB63820C04B3FC8C00E3870CFE4D
:1027200052862685A285630F0C02EFF04FDF2A86C2
:10273000AE865245E245EF300060AA842E84F1B7A0
:10274000B705F07FE18D3704F0FFA2953704100044
:102750007D144D8CFD5455BF9257B3FD9700E38611
:102760000DFA7DBFEFF0AFDB2A86AE865245E2451B
:10277000EF40C06D01468146AA842E84EF40200EB2
:1027800049F59DB1CE855A85EF10904297E7FFFF3E
:102790009387C7F29043D4432A8DAE8DEF40001D3E
:1027A0006342A01063010C0A814D370DF03F0147D1
:1027B000B707F03FB706F07FB37CD400B706E07FE1
:1027C000639FDC166AD2370DB0FC229D2685EA8510
:1027D0003EDE3ADC6EDAEF10D020D25812582A864C
:1027E000AE864685C285EF40A0222686EA86EF3077
:1027F0008054AA843705F07F3376B500B706A07CF5
:102800006257F2576365D60C62479307F5FF6396EC
:10281000E7005247FD57E381E7ACB707F07F138429
:10282000F7FFFD54C6454A85EF102039DE854A85FD
:10283000EF10A038CE854A85EF102038DA854A851A
:10284000EF10A03795B1B1E0B257E18FA1E797E75C
:10285000FFFF938727E69043D4436A85EE85EF40D8
:10286000E010634D050297E7FFFF938727E490434D
:10287000D4436A85EE85EF40A0192A87AE87370DCD
:102880000080BA8D334DFD0035B785476394F40061
:10289000E30C04B4814D370DF0BF11BF0147B707FA
:1028A000E03FF1BF97E7FFFF938747E09043D443B2
:1028B0006A85EE85EF40C0152A87AE872E8D631698
:1028C0000C00370D0080334DBD00AA8DE5B53704EF
:1028D00050032E94E3180AF4B706F07FE18EE393D9
:1028E000DCF4BE853A853A8DBE8CEF40B04DEF40AA
:1028F000B0572A86AE866A85E685EF402055B257E6
:102900002A8DAE8DE18FC58F33EC8701630B0C0AE6
:1029100097E7FFFF938787DB9043D443EF400005A1
:10292000E346059C97E7FFFF9387C7DA9043D443BC
:102930006A85EE85EF305079E356A0EE45BA630D17
:102940000A04B706A00663E9960597E6FFFF93869B
:1029500066D79042D4423A85BE853ADA3ED2EF40FD
:10296000E000925752576344A0023A85BE85EF407B
:10297000D03311E10545EF40D03F2A87AE872E8D39
:1029800063160C00370D0080334DBD00AA8DB705CE
:10299000B0062E9D330D9D415245E2453EDA3AD2B6
:1029A000EF1030042A86AE866E85EA85EF40400639
:1029B0005246E246EF302038AA842E84D25712576E
:1029C00011BF97E7FFFF938767D19043D443EF3060
:1029D000F079E35905E419BA130750066387E70055
:1029E0001307500405456393E7EE014B05456FF06F
:1029F0000FD797E7BF5F9387E71E2E86AA85884388
:102A000097D6BF5F938606666FF04FB6011122CC52
:102A100026CA4AC806CE4EC6AA842E89328401C56B
:102A20001C4D91E31D2797E7FFFF9387A7D46319F8
:102A3000F406C0401C4C1CC48357C400A18BC9C3FE
:102A40001C48BDCF1C4808409379F90F1379F90F42
:102A50001D8D5C486346F500A2852685F9232DE58A
:102A60001C440505FD171CC41C401387170018C023
:102A7000238037015C486389A7008357C400858B96
:102A800081CBA9476316F900A2852685792B0DED28
:102A9000F24062444A85D2444249B249056182808B
:102AA00097E7FFFF938707CF6314F400804459B77B
:102AB00097E7FFFF938707CAE31EF4F6C0449DBF64
:102AC000A285268521203DDD7D59D9B7411197E7A3
:102AD000BF5F9387271126C2844322C44AC006C61B
:102AE0002A892E8489C49C4C99E32685B92D97E7C1
:102AF000FFFF938727C8631CF402C0400317C4007C
:102B000093170701C18393F68700BDEE93F6070183
:102B10009DEEA5472320F900136707042316E40060
:102B20007D55B2402244924402494101828097E798
:102B3000FFFF938727C66314F4008044C1B797E76B
:102B4000FFFF938727C1E31BF4FAC04445BF918B75
:102B500095C74C5891C9930744046385F5004A858D
:102B6000EF10D01B232A04028357C4002322040041
:102B700093F7B7FD2316F4001C481CC08357C4000C
:102B800093E787002316F4001C4889EF8357C4009D
:102B90001307002093F707286386E700A2854A857C
:102BA000EF00F0698357C40013F7170005C75C48AE
:102BB00023240400B307F0401CCC1C480145B5F3A6
:102BC0008317C40013F7070829DF93E707042316C8
:102BD000F400B9B7898B014791E3584818C4F1BF95
:102BE000797122D426D24AD04ECE2E893A84B2852B
:102BF000BE8436867C00C289930881001308410098
:102C00000507894606D6EF20600832468967938714
:102C1000F770AA85631CF6004A85EF10D069B250A0
:102C2000225492540259F24945618280834705003B
:102C3000B3693401130715002300F9006397090AEB
:102C40009307190001448346070099C26346800A2E
:102C500013077006638CE40A13077004638BE40A9D
:102C60003E87B385870013050003B386E540634BB9
:102C7000D008635304000144A2971307F6FF238092
:102C800097003AC693862700635807081307D002B7
:102C9000A380E7000547118F3AC632461307300676
:102CA0006352C702130740063347E6029386370094
:102CB000930507032381B7009307C0F93307F70291
:102CC00032973AC63247A94723810600B347F70235
:102CD000138607032380C6005956B387C702BA97E5
:102CE00093870703A380F6001DBF9306E0029307B6
:102CF0002900A300D90081BF85070507A38FD7FE50
:102D00007D1491B70507A30FA7FE85B7930450065E
:102D1000ADB79304500495B71307B002A380E70042
:102D2000ADBF797122D432844AD04ECE56CA2E8994
:102D3000AA8AB6892E8501468146A28526D252CC22
:102D40005AC806D6BA843E8B428AEF303042635569
:102D50000500B70700803D8C014681464A85A28563
:102D6000EF30F02F15E1930700032380F400A380D8
:102D70000400B2502254268502599254F249624A04
:102D8000D24A424B4561828097E7FFFF9387879B3A
:102D90009043D4434A85A285EF30503D634CA00058
:102DA0005288DA871387F9FF4A86A286A685568558
:102DB000053DC1B74E85EF10A0664A86A286EF306A
:102DC000F03AE35FA0FC97E7FFFF9387A78ED44319
:102DD00090434A85A285EF3070399308C1001308EB
:102DE00081005C004E878D4663430500894622863C
:102DF000CA855685EF109069924609671307F770E8
:102E0000A687A699639DE600AA852685EF10B04A9D
:102E10008DB785077D170505A38FD7FE3AC2834678
:102E200005003386F940124799C2E344E0FE81462B
:102E300013080003BA85634DE00491C23AC26315DA
:102E40000A000347050005CF6397970013070003A7
:102E50002380E70085071307E0022380E70012477D
:102E60008507814693050003634A070291C23AC26F
:102E70000347050019C3634CC002631C0A04238086
:102E80000700C5BD8507A38F07FF7D1685465DB783
:102E90007D17E349C0FEC5D62EC255B7E358C0FC26
:102EA0008507A38FB7FE05077D16854675BF850785
:102EB0000505A38FE7FE7D1665BF0507A30FA7FED7
:102EC000B386E540E34BD0FE635306000146B2975C
:102ED0007DB73E87B385C70013050003D5B783D7F9
:102EE000C500011122CC26CA06CE4AC84EC613F729
:102EF0008700AA842E846DE7D8416347E000B8417B
:102F00006344E0000145C9A058546DDF03A90400E3
:102F10009396370123A0040063DF060668488357B1
:102F2000C400918B99C75C401D8D5C5899C33C408F
:102F30001D8D5C540C502A86814626858297FD574C
:102F40000357C400631DF5009440F54763E5D708B7
:102F5000B70740208507B3D7D700858BADCF1C4876
:102F6000232204001CC09317370163D80700FD57C4
:102F70006314F5009C4091E368C84C5823A02401D9
:102F8000D1D1930744046385F5002685EF100059DD
:102F9000232A040285BF0C508546014626850297E8
:102FA000FD57E31EF5F69C40BDDB75476385E700E2
:102FB00059476395E70023A02401A9B78357C400AC
:102FC00093E707042316F400F2406244D2444249D6
:102FD000B24905618280136707042316E400EDB748
:102FE00083A90501E38009F203A905008D8B23A0C5
:102FF000350133093941014791E3D84918C4E353F6
:1030000020F11C540C50CA864E8626858297634A4E
:10301000A0008357C4007D5593E707042316F400EE
:1030200065B7AA993309A940D9BF9C49B9CF011105
:1030300022CC06CE2A8411C51C4D81E72EC6312232
:10304000B24597D7FFFF9387E772639BF5004C402B
:103050008397C50095C722856244F240056141B55A
:1030600097D7FFFF938707736394F5000C44CDB7A0
:1030700097D7FFFF9387076EE39CF5FC4C44C9BFCD
:10308000F240624401450561828001458280411120
:1030900022C406C62A842316B5002317C5002320A0
:1030A00005002322050023240500232205062328EA
:1030B0000500232A0500232C050021468145130520
:1030C000C505EFE09FAE97270000938707935CD07C
:1030D00097270000938787951CD497270000938734
:1030E000E7995CD4972700009387C79C00D01CD831
:1030F000B24022444101828097050000938525F368
:1031000091AA411126C2130680069384F5FFB38469
:10311000C4024AC02E8922C406C693854407EF1014
:10312000E04A2A8401CD2320050023222501310510
:1031300008C4138684068145EFE03FA72285B2408C
:10314000224492440249410182801C4DBDE3411159
:1031500006C622C497070000938747FA1CD597E755
:10316000BF5F938767A89C43232405042326050497
:10317000232805046314F50085471CCD2A841D28E7
:1031800048C02285052808C422852D2048C448400F
:1031900001469145ED3D08440546A545CD3D4844D1
:1031A0000946C945ED3585471CCCB2402244410152
:1031B00082808280411197E7BF5F9387E7A226C292
:1031C00084434AC006C69C4C22C42A8999E32685BA
:1031D000AD3F938484048044DC40FD1763D6070030
:1031E0009C40B9CF8440C5BF0317C40039E7C177FD
:1031F000850723220406232004002322040023241D
:1032000004005CC423280400232A0400232C0400A7
:10321000214681451305C405EFE03F99232A0402A6
:10322000232C040223240404232604042285B24010
:10323000224492440249410182801304840671BFF2
:1032400091454A857D3D88C02A8449FDB1472320A8
:10325000F900E9BF797122D44AD052CC56CA5AC873
:103260005EC606D626D24ECE2A8AAE8A13048504BE
:103270000149054BFD5B09ECB25022544A8592543A
:103280000259F249624AD24A424BB24B45618280AE
:10329000044483294400FD1963D409000040E1BFC0
:1032A00083D7C400637BFB008397E40063877701C7
:1032B000A6855285829A3369A90093848406E1BF6A
:1032C00010499306450113D75540B6876356C70288
:1032D0000A060A07FD8936963697B9C913084700CA
:1032E0001843130300023303B3403357B700636E30
:1032F000C80098C311C391073387D740098718C9FD
:103300006394D700232A0500828083280800910750
:103310001108B398680033E7E80023AEE7FE0327FF
:10332000C8FFE1B711078325C7FF910723AEB7FE9A
:10333000E36AC7FED1B7930705FD93F7F70F25475B
:103340006367F70001159377F50F3E858280930739
:10335000F5F993F7F70F954663E5F600130595FB2E
:10336000DDB71307F5FB1377F70F8147E3EFE6FCB3
:10337000130595FDC9BF1D71DAC03E8B97D7FFFFBE
:10338000938747439C43D6C2AA8A3E85CAC8D2C403
:1033900062DC6ED636C6AE8D3A8C3EC286CEA2CCEC
:1033A000A6CACEC65EDE66DA6AD83289EF10C07170
:1033B000924783A60D007957AA9783C7F7FF158F09
:1033C0002A8A3EC893872600930600033306F70037
:1033D000BE84850703C5F7FF32C4E309D5FEA13FCC
:1033E000631A0510924552862685EFE09F902A8445
:1033F00063170510B38B440103C50B008549253FB6
:1034000039C9DE849307000303C50400630AF5008D
:103410001D37854793391500DE8C3EC4A68B21A04D
:103420008504DDB7850B03C50B00313765FD92457B
:1034300052865E85EFE0FF8B09E9639B0C00D29B0F
:10344000DE8C03C50B00C53D4DE9014463850C00CE
:1034500033847C410A0483C70B001307000563878C
:10346000E70013060007DE8C639EC70483C71B00BA
:103470001307B0026389E7081307D0026389E708DE
:10348000938C1B00014D03C50C0075359307F5FFA8
:1034900093F7F70FE14563E3F508930705FF850C04
:1034A00003C50C003ECA413D9305F5FF93F5F50FAA
:1034B0006148D247A948637EB80463040D00B3078E
:1034C000F0403E9423A09D01638C0904A2478144EF
:1034D00091E39944F640664426854649D644B64968
:1034E000264A964A064BF25B625CD25C425DB25D54
:1034F000256182808149814C15B7850B99B7A68BD0
:103500000144854989BF014D938C2B00ADBF054D0A
:10351000E5BFB3871703AA97C11751B7DE8C5DB714
:10352000B3879B40FD1781451D476342F70A5685C7
:10353000FD2B054693094501B3074641AA8D4E8DE3
:103540008148814C3ECA63E7740913054D00330579
:103550003541098523209D0123A8AD009314550012
:103560006685EF00E07C832B0900898C63D59B0C7A
:10357000B3847441A6856E85EF0090732A8A05C9CD
:103580001386F4FF935656408A06CE96944205471A
:103590003317C700758F054A19CB6359CA00938545
:1035A000E4FF6E85EF00D0700D4A11E1094AA6854F
:1035B0006E853933269403278900635D8708EE857D
:1035C0005685E52B9304300A23200C0021B785058E
:1035D0008587A1BF9387FBFF3EC403C6FBFFC2479D
:1035E0006308F602930700026397F80023209D0109
:1035F0008148110D814C03C5FBFF46CC2D3BE248B1
:103600003D89224333151501B3ECAC00910815A098
:1036100052479387FBFF3383E700E36593FC9245B2
:103620001A85528646CE1ACCEFE0AFEC6243F248E0
:1036300055F99A8B09BF014AE3DF74F7B3849B40C5
:10364000EE8526865685EF00D01AAA8D058C930943
:10365000450195B7032749006352E40E33048740C0
:10366000634374070327C90089466308D7048D465E
:103670006308D7048546631AD70263988B02639068
:10368000EB0203274900B2479304200698C305477D
:1036900023A8ED0023A0E9002320BC0125BD9385CC
:1036A000FBFF6E85EF00D06069FDEE855685312306
:1036B0009304000523200C0031BDE3180BFED1B7A5
:1036C000E3110BFCDDB79304F4FF63170A0691C402
:1036D000A6856E85EF00D05D2A8A13D754400A076D
:1036E0004E9718438545B3959500F98D99C1136A96
:1036F0002A00A2856E85B38B8B40D93603244900FE
:103700008944630B0A080327C9008946630AD70264
:103710008D46630AD7028546631DD70013772A00BA
:1037200009CB03A70900336AEA00137A1A00631E63
:103730000A0093E404018DA0054A45B78544D1B73A
:103740000547330B6741E3060BFE83A90D01138781
:103750004D01FD55139A2900330647011443638236
:10376000B604850614C3894613874D016392D408B5
:1037700083260900FD16639F760193D65B408A0677
:10378000369718438546B39B7601B3FBEB00638302
:103790000B00854493E40402B2472320BC0180C39C
:1037A00015BB1107232E07FEE36AC7FA03A78D0096
:1037B00063C4E90283A54D00568585058D2E03A6B9
:1037C0000D019385CD002A8B09060A063105A9262D
:1037D000EE855685DD26DA8D03A70D0193061700C9
:1037E00011070A0723A8DD006E97854654C3A5BFBD
:1037F00083A60D0163DCD90085456E85EFF05FACD3
:10380000032789000504E35687F855BB93FBFB01AA
:103810008544E3810BF852970325C7FF112B13074B
:103820000002B30B7741E34975FDADB7A14733867D
:10383000C7400A0693060002918E5C4118411105AB
:103840003398D70033670701B3D7C700232EE5FEAF
:103850001CC1E364B5FE82801C416548850503C632
:10386000F5FF850701E61CC10545828003C70700F7
:103870009306F7FB93F6F60F6364D800130707026D
:10388000E30EC7FC014582805D7152DC03AA05008E
:10389000A6C24EDE93545A405AD88A0486C6A2C4A1
:1038A000CAC056DA5ED662D466D26AD06ECE137AB9
:1038B000FA012A8BB289B29463030A009104832728
:1038C0000B001389C4FF23AE04FECA8D4A8401464F
:1038D000814A814B214C930C00021D4D83C6170079
:1038E000138717003AC0A9CA368532C63EC436C20D
:1038F000EFF07FA4324649E59246A24763E7DC0237
:1039000063D37A036377B4016345CD00EE852285E6
:10391000313F214663F98900930DC4FF232E04FE35
:10392000DE8A6E840146824755BF93059002639BF1
:10393000B60889072320FB0063860B086378B4016F
:103940009D4763C5C700EE852285CD3563FA89049E
:10395000CE8711040327C4FF910723AEE7FEE37A65
:1039600089FE910723AE07FEE37DF9FE8327090058
:1039700091E76317390585472320F9001545A1A074
:103980000506850B6358CC00E3FF89F8232E04FE5F
:10399000054671141C403D899207C98F1CC061B750
:1039A000E3060AFC93070002B38747417D5AB357E9
:1039B000FA0003AAC4FF337AFA0023AE44FF7DB7AE
:1039C00071196DB71145B640264496440649F2591F
:1039D000625AD25A425BB25B225C925C025DF24D4B
:1039E000616182801971A6DAAE848395E500A2DC5C
:1039F00086DE328463DC050083D7C40023A0060082
:103A000093F7070885E7930700401DA0300836C6E6
:103A1000EF105069B246E34105FE7247BD67F98F6A
:103A20007977BA9793B717009CC2F1BF9307000448
:103A30001CC0F6506654D65401450961828083D774
:103A4000C500011122CC06CE26CA4AC8898B2E8415
:103A500089CF930774041CC01CC885475CC8F2401A
:103A60006244D24442490561828074003000AA84D5
:103A7000953FA2452A892685EF00503501ED831731
:103A8000C40013F7072061FFF19B93E7270023167B
:103A9000F400C1B797F7FFFF938747669CD483571D
:103AA000C40008C008C893E707082316F400A2471B
:103AB0005CC8B24791CF8315E4002685EF105061B2
:103AC00001C98357C400F19B93E717002316F40044
:103AD0008357C4003369F9002316240149B785E1EF
:103AE00041116C00014511CA795581CA834706000E
:103AF0009CC1034506003335A00041018280014589
:103B000019CA795589CA834706009CC10345060036
:103B10003335A000828082802A8309CA838305000E
:103B2000230073007D16050385056DFA82805C51C4
:103B3000411122C44AC006C626C22A842E8989EFB2
:103B40004145EF10705E48D0232205002324050074
:103B500023200500232605004450DC449DC758500F
:103B6000931729005847BA97884329E18544B394AD
:103B70002401138654000A0685452285EF00B017FC
:103B800019CD2322250104C525A013061002914555
:103B90002285EF0050165C50C8C4DC47E9F30145AC
:103BA000B24022449244024941018280184198C3A4
:103BB0002328050023260500E5B75C51011122CC1E
:103BC00006CE2A8499EF41452EC6EF10F055B24536
:103BD00048D02322050023240500232005002326A6
:103BE000050091C95450DC4113972700DC46BA9771
:103BF000984398C18CC3F240624405618280797118
:103C00004ECEAA89416522D426D22E84844906D676
:103C10004AD0D10501487D159C419105050833F72F
:103C2000A7003307C702C183B387C70236979356ED
:103C30000701698FB69793D60701C207BA9723AEDB
:103C4000F5FEE34B98FC8DCE1C4463C4F4024C405B
:103C50004E8536C68505E13D10489305C4002A8986
:103C600009060A0631054D3DA2854E85B937B24693
:103C70004A84938744008A07A297D4C3850404C862
:103C80002285B250225492540259F24945618280F1
:103C900079719387860052CC368AA54622D426D2E3
:103CA0004ECE2E84B3C7D70206D64AD056CAAA89AA
:103CB000B2848546814563CAF6044E853AC6853D81
:103CC000324785471CC958C9A54763D39704930A4F
:103CD00094005689269405098346F9FFAA8529464A
:103CE000938606FD4E85213FE31789FE138484FFEA
:103CF0005694268963414903B25022549254025982
:103D0000F249624AD24A456182808606850565B7D6
:103D10002904A544F9BFB3079940A29783C60700B9
:103D2000AA852946938606FD4E85D13D0509D9B75A
:103D30004177698FAA87014519E3C20741453707D3
:103D400000FF7D8F19E32105A207370700F07D8F63
:103D500019E311059207370700C07D8F19E30905A4
:103D60008A0763C907001397170005056344070016
:103D70001305000282801C4113F777000DC393F6F0
:103D80001700014799E613F7270011C785831CC167
:103D900005473A85828089831CC10947DDBF939618
:103DA0000701C182014799E2C183414793F6F70FAA
:103DB00099E22107A18393F6F70099E21107918315
:103DC00093F6370099E20907898393F6170081E695
:103DD0008583050799C31CC16DBF1307000255BF3A
:103DE000411122C42E84854506C6913340C9B24094
:103DF0002244054718C94101828098491C4A7971BB
:103E000026D206D622D44AD04ECEAE846354F700D2
:103E1000B2842E8683A90401032906019C44CC4068
:103E20003384290163D38700850532C609333246BE
:103E300013084501131324004293C28763ED670200
:103E400093854401939829005106131E2900C166E9
:103E5000AE98329EFD166364C603635680007113EC
:103E600083270300F1CB00C9B25022549254025967
:103E7000F2494561828023A007009107C1B7832FD3
:103E80000600B3FFDF00638A0F04428FAE828144D5
:103E900003A7020083230F00110FB37ED700B38E58
:103EA000FE03B3F7D30093D303019102BE9E935751
:103EB0000701B387F703A69E13D70E01B3FEDE00FA
:103EC0009E97BA9793D40701C207B3E7D701232E71
:103ED000FFFEE3EF12FB23209F0083522600638A3C
:103EE000020483270800C28E2E8F814F03270F0004
:103EF00083D32E00F58F758F33075702910E110F64
:103F00001E977E97931F0701B3E7FF0023AEFEFEC7
:103F10008357EFFF83AF0E004183B3875702B3FF90
:103F2000DF00FE97BA9793DF0701E3611FFD23A02F
:103F3000FE001106110805B77D1405B7011126CA48
:103F40004AC84EC606CE22CC52C4937736002A8980
:103F5000B284AE8981CFFD1717D7FFFF13070797EC
:103F60008A07BA97904381465939AA898984ADC88E
:103F70008327490291EF4145EF10101B2322A9022C
:103F80002322050023240500232005002326050005
:103F9000032A490203248A0011E8930510274A8561
:103FA00081352324AA002A842320050093F71400D6
:103FB00099CBCE8522864A8589352A8ACE854A853F
:103FC000EFF0BFBFD289858481CC084001E9228609
:103FD000A2854A851D3508C0232005002A84F9B72B
:103FE000F24062444E85D2444249B249224A0561B8
:103FF0008280797126D2AE844ECE83A9040122D468
:10400000CC41135456409C44A2994AD056CA06D675
:1040100052CCAA8A1389190063C42709568532C66F
:10402000EFF0FFB03246930745012A8ABE8601476A
:104030009106634A870663530400014494480A04C6
:10404000338787008A06938744017D8ABE9625C2FE
:10405000130800023308C8408145884311079107BF
:104060003315C500C98D232EB7FE83A5C7FFB3D571
:104070000501E3E4D7FE0CC399C1138929007D191A
:1040800023282A015685A685EFF03FB3B25022546B
:10409000528592540259F249624AD24A456182805D
:1040A0008505860795BF23AE06FE050751B7910724
:1040B00003A6C7FF1107232EC7FEE3EAD7FEC1B749
:1040C0001C499849998F8DE30A075105D105B3061C
:1040D000E500BA95F116F115904298416308E600A3
:1040E000FD576363E60085473E858280E364D5FE25
:1040F000E5BF011126CAAE844EC6B285AA892685BF
:1041000022CC06CE4AC83284653F05E181454E8502
:10411000EFF0FFA185471CC9232A0500F240624445
:10412000D2444249B249056182800549634605008F
:10413000A28701492684BE844C404E85EFF03F9F04
:104140000323040183A8040113064401131E230062
:10415000138844018A08C16E23262501329EC29825
:1041600093064501014FFD1E1842832F080091065A
:10417000B375D701B3F7DF01FA959D8D93DF0F017A
:1041800093570701B387F74113D70541BA9713DF58
:104190000741B3F5D501C207CD8F110823AEF6FE56
:1041A0001106E36318FDC165FD156368C601F116CC
:1041B0009C4295C72328650095B71C4291061106BD
:1041C00033F7B7007A9713580741C183C29713DFBB
:1041D00007416D8FC207D98F23AEF6FEF9B77D1365
:1041E000F9B7B707F07FFD8DB707C0FCBE956355E3
:1041F000B00081473E858280B305B04093D74541EA
:104200004D476347F700B7050800B3D5F540D5B76C
:104210001387C7FEF94681458547E3CDE6FCB7071E
:104220000080B3D7E700F9B7797126D204494ECEA2
:10423000930945018A04CE9422D403A4C4FF4AD032
:104240002EC6228506D6EFF0BFAEB2459307000218
:10425000898F9CC1A9471389C4FF63CDA702AD47CD
:10426000898F3707F03FB356F400D98E014763F4C6
:10427000290103A784FF55053315A400B357F700A0
:10428000C98FB250225492540259F2493E85B685E4
:1042900045618280814763F6290183A784FF1389E2
:1042A00084FF551505C9130700023306A74033D70D
:1042B000C7003314A400598CB706F03FC18E0147E4
:1042C00063F429010327C9FFB397A7003357C70039
:1042D000D98F45BFB706F03FC18E65B7797122D43B
:1042E0002E84854526D24AD0B2844ECE52CC3A890D
:1042F00006D6368AEFF0BF83370710009307F7FF23
:10430000E58FD18093F4F47FAA89B5E03EC62DC431
:10431000280022C4EFF03FA6A24621CD32479307E2
:104320000002898FB317F700D58F3357A70023AA50
:10433000F9003AC6324423AC8900333480000504C6
:1043400023A88900B9C49384D4BCAA9493075003CA
:1043500023209A003385A7402320A900B25022547D
:104360004E8592540259F249624A45618280D98F42
:1043700071BF23AAD9007DBF6800EFF0DF9FB2476D
:1043800013050502054423AAF900854723A8F9006F
:1043900055BF931724001305E5BCCE972320AA0030
:1043A000884B1604EFF0DF98098C232089007DB735
:1043B00079714AD02E892C0006D622D426D24ECE30
:1043C00052CC2A8A9535AA89AE842E844A856C00FF
:1043D000A13D8327090103270A01A2461D8FB24789
:1043E00016079D8EB307D7006355F002D2072E86BD
:1043F000338497003287A2852A86BA864E85EF10CD
:10440000B072B250225492540259F249624A456144
:1044100082803707F0FFB387E7023386B700D9BF42
:10442000411122C406C64AC24EC0DD472A8463C178
:10443000A7021314350097C7FFFF9387273C3E94CC
:1044400008404C40B24022441249824941018280D6
:1044500097C7FFFF938707268843CC4397C7FFFF83
:104460009387474603A9070083A947004A86CE865B
:104470007D14EF20E0597DF8F1B79387F5FF184AD6
:10448000958785078A07930646010A07AA973697F4
:1044900063E5E600636AF5008280910603A6C6FF25
:1044A0001105232EC5FEEDB71105232E05FEDDB740
:1044B000144993D755401307450163C7F60263DFDC
:1044C000D700FD8981CD93962700BA969042054585
:1044D000B356B600B395B600631EB6008A07BA9706
:1044E0006366F70001458280B687CDBFF11794431C
:1044F000E5DA054582803386C502011122CC06CE5D
:10450000B28532C6E1202A8409C532468145EFD002
:10451000CFE92285F240624405618280DDC583A730
:10452000C5FF411122C406C626C21384C5FF63D34A
:1045300007003E94AA84EF10C04197C7BF5F9387DE
:10454000A7709C4391EF2322040097C7BF5F23AD60
:10455000876E2244B2402685924441016F10803F0D
:10456000637EF40014403307D4006396E700984359
:10457000DC43369718C05CC0C9BFBA87D84319C39B
:10458000E37DE4FE94433386D700631F860010402A
:10459000B29694C33386D700E31DC7FA104358433D
:1045A000B29694C3D8C375B76375C400B1479CC0B5
:1045B0004DB71040B306C4006316D70014435843E8
:1045C000B29614C058C0C0C369B78280011126CA10
:1045D00093843500F19806CE22CC4AC84EC6A10479
:1045E000B14763F9F404B14463E8B4042A89EF10D5
:1045F000403697C7BF5F9387276598433A8439E46D
:1046000097C7BF5F938787649C4381EB81454A8549
:104610007D2697C7BF5F23ABA762A6854A8545263F
:10462000FD59631B3507B1472320F9004A85EF1078
:10463000603229A0E3DA04FAB1471CC10145F24017
:104640006244D2444249B249056182801C40858F50
:1046500063C10704AD4663F6F6001CC03E9404C077
:1046600001A85C406315870217C7BF5F232EF75C64
:104670004A85EF10202E1305B4009307440061997A
:104680003307F5404DDF3A94898F1CC04DBF5CC3A2
:10469000C5B722874040A5B7130435007198E300E1
:1046A00085FCB305A4404A85192EE31A35FBA5BF46
:1046B0001C46FD171CC663DA0700184E63C5E700E9
:1046C000A9476394F5006FE06FB41C422E851387F1
:1046D000170018C22380B7008280011122CC26CA9D
:1046E0004AC84EC652C406CE2A89AE893284B30463
:1046F000D6007D5A63149400014509A8834504003F
:104700004E864A8575370504E31645FFF24062443C
:10471000D2444249B249224A05618280357122CD94
:1047200026CB4AC94EC706CF52C556C35AC1DEDE94
:10473000E2DCE6DAAA89AE843289368409C51C4DEA
:1047400099E3EFE09FA097C7FFFF9387A702639CC1
:10475000F40C83A4490083D7C400A18BFDC79C48F7
:10476000EDC793070002A304F1029307000302D2EE
:104770002305F10222C6930B500297CAFFFF938ACA
:10478000AA15054C294B4A848347040099C36391B9
:10479000770FB30C2441638D0C00E6864A86A6850C
:1047A0004E85253FFD576309F51E9256E69636D293
:1047B000834704006382071EFD571309140002C8D3
:1047C00002CE3ECA02CCA309010482D4834509006B
:1047D00015465685EF10401613041900C24759E9D3
:1047E00013F7070109C713070002A309E10413F730
:1047F000870009C71307B002A309E1048346090033
:104800001307A0026380E608F2474A8481462546E2
:104810000347040093051400130707FD6379E60AB4
:10482000B5CA3ECE85A897C7FFFF9387A7F66395C5
:10483000F40083A4890005B797C7FFFF938787F12A
:10484000E39BF4F083A4C90039B7A6854E85EFE059
:10485000EFA701D97D55FA406A44DA444A49BA497A
:104860002A4A9A4A0A4BF65B665CD65C0D618280E6
:10487000050419BF330555413315AC00C98F3EC837
:104880002289A9B7324793064700184336C66349C1
:1048900007023ACE034704009307E002631FF704C0
:1048A000034714009307A002631BF702B2470904F1
:1048B000138747009C433AC663C107023ECA35A826
:1048C0003307E04093E727003ACE3EC8E1B7B3870D
:1048D000670385462E84BA9725BFFD57C5B70504E3
:1048E00002CA814681472546034704009305140008
:1048F000130707FD6378E606F1F2834504000D46D1
:1049000017C5FFFF1305C5FDEF10000311CD97C7B5
:10491000FFFF9387E7FC1D8D93070004B397A70063
:10492000424505045D8D2AC883450400194617C514
:10493000FFFF130525FB130914002304B102EF0048
:10494000B07F3DC197B7BFDF9387C76B95E74247FD
:10495000B2471377071009CF91073EC69257D297F7
:104960003ED215B5B387670385462E84BA97ADBF8F
:104970009D07E19BA107D5B77800970600009386B5
:1049800006D626860C084E8597000000E70000003A
:10499000FD572A8AE314F5FC83D7C40093F7070474
:1049A000E39A07EA125545BD780097060000938602
:1049B00006D326860C084E85EF10A00AD1BF411100
:1049C00022C42A842E8523AC014606C6EF30B044AB
:1049D000FD576317F500938781479C4391C31CC023
:1049E000B24022444101828097C7FFFF938707F0BE
:1049F0008843CC438280411122C42E848395E500F4
:104A000006C6EF106030634905007C48AA977CC851
:104A1000B2402244410182808357C4007D777D17D4
:104A2000F98F2316F400EDB783D7C500011122CC0E
:104A300026CA4AC84EC606CE93F70710AA842E840B
:104A40003289B68999C78395E50089460146EF000A
:104A5000D06A8357C4007D777D17F98F2316F40041
:104A60008315E4006244F240CE864A86B249424948
:104A70002685D244056151A0411122C42E8483951C
:104A8000E50006C6EF007067FD570357C400631BBF
:104A9000F500FD77FD17F98F2316F400B24022448C
:104AA000410182808567D98F2316F40068C8FDB75D
:104AB0008395E50095A8AA8703C7050085078505A6
:104AC000A38FE7FE75FB8280AA87850703C7F7FFE0
:104AD0006DFF3385A7407D15828091CD9307F00F40
:104AE00063F7C7009307A0081CC17D55828023800F
:104AF000C5000545828001458280411122C42A8477
:104B00002E85B285368623AC014606C6EF30D034FA
:104B1000FD576317F500938781479C4391C31CC0E1
:104B2000B240224441018280411122C42A842E8550
:104B300023AC014606C6EF309028FD576317F500F9
:104B4000938781479C4391C31CC0B24022444101DA
:104B50008280011122CC1C49804906CE26CA4AC84F
:104B60004EC652C456C263C187127D141318240066
:104B700093894501338A0901130945014A9883271E
:104B80000A00032708008507B354F7026366F70697
:104B9000C1684E834A8E814E014FFD1811030326D2
:104BA000C3FF110E33771601418233079702330694
:104BB0009602769793560701B3771701B307FF4024
:104BC00036968326CEFF935E06013376160133F7C1
:104BD0001601BA97C18213D70741918EBA9613DF97
:104BE0000641B3F71701C206D58F232EFEFEE377E9
:104BF0006AFA83270800BDCBAA8AEFF06FCC63491D
:104C0000050441668504CA8501457D16910903A8FE
:104C1000C9FF98419105B376C800158DB376C700DA
:104C2000AA96935707011358080113D70641B38773
:104C30000741BA9713D50741F18EC207D58F23AE2E
:104C4000F5FEE3753AFD93172400CA9798431DC7F4
:104C50002685F2406244D2444249B249224A924AED
:104C6000056182808327080089E77D147118E36B52
:104C700009FF00C951B7984309E77D14F117E36CA8
:104C8000F9FE23A88A00E9B70145E1B775713ED85E
:104C90005C5122C526C34AC1CEDED2DCE2D406C7AF
:104CA000D6DADAD8DED6E6D2EAD0EECE36C23AC6C8
:104CB00046CAAA842E843289C2892E8A328C89EF10
:104CC0004145EF007046C8D023220500232405008B
:104CD0002320050023260500DC508C4389CDD843D2
:104CE00085472685B397E7009CC5D8C1EFE0FFEC68
:104CF000DC5023A00700635309048547131C1900E7
:104D000023A0F900135C1C00B707F07F3377FC0089
:104D10006314F70642578967320C9387F770135C68
:104D2000CC001CC3336C8C00E3010C32D24791EBF6
:104D300097C7FFFF938747D03EC039A823A009003B
:104D4000E1B797C7FFFF938727CF3EC097C7FFFF05
:104D50009387B7CE52471CC3BA402A4402459A44AF
:104D60000A49F659665AD65A465BB65B265C965C8B
:104D7000065DF64D49618280014681462285E285C5
:104D800022CE62D4EF10B02D05E1425785471CC3F7
:104D900097C7FFFF938787CA3EC0D247D5DF97C723
:104DA000FFFF9387B7C97DB7B800F4006286A2857C
:104DB000268513594C01EFF06FD21379F97FAA8938
:104DC000A64A630D0910A2577245130919C093959D
:104DD000C700B181B707F03FDD8D02DC97C7FFFF49
:104DE0009387C7C19043D443EF20400697C7FFFF86
:104DF000938747C19043D443EF10904197C7FFFF7B
:104E00009387C7C09043D443EF00F0722A8B4A8542
:104E1000AE8BEF20406F97C7FFFF9387A7BF9043EC
:104E2000D443EF10F03E2A86AE865A85DE85EF0029
:104E300090702A8BAE8BEF2000612A840146814658
:104E40005A85DE85EF109032635B05002285EF20E6
:104E5000806B5A86DE86EF10902011C17D140547C5
:104E6000D9473AD663E387021317340097C7FFFF89
:104E70009387C798BA979043D4437245A255EF10D1
:104E8000F02E635305007D1402D633892A41930B1B
:104E9000F9FF014B63D60B00054B330B2B41814BC4
:104EA000634E0406A29B22CC814A1247A54763E5C4
:104EB000E7149547854C63D6E7009307C7FF3EC2CA
:104EC000814C12478D47630EF71063CFE704894783
:104ED00002C8630DF70685473EC88DA03649930783
:104EE000000256991307294363D5E702130500040E
:104EF000198D930729413315AC003354F400418DCB
:104F0000EF202067B70710FEBE9585477D193EDC70
:104F1000F1B53385E7403315A400DDB7330B8B4083
:104F2000B30A804002CC51B712479147630EF70095
:104F300005473AC8124795476306F70AFD573EC42E
:104F4000FD5DC94702C619A885473EC8B2476348F8
:104F5000F00A854705473EC4854D3AC603A9440279
:104F6000114723220900930647018325490063FC6A
:104F7000D7082685EFE0BFBBDC502320A9009C4367
:104F80003EC0B94763E6B71D63840C1C635E800AAC
:104F90009377F40013973700935C444097C7FFFF63
:104FA0009387C785BA9793F60C0198430949DC4368
:104FB00085C697C6FFFF9386E68190527245D4520C
:104FC000A2553AD03ED2EF1020360257925793FCAA
:104FD000FC002A8A2E8C0D4917BDFFFF130D8D7F13
:104FE00089A802C8B247A2973EC4938D1700EE87E6
:104FF000E346B0F785479DB7854C02C2E9BDB2478D
:105000003EC4BE8DA1BF85052322B9000607A1BFFE
:1050100093F61C0081CE03260D0083264D003A85B1
:10502000BE85EF10F01E05092A87AE8793DC1C4071
:10503000210DE39F0CFC3A86BE865285E285EF1077
:10504000A02E2A8A2E8C81A0094915CCB30C804051
:1050500093F7FC001397370097B7FFFF9387077A02
:10506000BA979043D4437245A25593DC4C4017BD88
:10507000FFFF130D2D76EF10B0192A8A2E8C814771
:10508000639C0C12DDFFB2576387071417B7FFFF4D
:1050900013074762104354435285E28552D0EF1004
:1050A000F00C635A0512638B0D12A2476350F00A8D
:1050B00017C7FFFF130707818257104354433E85EC
:1050C000E285EF10F014A247130DF4FF2A8A2E8C0C
:1050D000050962874A853EDE52DABA8C3AD0EF2063
:1050E0008042525802573709C0FC4286BA86EF10F8
:1050F000301297C6FFFF938666929042D442528C3C
:10510000EF007043F2572A8A2E99E1EF97C7FFFF0D
:1051100093874791525802579043D4434285BA85AA
:10512000EF10D0525286CA862A8CAE8CEF10C0790E
:105130006346A054B7070080B3C727015286BE86D6
:105140006285E685EF10900263470552724A225C41
:10515000B64763C3073039476340873013173400BD
:1051600097B7FFFF93878769BA9703AB070083ABB5
:105170004700B24763DE071E634CB01F639D0D4EB0
:1051800097C7FFFF9387078A9043D4435A85DE85EC
:10519000EF1010085286E286EF100073814A014931
:1051A0006353054A824702470504138A1700930791
:1051B00010032300F70061A913F71C0009CB032695
:1051C0000D0083264D000509EF109004854793DC00
:1051D0001C40210D75B5228DEE87E5BD228D8147DE
:1051E000CDBD9386F7FF1396360097B6FFFF9386E3
:1051F000E660B2968842CC428246B6973EDAC24713
:10520000CDCF97B7FFFF9387674A2A86AE8688433C
:10521000CC434ADE52D0EF1020110258725717B912
:10522000FFFF1309296A4286BA86EF103042024A0C
:105230002AD02ED2E6856285EF20E0202ADEEF20FC
:10524000802C2A86AE866285E685EF103040F257C4
:1052500002569256050A93870703A30FFAFE2A8C7B
:10526000AE8CEF10A0706346050E97B7FFFF9387D3
:1052700067448843CC436286E686EF10303D025691
:105280009256EF10A06E63420518D257E300FAEC75
:10529000032609008326490002559255EF104077F6
:1052A00003260900832649002AD02ED26285E6858E
:1052B000EF1000762A8CAE8CB5BF5286CA86EF10EE
:1052C0002075525A02492AD02ED2E6856285EF20F7
:1052D00080172ADEEF2020232A86AE866285E685A7
:1052E000EF10D0367257D257050913070703A30FE3
:1052F000E9FE2A8CAE8C6312F90617B9FFFF130979
:10530000E93A032609008326490002559255EF0029
:1053100090222A86AE866285E685EF10E05A6346C3
:10532000A00E025692560325090083254900EF106E
:10533000F0312A86AE866285E685EF1020639307FA
:105340000003E35505E00347FAFF9306FAFF630401
:10535000F7006A8459A8368AFDB797B7FFFF93878D
:1053600067569043D443EF10A06A2A8CAE8CB1BF2D
:10537000E287BE8C8247528C97BAFFFF938A8A5489
:1053800013891700BE9D5A86DE866285E685EF008A
:10539000B079EF20400B2A8DEF20E0165A86DE868A
:1053A000EF1000672A86AE866285E685EF10102A28
:1053B00093070D03A30FF9FE2A86AE864A8A639EE1
:1053C0002D07EF0050175A86DE862A8CAE8CEF1020
:1053D000A04F634BA0025A86DE866285E685EF10F9
:1053E000004801E593771D0085E3CE852685EFE033
:1053F000CFFCC25723000A00050480C3D247E38DC7
:10540000079423A0470189BA228D1307900383468E
:10541000FAFF9307FAFF639AE6008246639DF6005F
:1054200013070003050D2380E60003C707000507E7
:105430002380E70039BF3E8AD9BF03A60A0083A6AE
:105440004A000509EF10C05C014681462A8CAE8CEB
:10545000EF10E0400DF951BF42476300071092463C
:1054600005476345D70C62579387374309E72647BB
:1054700093076003998F568DDA8C854526853E9B70
:10548000BE9BEFE0FF952A89635E9001635C70012B
:10549000E68763D39B01DE87330BFB40B38CFC4074
:1054A000B38BFB4063800A04C247C5CF6354A0039B
:1054B000CA856A862685EFE07FA84E86AA852A8956
:1054C0002685EFE09F932ACECE852685EFE0EFEE8E
:1054D000F247BE893386AA4111C6CE852685EFE004
:1054E000FFA5AA8985452685EFE09F8FE247AA8A16
:1054F000635BF0063E86AA852685EFE03FA412474F
:105500008547AA8A014D63C8E706014D63120A0662
:105510009317CC00528DA9EFB705F07F337CBC0008
:1055200063080C04050B850B054D99A0138DFDFF39
:1055300063CAAA01338DAA4163DE0D00B30CBB41DF
:10554000814725BFE247B30A5D41D6973ECCEA8A40
:10555000014DDDB7DA8CEE870DB7568DDA8C014937
:1055600025B756869DBF12478547014DE3DFE7F813
:10557000E247054589CF83A70A018D078A07D69799
:10558000C843EFE0EFFA930700023385A7405E952A
:105590007D8951C193070002898F1147635AF7062D
:1055A000F1473385A7402A9BAA9CAA9B63586001B8
:1055B000CE855A862685EFE0DFA3AA89635870015D
:1055C000D6855E862685EFE0DFA2AA8AB257B1C7EC
:1055D000D6854E85EFE0DFAE63510504CE8581466A
:1055E00029462685EFE0AFE1C2477D14AA89638C86
:1055F0000726CA85814629462685EFE04FE0A24767
:105600002A896345F0081247894763D1E70829A82A
:10561000E38EE7F83E85710579B76345B007124719
:10562000894763D1E7066EC4A24791EFD6858146CC
:1056300015462685EFE0AFDCAA8AAA854E85EFE005
:105640003FA8E341A0B6B247024A13C4F7FF014B9B
:10565000D6852685EFE06FD6E30909D863080B00ED
:1056600063062B01DA852685EFE02FD5CA852685CE
:10567000EFE0AFD49DBB814A0149F1B76A84814A0A
:1056800001490DB6C2476EC46386071E6358900178
:10569000CA8566862685EFE0DF952A894A856306F6
:1056A0000D02832549002685EFE06FC80326090116
:1056B0002A8B9305C90009060A063105EFE0CFC51C
:1056C0000546DA852685EFE0DF92824722474A8B3E
:1056D000138C1700BA973EC693771A002A893EC4E6
:1056E000D6854E85EFF0EFC6DA852A8D930D05033A
:1056F0004E85EFE0FF9C4A86AA8BD6852685EFE093
:105700005F9F5045930CFCFF2A8A054711E6AA8546
:105710004E85EFE0FF9A2A87D28526853AC8EFE0CA
:10572000CFC992474247628AB3E6E700A247DD8EBF
:1057300081EE130790036388ED0463547001930DA9
:105740001D032380BC0129B763CA0B009247B3EB4A
:105750007701A247B3EBFB0063950B04E353E0FE34
:10576000CE8505462685EFE0DF88D685AA89EFE05D
:105770003F956346A00071F513F71D0079D3130719
:105780009003E39EEDFA930790032380FC009306B9
:1057900090038347FAFF1307FAFF638CD708850746
:1057A00045A0635BE00013079003E38EEDFC938755
:1057B0001D002380FC0069BDB247A30FBCFF6381BD
:1057C0008705CE85814629462685EFE04FC3AA8905
:1057D00081462946DA85268563182B01EFE02FC222
:1057E0002A8B2A89050CEDBDEFE06FC1CA852A8B93
:1057F000814629462685EFE08FC02A89E5B7014B0F
:10580000CE8505462685EFE0CFFED685AA89EFE056
:105810003F8BE34EA0F601E593F71D00ADFB930728
:1058200000030347FAFF9306FAFFE313F7E2368A11
:10583000CDBF82476399E700024705049307100331
:105840002300F70031B53A8AA9B7524797B7FFFF4F
:105850009387C71D3EC097B7FFFF9387A71D631BA4
:1058600007CE6FF06FCFA2476346F000124789471B
:10587000E3CCE7DA024AD6854E85EFF08FAD82475A
:10588000050A930D05033307FA40A247A30FBAFF99
:10589000E357F7F6CE85814629462685EFE02FB6F9
:1058A000AA89D1BF411122C42A842E85B28523AC96
:1058B000014606C6EF20F051FD576317F5009387A8
:1058C00081479C4391C31CC0B24022444101828065
:1058D000411122C42A842E8523AC014606C6EF203E
:1058E0009050FD576317F500938781479C4391C300
:1058F0001CC0B240224441018280411122C42A844A
:105900002E85B285368623AC014606C6EF20304E82
:10591000FD576317F500938781479C4391C31CC0D3
:10592000B24022444101828097B7BF5F9387872BA3
:10593000AA8588436FE09FC993F5F50F2A966314F3
:10594000C5000145828083470500E38DB7FE05054C
:10595000FDB782808280797156CA9C49BA8A98457F
:1059600022D426D24ECE52CC06D64AD05AC85EC6D3
:10597000AA892E84B284368A63D3E700BA879CC092
:105980000347340419C385079CC01C4093F70702E2
:1059900081C79C4089079CC00329040013796900D2
:1059A000631A0900130B9401FD5B5C449840998FC6
:1059B000634CF9041C408346340493F70702B33662
:1059C000D000A5EB13063404D2854E85829AFD578C
:1059D0006303F5041C4011469840998B544481445C
:1059E0006397C700B384E64063D3040081441C443A
:1059F00018486354F700998FBE94014969047D5B90
:105A000063982405014509A885465A86D2854E85A6
:105A1000829A631E75017D55B250225492540259E8
:105A2000F249624AD24A424BB24B45618280050933
:105A3000ADBF3307D40013060003A301C704034717
:105A4000540493871600A2978906A381E7049DBF9B
:105A500085462286D2854E85829AE30E65FB05092E
:105A600045B7797122D426D24AD04ECE06D652CC32
:105A700056CA5AC8B68983C685019307E00632899B
:105A8000AA842E84138635046381F61E63E2D7064A
:105A9000930730066382F60A63EDD700638B061E18
:105AA000930780056387F616930A24042301D40420
:105AB00069A8930740066386F60093079006E3956E
:105AC000F6FE1C40084393F6070893054500C1C243
:105AD0001C410CC363D807001307D002B307F04082
:105AE000A301E40497B6FFFF938686F5294765A0D6
:105AF000930730076383F61A63EFD7009307F00626
:105B0000638FF60493070007E390F6FA9C4193E74E
:105B100007029CC109A8930750076382F604930704
:105B20008007E393F6F893078007A302F40497B67F
:105B3000FFFF938626F2E5A01C43938A25049386F3
