:0200000420409A
:100000009711C05F938101279702000093828201BC
:100010007390523093021000638402007350107C7E
:10002000970200009382C211739052301701C0DF13
:10003000130141FD63140100138101D0732540F1C8
:10004000814213030040137101FF6385A2001A91DE
:100050008502D5BF970000009380200863830000CD
:100060008290732540F181450146CD209700C0DF85
:10007000938040F96383000082909702000093828E
:10008000C2007390523003230000F5BF000000004F
:100090008280A14673B306309302400063C55500C9
:1000A0001376350011CA230005000505FD15E34749
:1000B000B0FE731003308280232005001105F11576
:1000C000E34EB0FC73100330828023200300110341
:1000D000E34D73FE828006849702C0DF938282F232
:1000E000638C02049702C0DF9382C2F1F32740F1D0
:1000F000A14673B006300A839703C0DF9383833031
:100100008A9363037300D137639857021703C05F64
:10011000130343EF9713C05F9383C39A6303730082
:100120006D371703C05F1303E3ED9703C05F93833D
:1001300063ED63037300513FA2808280F322203479
:1001400073231034F3233034D5BF82800684971193
:10015000C05F93812112930200006311550E9742F4
:1001600000009382A2CB1703C05F1303A3E9971388
:10017000C05F93832395638C6200635A730003A569
:10018000020091022320A3001103E34A73FE971299
:1001900000009382A2CC1703C05F1303A3E697036A
:1001A000C05F938323E6638C6200635A730003A5E8
:1001B000020091022320A3001103E34A73FE0F10F3
:1001C000000097120000938262C91703C05F1303F7
:1001D00063E39703C05F9383E3E2638C6200635A37
:1001E000730003A5020091022320A3001103E34A38
:1001F00073FE0F1000001713C05F1303A38C9383CB
:10020000418F63577300232003001103E34D73FEF6
:100210001712C05F1302028B11C20296172500004D
:100220001305A588EF101004EF10700B17250000C0
:100230001305E5AFEF101003EF10102F3937FD56FF
:1002400073B0463073B04634F327103037270400BC
:100250007D8F09C773B0363073B02630370704007E
:100260007D8F19C373B00618370701001307870283
:10027000F98F89CBF32700300967D98F7390073046
:1002800073503000F327103037072000F98F99C7DB
:10029000F327003093E70720739007300545970553
:1002A00000009385250F170600001306E60E312087
:1002B000EF10A07CA28082808280411106C2F322CE
:1002C00040F1130300006385620073005010F5BF16
:0A02D000EF00103B924041018280D4
:0C02E000EC0240200A034020FE024020F7
:1002EC00F1653715008093850520130505A56F1062
:1002FC00F02337050080130505096F30A008B725DA
:10030C00F4003705008093850540130505096F300F
:02031C001013BC
:1003200048656C6C6F2C20576F726C642100000064
:1003300000000000000000000000000000000000BD
:1003400000000000000000000000000000000000AD
:10035000000000000000000000000000000000009D
:10036000000000000000000000000000000000008D
:10037000000000000000000000000000000000007D
:10038000000000000000000000000000000000006D
:1003900098034020000000006C6962676C6F737303
:1003A00000000000BE1D4020981D4020801D402000
:1003B0000000000000000000C61F4020E41F402095
:1003C000B01E40207C1D4020621E4020141E402094
:1003D000000000000000000000000000000000001D
:1003E000000000000000000000000000000000000D
:1003F0003E1F4020501D4020000000000000000073
:1004000000000000000000007E21402090214020DC
:10041000B2214020D8224020E4214020EE2140207B
:10042000BE234020F2214020F621402026224020F9
:100430005622402086224020922340209C224020A9
:10044000AE224020B4224020BC2240203423402051
:10045000C8234020002D40200000000000000000C4
:100460000000000000000000382D402000000000C7
:100470007C2E4020802E4020000000000000000064
:10048000000000000000000000000000000000006C
:1004900000000000000000007A2140200000000061
:1004A000000000000000000000000000000000004C
:1004B000FE304020000000000000000000000000AE
:1004C000000000000000000000000000D22E4020CC
:1004D00000000000CE3140200E324020000000001D
:1004E000000000009A30402014304020AA2E402006
:1004F000842E4020000000000000000000000000EA
:10050000000000004E324020AE324020303040200B
:10051000B230402090334020E03340209E344020D1
:100520000100000020000000001BB70000366E0133
:10053000010000001F000000030000003F00000059
:10054000010000002000000000366E01006CDC029B
:10055000030000001F000000020000003F00000038
:100560000100000010000000808D5B00001BB70040
:10057000000000001F000000030000003F0000001A
:100580000100000010000000001BB70000366E01E3
:10059000010000001F000000020000003F000000FA
:1005A000010000001000000000366E01006CDC024B
:1005B000030000001F000000020000001F000000F8
:1005C0000100000008000000808D5B00001BB700E8
:1005D000000000001F000000030000001F000000DA
:1005E0000100000008000000001BB70000366E018B
:1005F000010000001F000000020000001F000000BA
:10060000010000000800000000366E01006CDC02F2
:10061000030000001F000000020000000F000000A7
:100620000100000004000000808D5B00001BB7008B
:10063000000000001F000000030000000F00000089
:100640000100000004000000001BB70000366E012E
:10065000010000001F000000020000000F00000069
:10066000010000000400000000366E01006CDC0296
:10067000030000001F00000002000000070000004F
:100680000100000002000000808D5B00001BB7002D
:10069000000000001F000000020000000F0000002A
:1006A0000100000002000000001BB70000366E01D0
:1006B000010000001F000000010000000F0000000A
:1006C000010000000200000000366E01006CDC0238
:1006D000030000001F0000000100000007000000F0
:1006E0000200000001000000808D5B00001BB700CD
:1006F000000000001F0000000100000007000000D3
:100700000200000001000000001BB70000366E016F
:10071000010000001F0000000100000003000000B5
:10072000020000000100000000366E01006CDC02D7
:10073000030000001F00000003000000FFFFFFFF98
:100740000400000001000000808D5B00001BB7006A
:10075000000000001F000000030000000000000077
:100760000400000001000000001BB70000366E010D
:10077000010000001F00000003000000FFFFFFFF5A
:10078000040000000100000000366E01006CDC0275
:10079000030000001F00000002000000FFFFFFFF39
:1007A0000600000001000000808D5B00AAC2A200CC
:1007B0000000000023000000010000000200000013
:1007C0000600000001000000AAC2A200001BB70042
:1007D000000000001700000003000000FFFFFFFF03
:1007E0000600000001000000001BB7000024F40018
:1007F000010000002F00000003000000FFFFFFFFCA
:1008000006000000010000000024F40080A812018E
:10081000010000001700000002000000FFFFFFFFC2
:10082000060000000100000080A812015585450166
:10083000020000002300000002000000FFFFFFFF95
:100840000800000001000000808D5B00001BB70065
:10085000000000001F00000003000000FFFFFFFF7A
:100860000800000001000000001BB70000366E0108
:10087000010000001F00000002000000FFFFFFFF5A
:10088000080000000100000000366E01006CDC0270
:10089000030000001F00000001000000FFFFFFFF39
:1008A0000A00000001000000808D5B00007C9200C7
:1008B000000000002700000003000000FFFFFFFF12
:1008C0000A00000001000000007C9200001BB7003D
:1008D000000000001300000002000000FFFFFFFF07
:1008E0000A00000001000000001BB70000F824010E
:1008F000010000002700000002000000FFFFFFFFD2
:100900000A0000000100000000F8240100366E011A
:10091000010000001300000001000000FFFFFFFFC6
:100920000A0000000100000000366E0100F04902DC
:10093000030000002700000001000000FFFFFFFF90
:100940000C00000001000000808D5B0000127A00A6
:10095000000000002F00000003000000FFFFFFFF69
:100960000C0000000100000000127A00001BB7001C
:10097000000000001700000002000000FFFFFFFF62
:100980000C00000001000000001BB7000024F40070
:10099000010000002F00000002000000FFFFFFFF29
:1009A0000C000000010000000024F40000366E017D
:1009B000010000001700000001000000FFFFFFFF22
:1009C0000C0000000100000000366E0180C3C90168
:1009D000030000002F00000001000000FFFFFFFFE8
:1009E0000C0000000100000080C3C9010048E801BC
:1009F000030000002F00000001000000FFFFFFFFC8
:100A00000E00000001000000808D5B00B6A16800B0
:100A1000000000003700000003000000FFFFFFFFA0
:100A20000E00000001000000B7A16800001BB70025
:100A3000000000001B00000002000000FFFFFFFF9D
:100A40000E00000001000000001BB7006D43D10044
:100A5000010000003700000002000000FFFFFFFF60
:100A60000E000000010000006E43D10000366E0150
:100A7000010000001B00000001000000FFFFFFFF5D
:100A80000E0000000100000000366E01DB86A201AE
:100A9000030000003700000001000000FFFFFFFF1F
:100AA0001000000001000000808D5B00001BB700FB
:100AB000000000001F00000002000000FFFFFFFF19
:100AC0001000000001000000001BB70000366E019E
:100AD000010000001F00000001000000FFFFFFFFF9
:100AE0001200000001000000808D5B00AAC2A2007D
:100AF000000000002300000002000000FFFFFFFFD5
:100B00001200000001000000ABC2A200001BB700F1
:100B1000000000001100000001000000FFFFFFFFC7
:100B20001200000001000000001BB70055854501C0
:100B3000010000002300000001000000FFFFFFFF94
:100B40001400000001000000808D5B00007C92001A
:100B5000000000002700000002000000FFFFFFFF70
:100B60001400000001000000007C9200001BB70090
:100B7000000000001300000001000000FFFFFFFF65
:100B80001400000001000000001BB70000F8240161
:100B9000010000002700000001000000FFFFFFFF30
:100BA0001600000001000000808D5B00E82A85002F
:100BB000000000002B00000002000000FFFFFFFF0C
:100BC0001600000001000000E92A8500001BB700A4
:100BD000000000001500000001000000FFFFFFFF03
:100BE0001600000001000000001BB700D1550A01EB
:100BF000010000002B00000001000000FFFFFFFFCC
:100C00001800000001000000808D5B0000127A00D7
:100C1000000000002F00000002000000FFFFFFFFA7
:100C2000180000000100000000127A00001BB7004D
:100C3000000000001700000001000000FFFFFFFFA0
:100C40001800000001000000001BB7000024F400A1
:100C5000010000002F00000001000000FFFFFFFF67
:100C60001A00000001000000808D5B0027AE7000BC
:100C7000000000003300000002000000FFFFFFFF43
:100C80001A0000000100000028AE7000001BB70031
:100C9000000000001900000001000000FFFFFFFF3E
:100CA0001A00000001000000001BB7006658E100B8
:100CB000010000003300000001000000FFFFFFFF03
:100CC0001C00000001000000808D5B00B6A16800E0
:100CD000000000003700000002000000FFFFFFFFDF
:100CE0001C00000001000000B7A16800001BB70055
:100CF000000000001B00000001000000FFFFFFFFDC
:100D00001C00000001000000001BB7006D43D10073
:100D1000010000003700000001000000FFFFFFFF9E
:100D20001E00000001000000808D5B0000A8610033
:100D3000000000003B00000002000000FFFFFFFF7A
:100D40001E0000000100000000A86100001BB700A9
:100D5000000000001D00000001000000FFFFFFFF79
:100D60001E00000001000000001BB7000050C3007F
:100D7000010000003B00000001000000FFFFFFFF3A
:100D80002000000001000000808D5B00001BB70008
:100D9000000000001F00000001000000FFFFFFFF37
:100DA000B4374020D2374020E2374020DC374020A3
:100DB00004384020EA374020FE374020F2374020F8
:100DC00030384020403840203A38402062384020B7
:100DD000483840205C38402050384020923640202F
:100DE0007A364020AE364020C2364020D6364020EB
:100DF000F23640200A374020223740203E3740203C
:100E00005637402074374020903740200A38402021
:100E10006A38402080384020763B4020483A4020C5
:100E2000AE3940207A3A40209E3A4020A23A4020F3
:100E30000C394020263940203A394020583940208A
:100E40007439402092394020C8394020EC39402084
:080E5000083A40202C3A402032
:100E80003705402041111305053206C6D520B24072
:100E9000014541018280011126CA4AC806CE22CCF2
:100EA0004EC652C4AA842E8901C51C4D91E311235C
:100EB0009C4C804499E32685ED2997F7FFFF9387A3
:100EC0006749631CF402C0408357C400A18BB1C7BB
:100ED0001C48A1C7FD59294A1C4483450900FD1738
:100EE000B1E91CC463DE07062286A9452685412890
:100EF000FD576308F502294535A097F7FFFF938753
:100F000067476314F4008044C1B797F7FFFF9387E6
:100F10006742E31BF4FAC04445BFA285268505223B
:100F200055D97D55F2406244D2444249B249224AE1
:100F3000056182801CC4050963D70700184C63CB88
:100F4000E700638945011C401387170018C0238000
:100F5000B70059B7228626851D20E31F35F7D1B784
:100F60001C401387170018C029472380E70061B78A
:100F70009707C05F938707B0AA85884329BF0111EF
:100F800022CC26CA4AC806CE4EC6AA842E893284EE
:100F900001C51C4D91E3312997F7FFFF9387873BEC
:100FA0006319F406C0401C4C1CC48357C400A18BB9
:100FB000C9C31C48BDCF1C4808409379F90F137969
:100FC000F90F1D8D5C486346F500A2852685E9244E
:100FD0002DE51C440505FD171CC41C401387170094
:100FE00018C0238037015C486389A7008357C40079
:100FF000858B81CBA9476316F900A2852685692CCC
:101000000DEDF24062444A85D2444249B24905613D
:10101000828097F7FFFF9387E7356314F4008044DD
:1010200059B797F7FFFF9387E730E31EF4F6C04404
:101030009DBFA285268521203DDD7D59D9B741116F
:101040009707C05F938707A326C2844322C44AC080
:1010500006C62A892E8489C49C4C99E32685912E44
:1010600097F7FFFF9387072F631CF402C040031715
:10107000C40093170701C18393F68700B5EE93F67A
:1010800007019DEEA5472320F900136707042316E7
:10109000E4007D55B24022449244024941018280DD
:1010A00097F7FFFF9387072D6314F4008044C1B7BF
:1010B00097F7FFFF93870728E31BF4FAC04445BF67
:1010C000918B8DC74C5889C9930744046384F500FC
:1010D0004A85A12B232A04028357C400232204003B
:1010E00093F7B7FD2316F4001C481CC08357C400B7
:1010F00093E787002316F4001C4881EF8357C40050
:101100001307002093F707286385E700A2854A8527
:10111000BD218357C40013F7170005C75C4823247B
:101120000400B307F0401CCC1C480145A5F7831709
:10113000C40013F7070839DF93E707042316F40008
:1011400089BF898B014791E3584818C4F1BF83D701
:10115000C500011122CC26CA06CE4AC84EC613F7D6
:101160008700AA842E8465E7D8416347E000B84130
:101170006344E0000145C1A058546DDF03A9040099
:101180009396370123A0040063DE06066848835760
:10119000C400918B99C75C401D8D5C5899C33C403D
:1011A0001D8D5C540C502A86814626858297FD57FA
:1011B0000357C400631DF5009440F54763E4D70866
:1011C000B70740208507B3D7D700858BA5CF1C482C
:1011D000232204001CC09317370163D80700FD5772
:1011E0006314F5009C4091E368C84C5823A0240187
:1011F000D1D1930744046384F50026853D21232A39
:1012000004028DBF0C508546014626850297FD5786
:10121000E31FF5F69C40A5DF75476385E700594756
:101220006395E70023A02401B1B78357C40093E777
:1012300007042316F400F2406244D2444249B24902
:1012400005618280136707042316E400EDB783A9C4
:101250000501E38109F203A905008D8B23A0350167
:1012600033093941014791E3D84918C4E35420F1C7
:101270001C540C50CA864E8626858297634AA0006D
:101280008357C4007D5593E707042316F40065B720
:10129000AA993309A940D9BF9C49B9CF011122CCE1
:1012A00006CE2A8411C51C4D81E72EC61922B245EF
:1012B00097F7FFFF9387070A639BF5004C408397DE
:1012C000C50095C722856244F240056149B597F78C
:1012D000FFFF9387270A6394F5000C44CDB797F777
:1012E000FFFF93872705E39CF5FC4C44C9BFF24000
:1012F000624401450561828001458280411122C41A
:1013000006C62A842316B5002317C500232005002E
:101310002322050023240500232205062328050097
:10132000232A0500232C0500214681451305C50508
:10133000ED24970700009387A74A5CD09707000029
:101340009387074D1CD497070000938747515CD4BF
:10135000970700009387075400D01CD8B24022445E
:101360004101828097050000938545F3B9A24111A0
:1013700026C2130680069384F5FFB384C4024AC0D4
:101380002E8922C406C693854407B1262A8419C92A
:101390002320050023222501310508C41386840675
:1013A0008145A52C2285B240224492440249410144
:1013B00082801C4DBDE3411106C622C49707000080
:1013C000938787FA1CD597F7BF5F9387E76A9C439B
:1013D0002324050423260504232805046314F500AB
:1013E00085471CCD2A841D2848C02285052808C4AD
:1013F00022852D2048C448400146914501370844C4
:101400000546A545E53D48440946C945C53D8547CE
:101410001CCCB2402244410182808280411197F766
:10142000BF5F9387676526C284434AC006C69C4C4B
:1014300022C42A8999E32685AD3F9384840480449D
:10144000DC40FD1763D607009C40B1CF8440C5BF88
:101450000317C40031E7C177850723220406232040
:10146000040023220400232404005CC42328040075
:10147000232A0400232C0400214681451305C405BA
:10148000692A232A0402232C040223240404232689
:1014900004042285B24022449244024941018280E0
:1014A0001304840679BF91454A85D13588C02A84C2
:1014B00051FDB1472320F900E9BF797122D44AD008
:1014C00052CC56CA5AC85EC606D626D24ECE2A8AF4
:1014D000AE8A130485040149054BFD5B09ECB2504B
:1014E00022544A8592540259F249624AD24A424BE6
:1014F000B24B45618280044483294400FD1963D4C2
:1015000009000040E1BF83D7C400637BFB008397E1
:10151000E40063877701A6855285829A3369A90022
:1015200093848406E1BF1971A6DAAE848395E50041
:10153000A2DC86DE328463DC050083D7C40023A0EE
:10154000060093F707089DE39307004015A03008B5
:1015500036C6612EB246E34205FE7247BD67F98F7B
:101560007977BA9793B717009CC2F9BF9307000425
:101570001CC0F6506654D65401450961828083D759
:10158000C500011122CC06CE26CA4AC8898B2E84FA
:1015900089CF930774041CC01CC885475CC8F240FF
:1015A0006244D24442490561828074003000AA84BA
:1015B0009D3FA2452A892685392A01ED8317C4005B
:1015C00013F7072069FFF19B93E727002316F40028
:1015D000C9B797070000938727D99CD48357C400C5
:1015E00008C008C893E707082316F400A2475CC8A0
:1015F000B24789CF8315E4002685292E01C9835778
:10160000C400F19B93E717002316F4008357C4002E
:101610003369F9002316240159B72A8311C6230020
:10162000B3007D16050365FE8280CDC583A7C5FF87
:10163000411122C406C626C21384C5FF63D3070026
:101640003E94AA84152697F7BF5F9387A7479C43CC
:1016500089EF2322040097F7BF5F23A58746224422
:10166000B24026859244410109A6637EF4001440ED
:101670003307D4006396E7009843DC43369718C0DD
:101680005CC0D1BFBA87D84319C3E37DE4FE94435D
:101690003386D700631F86001040B29694C333860A
:1016A000D700E31EC7FA10435843B29694C3D8C379
:1016B0007DB76375C400B1479CC055B71040B306F1
:1016C000C4006316D70014435843B29614C058C0E0
:1016D000C0C371B78280011126CA93843500F19886
:1016E00006CE22CC4AC84EC6A104B14763F7F40423
:1016F000B14463E6B4042A89852C97F7BF5F9387CA
:10170000673C98433A8431E497F7BF5F9387C73BC0
:101710009C4381EB81454A85712897F7BF5F23A5DC
:10172000A73AA6854A857920FD5963193507B1473F
:101730002320F9004A85152C29A0E3DC04FAB147DF
:101740001CC10145F2406244D2444249B24905619C
:1017500082801C40858F63C00704AD4663F6F600A7
:101760001CC03E9404C001A85C406314870217F7B4
:10177000BF5F2329F7344A85CD2A1305B4009307A8
:10178000440061993307F54055DF3A94898F1CC0B6
:1017900055BF5CC3CDB722874040B5B713043500B1
:1017A0007198E30185FCB305A4404A852120E31B21
:1017B00035FBB5BF411122C42A842E8523A8018E92
:1017C00006C63D24FD576317F5009387018F9C43A0
:1017D00091C31CC0B240224441018280411122C405
:1017E0002E848395E50006C65122634905007C4896
:1017F000AA977CC8B2402244410182808357C4002A
:101800007D777D17F98F2316F400EDB783D7C500D8
:10181000011122CC26CA4AC84EC606CE93F707103D
:10182000AA842E843289B68991C78395E5008946BA
:10183000014629228357C4007D777D17F98F23162F
:10184000F4008315E4006244F240CE864A86B24931
:1018500042492685D24405613DA8411122C42E8407
:101860008395E50006C6D928FD570357C400631BBE
:10187000F500FD77FD17F98F2316F400B2402244DE
:10188000410182808567D98F2316F40068C8FDB7AF
:101890008395E5003DA0411122C42A842E85B2859E
:1018A000368623A8018E06C64922FD576317F50028
:1018B0009387018F9C4391C31CC0B24022444101D5
:1018C0008280411122C42A842E8523A8018E06C657
:1018D000E120FD576317F5009387018F9C4391C367
:1018E0001CC0B240224441018280411122C42A849A
:1018F0002E85B28523A8018E06C64D28FD57631795
:10190000F5009387018F9C4391C31CC0B2402244D1
:1019100041018280411122C42A842E8523A8018E90
:1019200006C67928FD576317F5009387018F9C43FE
:1019300091C31CC0B240224441018280411122C4A3
:101940002A842E85B285368623A8018E06C6AD2848
:10195000FD576317F5009387018F9C4391C31CC00B
:10196000B24022444101828082808280411122C49F
:101970002A842E85B285368623A8018E06C6B9280C
:10198000FD576317F5009387018F9C4391C31CC0DB
:10199000B240224441018280411106C6C928B240AA
:1019A000930780051CC17D5541018280411106C607
:1019B0007D28B240930780FA1CC17D554101828089
:1019C0007D15133515008280411106C64D20B240A9
:1019D000930780051CC17D5541018280411106C6D7
:1019E0007920B240930780051CC17D55410182805A
:1019F000411106C622C4938701D013870150638426
:101A0000E702938781808043B306A40063FCE6006D
:101A1000AA85228594C3EFE0CFE72285B240224415
:101A20004101828098C37D54CDBF411106C622C4B6
:101A300026C285476319F5002E84B384C500631E52
:101A40009400014531A02520930780051CC17D55D8
:101A5000B2402244924441018280034504000504BF
:101A6000F124F1BFAA85814601460145F1A897F707
:101A7000BF5F9387270088438280411122C406C636
:101A800097070000938707152A8499C38145892207
:101A900097F7BF5F938747FE88431C5591C3829792
:101AA0002285EF20A036411197F7FFFF93878784A7
:101AB00022C417F4FFFF1304E4831D8C26C206C65C
:101AC0000984BE8411E4B2402244924441018280E0
:101AD0007D1493172400A6979C438297E5B7411184
:101AE00097F7FFFF9387078022C417E4FFFF1304D3
:101AF000647F1D8C26C24AC006C6098481443E8983
:101B00006396840297E7FFFF9387C77D17E4FFFF83
:101B10001304447D1D8C098481443E89639F8400A5
:101B2000B2402244924402494101828093972400AA
:101B3000CA979C4385048297E1B793972400CA977C
:101B40009C4385048297D9BF97F7BF5F938707F8B7
:101B50009C432A8E9DE317F7BF5F1307E7F797F7BC
:101B6000BF5F23A5E7F617E5BFDF1305A549BA87D1
:101B700009C51C4123A6F18EBA87D8437D487D55FF
:101B80006347E804630E0E0203A887086301080494
:101B900093182700C29823A0C80003230810054605
:101BA0003316E6003363C3002320681023A0D8084F
:101BB00089466317DE0083264810558E2322C810FD
:101BC000930617000A07D4C3BA978CC701458280D1
:101BD000797152CC56CA5AC85EC606D622D426D2CD
:101BE0004AD04ECE62C42A8B2E8A97FABF5F938A60
:101BF000EAED854B03A40A0011C8444083298408F8
:101C00001389F4FF8A04A294635E0900B25022543F
:101C100092540259F249624AD24A424BB24B224C88
:101C200045618280630E0A00639509007D19F114F5
:101C3000E1BF93172900CE9783A70708E39847FFD2
:101C40005840DC407D176318270323222401F9DF65
:101C5000032C44006388090083A6091033972B01E5
:101C6000F98E89EE8297584083A70A00E31487F91A
:101C7000E30EF4FA41B723A20400D1BF9316290062
:101C8000CE968C4283A64910758F01E75A858297BC
:101C9000D9BF2E858297C1BFB7170080938707AD44
:101CA000984315EF411122C426C23704402006C6CE
:101CB0000547B704402098C39384C42E9307042E8D
:101CC0001304042E63EA9700B24022449244410177
:101CD00082801C4011048297E31D94FEF5B7828038
:101CE000B71700809387C7AC984315EF411122C402
:101CF00026C23704402006C60547B704402098C3D3
:101D00009384042F9307042F1304042F63EA97008E
:101D1000B24022449244410182801C4011048297C7
:101D2000E31D94FEF5B7828085BF5DBFAA85371598
:101D30000080130505A529A01C4103A30700028309
:101D40001C4103A3470002831C4103A347010283F4
:101D5000B71700809387C7A7370700026383A700E0
:101D600001478E05BA95116793074700AE977D55D9
:101D700088C3BA9590C194C3014582807D55828005
:101D80006F003076411106C6732540F1EF10306FB9
:101D9000B24041016F10306E011106CE2EC6DD3704
:101DA00019C9B24505476368B7001C41F24003A357
:101DB000470005610283F2407D5505618280011173
:101DC000B71700804AC806CE22CC26CA4EC69387D3
:101DD000C7A701496313F5000949444181E82A84F2
:101DE000B7090080639B240185475CC0F2406244D0
:101DF000D2444249B249056182808D4591C09D45DA
:101E000083A7890AA2860146DC4F1385890A8504C7
:101E10008297C9BFA9C5011122CC2EC606CE2A843D
:101E20009537B71700809387C7A7B2456314F402AC
:101E3000B70700809387870A631EF50093F7B5FF05
:101E40008D466399D7001C416244F24003A3870288
:101E500005610283F24062447D55056182807D55B3
:101E60008280A9C5011122CC2EC606CE2A84193F34
:101E7000B71700809387C7A7B2456314F402B7076A
:101E800000809387870A631EF50093F7B5FF8D46A0
:101E90006399D7001C416244F24003A347020561E5
:101EA0000283F24062447D55056182807D558280C7
:101EB00001112EC632C436C206CE22CC26CAAA844E
:101EC000EF0030622A847D3DB71700809387C7A753
:101ED00092462246B2456395F400854763F8870031
:101EE000F2406244D2447D5505618280B70700808C
:101EF0009387870A2A87E315F5FE93F7B5FF0D4808
:101F0000E39007FF1C436244F240D24403A3C7019D
:101F100005610283371700801307C7A7B7070002C0
:101F20006303A7008147B1661387C6FFE1163E979A
:101F3000B697144388430C43E39DD5FE8280B717C0
:101F400000809387C7A701476314F5003707000295
:101F500089476386F50463C8B70085476382F50245
:101F6000FD573E8582808D476384F5049147E39950
:101F7000F5FE81477DD61C428A07BA979C43D5B7A8
:101F8000FD5765D2411122C406C63284613708C0AC
:101F90004CC0B240224481473E8541018280FD57BA
:101FA00069D21C428A07BA9723A00700814755BF10
:101FB000FD5745DA1C428A07BA97054798C30F00B8
:101FC00080049C43E5B7011106CE22CC2A84EF1091
:101FD000D04B2AC67000228589459537F24062446D
:101FE00005618280011106CE22CC2A84EF10F049CF
:101FF0002AC6700022858D459937F24062440561FA
:102000008280AA85F32740F11397270093874182A6
:10201000BA978843F32720340DC593F7F73F13870A
:1020200041819387870E631BE500370700808A078D
:102030001307870ABA9703A3070002838A079C4302
:1020400002908280828000000000000000000000FA
:102050000000000000000000000000000000000080
:102060000000000000000000000000000000000070
:102070000000000000000000000000000000000060
:10208000397106DE16DC1ADA1ED82AD62ED432D2E0
:1020900036D03ACE3ECC42CA46C872C676C47AC260
:1020A0007EC0F32740F11397270093874182BA97A8
:1020B000944373262034F3271034F32730347327E6
:1020C00050308DC6938741816385F604814713752F
:1020D000F63F635D0606930600086311D50403A767
:1020E000073983A58739130500080297F250E25299
:1020F0005253C2533255A255125682567247E24786
:102100005248C248324EA24E124F824F2161730094
:102110002030B70700809387870A55BFAD4663D547
:10212000A6001377F70311EB61473307E502BA976F
:1021300003A7070983A587094DBF8946E318D7FA86
:1021400073277030184383A5C70D45B71307850E55
:102150000A07BA979C43AA853685829741BF00003B
:10216000000000000000000000000000000000006F
:102170000000000000000000000001458280F325FF
:1021800000B8732500B0F32700B8E39AF5FE82800B
:1021900011CD938741816306F50001459355F541C3
:1021A000828037450F0013050524CDBF01458145C9
:1021B00082800111814701483EC406CE42C6938702
:1021C0004181639CA700B707008003A5471E11C586
:1021D0001C4130008545FC478297F2402245B245BC
:1021E00005618280371500801305C5A782801D45D3
:1021F00082800D458280011106CE2EC693874181D3
:102200006391A702B707008083A747187D5599C738
:10221000984370008D4578473E850297F2400561EE
:1022200082807D55E5BF011106CE2EC69387418180
:102230006391A702B707008083A747187D5599C708
:1022400098437000894578473E850297F2400561C2
:1022500082807D55E5BF011106CE2EC69387418150
:102260006391A702B707008083A74718014599C764
:1022700098437000914578473E850297F24005618A
:1022800082800145E5BF938741816384A7000145B2
:102290008280370500801305850A828083D7050078
:1022A0000D4711458D8B6383E700094582807325B7
:1022B00010348280739015340145828001458280FC
:1022C00041111305400606C6EF10901C411113057D
:1022D000800C06C6EF10D01B93874181B2862E86F4
:1022E000639CA700B707008003A5471E11C51C41CA
:1022F000814503A3070502837D558280411106C6EF
:1023000022C4F32740F101446348F00013972700EB
:1023100093874182BA9780432285613D9307A50048
:1023200033B5A7003306B50022852244B240BE85EE
:1023300041015DB75C41A9EF930705091307053912
:1023400023A0070023A2070023A40700E107E399C5
:10235000E7FE372740209307053A9306053D13070C
:10236000072C98C39107E39EF6FE73275030B707FA
:1023700040209387C713631BF700F3275030B7271C
:10238000402093870708F19B7390573085475CC1C5
:102390008280938741816392A702AD477D5563CFC9
:1023A000B70009CEB70700809385850E9387870A0B
:1023B0008A05BE9590C1014582807D558280371582
:1023C00000801305C5A7828081EDF3275030B72721
:1023D000402093870708F19B739057300145828016
:1023E00085477D55E39DF5FEF3275030B7474020E4
:1023F000938707D093E71700C5B7732540F1828014
:1024000039712AD61305C01206DE16DC1ADA1ED878
:102410002ED432D236D03ACE3ECC42CA46C872C64C
:1024200076C47AC27EC0EF10B006397106DE16DCC3
:102430001ADA1ED82AD62ED432D236D03ACE3ECC94
:1024400042CA46C872C676C47AC27EC0F32740F13B
:102450001397270093874182BA97984319CF9387A0
:102460004181631FF702B70700809387870A03A79C
:10247000870D83A5070E0D450297F250E252525385
:10248000C2533255A255125682567247E2475248FD
:10249000C248324EA24E124F824F2161730020304B
:1024A0008327000E0290397106DE16DC1ADA1ED878
:1024B0002AD62ED432D236D03ACE3ECC42CA46C8E4
:1024C00072C676C47AC27EC0F32740F11397270004
:1024D00093874182BA97984319CF93874181631FAD
:1024E000F702B70700809387870A03A7871383A59E
:1024F00007141D450297F250E2525253C25332550F
:10250000A255125682567247E2475248C248324E8E
:10251000A24E124F824F2161730020308327001496
:102520000290397106DE16DC1ADA1ED82AD62ED4AD
:1025300032D236D03ACE3ECC42CA46C872C676C4F3
:102540007AC27EC0F32740F1139727009387418218
:10255000BA97984319CF93874181631FF702B70752
:1025600000809387870A03A7072183A58721414518
:102570000297F250E2525253C2533255A2551256AC
:1025800082567247E2475248C248324EA24E124F1C
:10259000824F21617300203083278021029039719E
:1025A00006DE16DC1ADA1ED82AD62ED432D236D05F
:1025B0003ACE3ECC42CA46C872C676C47AC27EC003
:1025C000F32740F11397270093874182BA979843E6
:1025D00019CF93874181631FF702B7070080938764
:1025E000870A03A7872283A5072345450297F25050
:1025F000E2525253C2533255A25512568256724776
:10260000E2475248C248324EA24E124F824F2161D9
:1026100073002030832700230290397106DE16DC18
:102620001ADA1ED82AD62ED432D236D03ACE3ECCA2
:1026300042CA46C872C676C47AC27EC0F32740F149
:102640001397270093874182BA97984319CF9387AE
:102650004181631FF702B70700809387870A03A7AA
:10266000072483A5872449450297F250E25252532A
:10267000C2533255A255125682567247E24752480B
:10268000C248324EA24E124F824F21617300203059
:10269000832780240290397106DE16DC1ADA1ED8F0
:1026A0002AD62ED432D236D03ACE3ECC42CA46C8F2
:1026B00072C676C47AC27EC0F32740F11397270012
:1026C00093874182BA97984319CF93874181631FBB
:1026D000F702B70700809387870A03A7872583A59A
:1026E00007264D450297F250E2525253C2533255DB
:1026F000A255125682567247E2475248C248324E9D
:10270000A24E124F824F2161730020308327002692
:102710000290397106DE16DC1ADA1ED82AD62ED4BB
:1027200032D236D03ACE3ECC42CA46C872C676C401
:102730007AC27EC0F32740F1139727009387418226
:10274000BA97984319CF93874181631FF702B70760
:1027500000809387870A03A7072783A5872751450A
:102760000297F250E2525253C2533255A2551256BA
:1027700082567247E2475248C248324EA24E124F2A
:10278000824F2161730020308327802702903971A6
:1027900006DE16DC1ADA1ED82AD62ED432D236D06D
:1027A0003ACE3ECC42CA46C872C676C47AC27EC011
:1027B000F32740F11397270093874182BA979843F4
:1027C00019CF93874181631FF702B7070080938772
:1027D000870A03A7872883A5072955450297F25042
:1027E000E2525253C2533255A25512568256724784
:1027F000E2475248C248324EA24E124F824F2161E8
:1028000073002030832700290290397106DE16DC20
:102810001ADA1ED82AD62ED432D236D03ACE3ECCB0
:1028200042CA46C872C676C47AC27EC0F32740F157
:102830001397270093874182BA97984319CF9387BC
:102840004181631FF702B70700809387870A03A7B8
:10285000072A83A5872A59450297F250E25252531C
:10286000C2533255A255125682567247E247524819
:10287000C248324EA24E124F824F21617300203067
:102880008327802A0290397106DE16DC1ADA1ED8F8
:102890002AD62ED432D236D03ACE3ECC42CA46C800
:1028A00072C676C47AC27EC0F32740F11397270020
:1028B00093874182BA97984319CF93874181631FC9
:1028C000F702B70700809387870A03A7872B83A5A2
:1028D000072C5D450297F250E2525253C2533255D3
:1028E000A255125682567247E2475248C248324EAB
:1028F000A24E124F824F2161730020308327002C9B
:102900000290397106DE16DC1ADA1ED82AD62ED4C9
:1029100032D236D03ACE3ECC42CA46C872C676C40F
:102920007AC27EC0F32740F1139727009387418234
:10293000BA97984319CF93874181631FF702B7076E
:1029400000809387870A03A7072D83A5872D6145FC
:102950000297F250E2525253C2533255A2551256C8
:1029600082567247E2475248C248324EA24E124F38
:10297000824F2161730020308327802D02903971AE
:1029800006DE16DC1ADA1ED82AD62ED432D236D07B
:102990003ACE3ECC42CA46C872C676C47AC27EC01F
:1029A000F32740F11397270093874182BA97984302
:1029B00019CF93874181631FF702B7070080938780
:1029C000870A03A7872E83A5072F65450297F25034
:1029D000E2525253C2533255A25512568256724792
:1029E000E2475248C248324EA24E124F824F2161F6
:1029F000730020308327002F0290397106DE16DC29
:102A00001ADA1ED82AD62ED432D236D03ACE3ECCBE
:102A100042CA46C872C676C47AC27EC0F32740F165
:102A20001397270093874182BA97984319CF9387CA
:102A30004181631FF702B70700809387870A03A7C6
:102A4000073083A5873069450297F250E25252530E
:102A5000C2533255A255125682567247E247524827
:102A6000C248324EA24E124F824F21617300203075
:102A7000832780300290397106DE16DC1ADA1ED800
:102A80002AD62ED432D236D03ACE3ECC42CA46C80E
:102A900072C676C47AC27EC0F32740F1139727002E
:102AA00093874182BA97984319CF93874181631FD7
:102AB000F702B70700809387870A03A7873183A5AA
:102AC00007326D450297F250E2525253C2533255CB
:102AD000A255125682567247E2475248C248324EB9
:102AE000A24E124F824F21617300203083270032A3
:102AF0000290397106DE16DC1ADA1ED82AD62ED4D8
:102B000032D236D03ACE3ECC42CA46C872C676C41D
:102B10007AC27EC0F32740F1139727009387418242
:102B2000BA97984319CF93874181631FF702B7077C
:102B300000809387870A03A7073383A587337145EE
:102B40000297F250E2525253C2533255A2551256D6
:102B500082567247E2475248C248324EA24E124F46
:102B6000824F2161730020308327803302903971B6
:102B700006DE16DC1ADA1ED82AD62ED432D236D089
:102B80003ACE3ECC42CA46C872C676C47AC27EC02D
:102B9000F32740F11397270093874182BA97984310
:102BA00019CF93874181631FF702B707008093878E
:102BB000870A03A7873483A5073575450297F25026
:102BC000E2525253C2533255A255125682567247A0
:102BD000E2475248C248324EA24E124F824F216104
:102BE00073002030832700350290397106DE16DC31
:102BF0001ADA1ED82AD62ED432D236D03ACE3ECCCD
:102C000042CA46C872C676C47AC27EC0F32740F173
:102C10001397270093874182BA97984319CF9387D8
:102C20004181631FF702B70700809387870A03A7D4
:102C3000073683A5873679450297F250E252525300
:102C4000C2533255A255125682567247E247524835
:102C5000C248324EA24E124F824F21617300203083
:102C6000832780360290397106DE16DC1ADA1ED808
:102C70002AD62ED432D236D03ACE3ECC42CA46C81C
:102C800072C676C47AC27EC0F32740F1139727003C
:102C900093874182BA97984319CF93874181631FE5
:102CA000F702B70700809387870A03A7873783A5B2
:102CB00007387D450297F250E2525253C2533255C3
:102CC000A255125682567247E2475248C248324EC7
:102CD000A24E124F824F21617300203083270038AB
:102CE0000290F327503093F7F703FD17094701458A
:102CF0006367F70013878182BA9703C50700828054
:102D0000CDB7AD476308F50263CBA7000D478547F4
:102D10006305E5006515933715003E8582804147C0
:102D20008147E34CE5FE7D478547E358A7FE130541
:102D300005F8D5B78547D5B7011122CC2A842E8551
:102D400026CA4AC84EC606CEAE84B2893689553FD9
:102D5000D55701C993070008639AF4085937CD572E
:102D60002DCDF2406244D2444249B2493E850561CC
:102D7000828023283439232C243909A8E145B384DF
:102D8000B402269423283409232C24098147D1BF77
:102D9000138704FFBD46D157E3E5E6FCE145B38464
:102DA000B402B72740209387C72C26942328F40821
:102DB000232A2409E1BFB727402093872700232C2B
:102DC000F40C232E240DD9B7B72740209387C72FA3
:102DD000232CF412232E241355BFE39C09F8B727A4
:102DE0004020938747042328F43871B7E39809F803
:102DF000AD47E385F4FAE3CD97F88D47E38DF4FA18
:102E00009D47E383F4FCD157A9BF11C99D47638A4D
:102E1000F50463E8B7009DC58D47638FF5027D56C5
:102E200015A8AD476382F504E3EBF5FE938705FF34
:102E30003D47E366F7FE8547B395B7000DCEF3A592
:102E4000453029A0A14709C6F3A70730014619A0BC
:102E5000F3B7073032858280A14719CAF3A74730FC
:102E6000F5B793070008D5BF856793870780F5B747
:102E7000F3B74730C5B7F3B54530E9BF054671B77D
:102E8000014661B7B707008093878747639DA70016
:102E900099477D5563EAC700B707000C8A05BE95C0
:102EA00090C1014582807D558280B707008093875D
:102EB00087476387A70081478A05BE95884182803E
:102EC000B707000CD5BF41111305C01206C6EF00AD
:102ED000305C0111B707008022CC06CE26CA4AC852
:102EE0004EC652C4938787472A8401476314F5006E
:102EF000130750037D5563D5E502B689328AAE8447
:102F00001399250015C622850946AD3FE145B384D6
:102F1000B40222992324490126942328340F014521
:102F2000F2406244D2444249B249224A0561828059
:102F300022850546813FE145B384B402B73740207E
:102F40002299938767EC2324F90026942326340FD3
:102F5000F9B7B70700809387874701476394A700B5
:102F60003707000CB70720009107B205BE95BA9548
:102F700088418280B7070080938787473707000C16
:102F80006383A7000147B7072000B2059107BE95EC
:102F9000BA9590C18280011106CE22CC26CA2E8419
:102FA000EFF0AFC53335A000B304A040A68522855D
:102FB0004D37B7070080938787472A866314F4024A
:102FC0009307400363E0A70293172500A297984751
:102FD00011CBE147B307F5022AC6A29783A5070FD5
:102FE0000297324622856244F240A685D2440561AA
:102FF00051B7B7070080938787473707000C638373
:10300000A7000147B7072000B205BE95BA9590C149
:1030100001458280011122CC06CE2A842EC6EFF013
:10302000CFBDAA85228562443246F2400561D1B700
:10303000011122CC26CA4AC84EC652C406CEAA895D
:10304000328A2E8981440144631B0900F2406244A4
:1030500026854249D244B249224A0561828009C884
:103060005286A2854E857137058933158500C98C36
:10307000050413591900C9BFB70700809387874714
:10308000638AA700814737072000B205BA95BE952D
:1030900088418280B707000CFDB7411122C406C6E3
:1030A0002A84EFF08FB5AA8522852244B2404101DF
:1030B000E1B7411106C6C937B240014541018280DE
:1030C00037070080130787473708000C6303A70002
:1030D0000148135756400A0793977500BA97096736
:1030E000BA97C2978C4305473316C70089C64D8EE1
:1030F00090C3014582801346F6FF6D8ED5BF011146
:1031000026CA444106CE22CC4AC84EC652C456C234
:103110005AC099C8F2406244D2444249B249224A54
:10312000924A024B05618280B707008093878747E8
:10313000930A50036303F500814A3709008083270F
:10314000890A2A841305890A9C439309C40E130A29
:10315000890A8297130B0040814626868145228585
:10316000853763DF54010146A6852285213B93976D
:103170002400A29723A4070023A0090023A209008A
:103180008504E109E39A64FD014681452285953570
:1031900083270A00A2860146DC4FAD451305890A44
:1031A000829783270A0037364020A286DC4F130619
:1031B00066F9AD451305890A829783270A00AD4554
:1031C0001305890ADC53829785475CC0A1B7B7070E
:1031D00000809387874701476314F5001307500366
:1031E000FD5763D4E502011106CE22CC2EC62A84F7
:1031F000EFF0AFA03246AA8585462285D135F24050
:10320000624481473E85056182803E858280B707A2
:1032100000809387874701476314F5001307500325
:10322000FD5763D4E502011106CE22CC2EC62A84B6
:10323000EFF0AF9C3246AA85814622855135F24097
:10324000624481473E85056182803E85828001110E
:10325000B707008006CE22CC26CA4AC84EC652C442
:103260009387874701476314F50013075003FD5404
:103270006358E600328AAA892E848144014911E804
:10328000F240624426854249D244B249224A05614D
:103290008280630B090085465286CA854E850D35AE
:1032A000058933152501C98C05090580C9BF0111A0
:1032B000B707008006CE22CC26CA4AC84EC652C4E2
:1032C0009387874701476314F50013075003FD54A4
:1032D0006358E600328AAA892E848144014911E8A4
:1032E000F240624426854249D244B249224A0561ED
:1032F0008280630B090081465286CA854E85C93398
:10330000058933152501C98C05090580C9BF83A727
:10331000C183411122C406C681451385018282976B
:103320002A84931714007D5563DF0700635D040052
:1033300037050080130585071374F403EF00701040
:10334000050433558502B240224441018280C1B751
:1033500083A7C183411106C69145138501828297D7
:103360009317150063DC0700635A0500B240370568
:1033700000801305050641016F00B00CB2407D5579
:1033800041018280F1B713850182828021458280CC
:10339000411122C42A84484106C6EF005007B7876E
:1033A000001098479316F70063D706009847C17638
:1033B000FD16758F98C7378700101C47B7060200A7
:1033C000B725F400D58F1CC71C4022859385054086
:1033D000DC43829708442244B24041016F0030032D
:1033E000011106CE22CC26CA2A844D372AC6228550
:1033F000593F83A4C183B24582942A84B145138581
:10340000018282949317F40063CC07006244F24077
:10341000D244370500801305450805616F0070022E
:103420009317E400AA8463C50706370500801305D7
:103430004508EF0010019317D40063C607049357A3
:1034400044008566938606C093F7F70313777400EC
:103450008507758C9306F03F0507860763FF860294
:103460003345E50229803305F5028547339487000B
:1034700093F704103345850299E793F4F403850428
:10348000860433559502F2406244D244056182803D
:10349000370500801305C50669BF7D55EDB7797105
:1034A00022D426D24AD006D64ECE52CCAA842E8919
:1034B00037840010E13D2A941C401397F7006357AE
:1034C00007001C4041777D17F98F1CC01C401397E3
:1034D000E700634C07023705008013054508952770
:1034E0000D473307E50291463347D7026344E902AB
:1034F0009547B307F502B3C7D70263CD27011C4038
:1035000037070400D98F1CC021AA37050080130596
:10351000C506F1B73717402037080080130707D8D2
:10352000FD561348F8FF13063004FD551C47636A27
:10353000F5025C4763E7A7021C4383284700B307F3
:10354000F502B3D71703638EB700B387274193D82B
:10355000F741B3C7F800B387174163D407013E882A
:10356000B2867D160117E313B6FC1C40E38AC6F849
:10357000E19B1CC0B7074020960693870752B69779
:10358000984B10401D8B518F18C018401377F7C00F
:1035900018C0D84B144012071377073F558F18C037
:1035A0001840FD769386F63F758F18C0984F1040EF
:1035B00085662A07938606C0758F518F18C0D84F2D
:1035C000B7870010635C0706D84713670710D8C792
:1035D000D847137707FCD8C7D84713671700D8C751
:1035E0001C403707FCFF7D17F98FB71900801CC0FE
:1035F000300085451385C9A7EFE07F942249B24783
:10360000130A490033392A013E99B2476367F9002A
:1036100063932705A2476370FA041C40E3DF07FEAB
:103620001C4041672685D98F1CC05D3BB250225497
:1036300092540259F249624A45618280D447137715
:10364000F70393F6F6EFD4C7D44793F606FCD4C736
:10365000D447558F69B7300085451385C9A7EFE07A
:103660001F8E65B7B7870010BE9588418280B787E7
:103670000010BE9590C1328582801387C181B72723
:1036800001106303A7008147D8430145D98DCCC3FE
:1036900082801387C181B72701106303A700814788
:1036A000D84393C5F5FF0145F98DCCC3828093873C
:1036B000C1816385A700814788438280B7270110B5
:1036C000E5BF9387C1816385A7008147C847828092
:1036D000B7270110E5BF1387C181B7270110630326
:1036E000A7008147984793C5F5FF0145F98D8CC721
:1036F00082801387C181B72701106303A700814728
:1037000098470145D98D8CC782801387C181B7271F
:1037100001106303A7008147D8470145D98DCCC765
:1037200082801387C181B72701106303A7008147F7
:10373000D84793C5F5FF0145F98DCCC78280138723
:10374000C181B72701106303A7008147D84701450E
:10375000B98DCCC782801387C181B727011063035D
:10376000A7008147D85F0145D98DCCDF985F598E7E
:1037700090DF82801387C181B72701106303A70000
:103780008147985F93C5F5FF0145F98D8CDF8280F5
:103790001387C181B72701106303A70081471D4725
:1037A000636CC70237174020130707DA0A063A96F8
:1037B00018420287984F93C5F5FF6D8F98CF9853A5
:1037C0006D8F98D398576D8F98D7985BF98D8CDB58
:1037D00021A0984FD98D8CCF01458280984F4D8F75
:1037E00098CF9853D98D8CD3C5BF9857D98D8CD786
:1037F000E5B7984F4D8F98CF98534D8F98D39857E2
:103800004D8F98D7985BD98DD9B71387C181B727CA
:1038100001106303A70081477D161947636DC70038
:1038200037174020130707DC0A063A96184202872A
:10383000D84FD98DCCCF01458280D84F4D8FD8CF6E
:10384000D853D98DCCD3C5BFD857D98DCCD7E5B7F0
:10385000D84F4D8FD8CFD8534D8FD8D3D8574D8F01
:10386000D8D7D85BD98DCCDBF9B79387C181638476
:10387000A7000145828037050080130585478280B7
:103880009387C1816392A7081D45C1C18547214522
:10389000638DF506894725456389F5068D472945DA
:1038A0006385F50691472D456381F50695473145BA
:1038B000638DF504994735456389F5049D4739457E
:1038C0006385F504A1473D456381F504A54741455E
:1038D000638DF502A94745456389F502AD47494522
:1038E0006385F502B1474D456381F502B547514502
:1038F000638DF500B94755456389F500BD4701451E
:103900006395F5005945828001458280B717008094
:10391000938707A56384A70001458280370500804F
:10392000130585478280B7170080938707A56384B6
:10393000A700014582801545828037170080130754
:1039400007A5B73701106303A7008147984B0145CE
:103950001367170098CB828037170080130707A5DD
:10396000B73701106303A7008147984B0145799B46
:1039700098CB828037170080130707A5B73701104F
:103980006303A7008147984B01451367270098CB35
:10399000828037170080130707A5B737011063032C
:1039A000A7008147984B0145759B98CB8280B7173C
:1039B0000080938707A56386A700814788437D81A0
:1039C0008280B7370110DDBF37170080130707A5C6
:1039D000B73701106303A70081479847B706070070
:1039E000C205F58DD98D8CC701458280B71700803F
:1039F000938707A56387A7008147884741811D8971
:103A00008280B7370110D5BF37170080130707A58D
:103A1000B73701106303A7008147D847B7060700EF
:103A2000C205F58DD98DCCC701458280B7170080BE
:103A3000938707A56387A7008147C84741811D89F0
:103A40008280B7370110D5BF0111B717008022CC93
:103A500026CA06CE938707A5AA84373401106303CC
:103A6000F500014426852EC69937B24565FD0CC088
:103A7000F2406244D24405618280B7170080938788
:103A800007A5373701106383A70001475843FD5747
:103A9000634407009377F70F9CC10145828048413A
:103AA0008280B7170080938707A56305F5004CC196
:103AB00001458280411122C406C64CC137050080F1
:103AC00083270509130505092E849C4382973345F6
:103AD0008502B7370110B24022447D1588CF984740
:103AE00001451367170098C7D84713671700D8C751
:103AF000410182800111B717008026CA06CE22CC70
:103B0000938707A5AA846309F5048147014598476F
:103B1000B706F9FFFD16758F98C79847C1661386DB
:103B20008700558F98C7D84B058B75DF1C41004225
:103B30009C43098813341400829725043305A4029A
:103B4000C04002C633558502B24763CEA700F2409B
:103B50006244D2440561828037050080B737011086
:103B6000130505096DB70100B24785073EC6E9BFD9
:103B70004C416FE06F9D01114AC83719008022CC7B
:103B800026CA52C406CE4EC6130909A52A842E8A17
:103B90008144631F2503B7474020938747AFB7048D
:103BA0000080938404091CC548C493098500C8405B
:103BB000CE85A528C8C0B74740208844938707B75B
:103BC0005CC800CC930544018D2088C49384C181D6
:103BD000D2852285EFE04F979DC03706030063032F
:103BE000240101469C406244F2404249B249224AC3
:103BF00003A347022685D244814505610283F24032
:103C00006244D2444249B249224A0561828041114C
:103C100022C406C62A8409E4B240224441018280BB
:103C20001C40484082970044FDB723A40500AA87A2
:103C300001E52E858280BA87984775FF8CC7AA85D3
:103C4000CDBF1C4103A307000283011122CC2A84AB
:103C5000484106CE26CA2EC65D3F1C40B24522858D
:103C6000DC438297AA8408445D37F240624426858B
:103C7000D244056182801C4103A3C702028301E58F
:103C800003A54184828001458280732540F18280B2
:103C90000100FDBF00000000000000000000000067
:103CA0000000000000000000000000000000000014
:103CB0000000000000000000000000000000000004
:103CC00000000000000000000000000000000000F4
:103CD00000000000000000000000000000000000E4
:103CE00000000000000000000000000000000000D4
:103CF00000000000000000000000000000000000C4
:103D00006FE00FF06FE0CFEF6FE08FEF6FE0EFF15C
:103D10006FE00FEF6FE0CFEE6FE08FEE6FE0AFF888
:103D20006FE00FEE6FE0CFED6FE08FED6FE04FEDE6
:103D30006FE00FED6FE0CFEC6FE08FEC6FE04FECDA
:103D40006FE02FFE6FE0BF856FE03F8D6FE0BF94A7
:103D50006FE03F9C6FE0BFA36FE03FAB6FE0BFB28F
:103D60006FE03FBA6FE0BFC16FE03FC96FE0BFD007
:103D70006FE03FD86FE0BFDF6FE03FE76FE0BFEE7F
:103D8000B7070080938707066300F502B707008036
:103D900093878707630FF500B70700809387C709EC
:103DA000630EF500014582803725F40013050540B8
:103DB000828037A54A041305052082803755E80123
:103DC000130505808280B70700809387070663008C
:103DD000F502B707008093878707630FF500B707E1
:103DE00000809387C709630EF5000145828037255F
:103DF000F40013050540828037A54A041305052009
:103E000082803755E801130505808280411106C67E
:023E100041353A
:103E18000000000050034020700340203003402081
:103E2800000000000000000000000000000000008A
:103E3800000000000000000000000000000000007A
:103E4800000000000000000000000000000000006A
:103E5800000000000000000000000000000000005A
:103E6800000000000000000000000000000000004A
:103E7800B80A00800000000000000000A40A0080CA
:103E88000000000000000000B80A008000000000E8
:103E9800000000009C0A00800000000000000000F4
:103EA800180540200000000000000000B80A00804B
:103EB80000000000000000004C044020000000004A
:103EC80000000000000000000000000000000000EA
:103ED80000000000000000000000000000000000DA
:103EE80000000000000000000000000000000000CA
:103EF80000000000000000000000000000000000BA
:104288000000000000000000B00440200000000012
:104298000000000000000000000000000000000016
:1042A8000000000000000000000000000000000006
:1042B80000000000000000000000000000000000F6
:1042C80000000000000000000000000000000000E6
:10486800180E4020000000000000000000000000BA
:104878000000000000000000000000000000000030
:104888000000008000000080700F0080A40340201A
:10489800000000000804402000000000DC0D40205B
:1048A800AC0A0080840A0080010304000E33402013
:1048B8004E3340205033402084334020643640201B
:1048C8006E364020840A0080803D4020C63D40204E
:040000052040000097
:00000001FF
