:020000040800F2
:1000000000000820D14300084D10000851100008DE
:1000100055100008591000085D100008000000008D
:10002000000000000000000000000000512E000849
:100030006110000800000000F12E000865100008A3
:1000400021440008214400082144000821440008FC
:1000500021440008214400082144000821440008EC
:1000600021440008214400082144000821440008DC
:1000700021440008214400082144000821440008CC
:1000800021440008214400082144000821440008BC
:1000900021440008214400082144000821440008AC
:1000A000214400082144000821440008214400089C
:1000B000214400082144000821440008214400088C
:1000C000214400082144000821440008214400087C
:1000D0002144000821440008214400087110000850
:1000E000214400082144000821440008214400085C
:1000F000214400082144000821440008214400084C
:10010000214400082144000821440008214400083B
:10011000214400082144000821440008214400082B
:10012000214400082144000821440008214400081B
:10013000214400082144000821440008214400080B
:1001400021440008214400082144000821440008FB
:1001500021440008214400082144000821440008EB
:1001600021440008214400082144000821440008DB
:100170002144000821440008214400080000000038
:1001800021440008214400082144000821440008BB
:1001900021440008214400082144000821440008AB
:1001A000214400082144000821440008214400089B
:1001B000214400082144000821440008214400088B
:1001C00021440008214400080000000021440008E8
:1001D000214400082144000821440008214400086B
:1001E000214400082144000821440008214400085B
:0801F00021440008214400082D
:1002000010B5054C237833B9044B13B10448AFF350
:1002100000800123237010BD7C000020000000003E
:10022000E45B0008084B10B51BB108480849AFF360
:1002300000800848036803B910BD074B002BFBD0B2
:10024000BDE81040184700BF00000000E45B000854
:10025000800000207C0000200000000010F8012B2E
:1002600011F8013B012A28BF9A42F7D0D01A7047F3
:1002700053B94AB9002908BF00281CBF4FF0FF310D
:100280004FF0FF3000F03CB882B0EC462DE9005052
:1002900000F01EF8DDF804E002B00CBC704700BFAF
:1002A0002DE9F041904606460F461D46069C00F09B
:1002B00029F808FB01FC8646A8FB002300FB05C5C6
:1002C000B21A2B4467EB0303C4E90023BDE8F081B5
:1002D0002DE9F8431D46174680468946089E00F0E2
:1002E00053F900FB05F3A0FB074507FB0137B8EB0B
:1002F00004043D4469EB0505C6E90045BDE8F88303
:10030000704700BF00292DE9F047C0F2A280002607
:10031000002BC0F298808C4690469E4615460446B7
:100320000F46CBBB8A4256D9B2FA82F33BB1C3F136
:1003300020029F409D409C4020FA02F21743280C67
:10034000220C1FFA85FEB7FBF0F100FB11770EFBC4
:1003500001F342EA0747BB4207D97F1980F00181C8
:10036000BB4240F2FE8002392F44FF1AA4B2B7FB11
:10037000F0F300FB13770EFB03FE44EA0747BE458C
:1003800006D97F1980F0EB80BE4540F2E880023B41
:1003900043EA0143002203E08B420FD900221346B7
:1003A000341C4FF0000518BF0124604265EB450185
:1003B0005840514000196941BDE8F087B3FA83F213
:1003C000002A40F08380804540F2CD808B42C0F00F
:1003D000CA801346E4E712B90123B3FBF2F5B5FA7C
:1003E00085F2002A3BD1781B4FEA154E1FFA85FC97
:1003F0000122210CB0FBFEF80EFB18000CFB08F3E9
:1004000041EA0047BB4208D97F1980F0B080BB4267
:1004100040F2AD80A8F102082F44FF1AA4B2B7FB46
:10042000FEF30EFB13770CFB03FC44EA0747BC45C5
:1004300006D97F1980F09980BC4540F29680023B36
:1004400043EA0843ACE752426FEA060663EB430314
:1004500061E740424FF0FF3661EB410158E79540BC
:10046000C2F1200107FA02F34FEA154ECF4024FAF9
:1004700001F194401FFA85FC1943B7FBFEF24FEAE5
:1004800011480EFB12770CFB02F348EA0747BB4208
:1004900005D97F1971D2BB426FD9023A2F44FF1A96
:1004A00089B2B7FBFEF80EFB18770CFB08F041EAA7
:1004B0000743984206D95B1961D298425FD9A8F1E7
:1004C00002082B44181A48EA024292E7C2F12007B8
:1004D00003FA02FE08FA02F5914028FA07F32CFA13
:1004E00007FCF84043EA0E0E08434FEA1E48070C8B
:1004F0001FFA8EFABCFBF8F908FB19CC0AFB09F1CC
:1005000047EA0C4C614507D91CEB0E0C32D2614511
:1005100030D9A9F10209F444C1EB0C0C80B2BCFB48
:10052000F8F308FB13CC0AFB03FA40EA0C418A45B6
:1005300006D911EB0E0125D28A4523D9023B71441D
:1005400043EA0943CAEB0101A3FB0589494503D3EB
:1005500003D19440444500D2013B002220E7013BF7
:1005600016E7013901E701231AE7013B68E708F1C3
:10057000FF3852E709F1FF39CEE7013A8FE708F17A
:10058000FF389FE7013BDBE72DE9F043002B40D12B
:100590008A42044615464AD9B2FA82F30F464BB155
:1005A000C3F12006994000FA03F402FA03F5F04083
:1005B00040EA0107290C260C1FFA85FEB7FBF1F073
:1005C00001FB10770EFB00F246EA07439A4207D977
:1005D0005B1980F0EA809A4240F2E78002382B44AF
:1005E0009A1AA4B2B2FBF1F301FB13220EFB03FE35
:1005F00044EA0242964506D9521980F0DA809645BF
:1006000040F2D780023B43EA004000263146BDE875
:10061000F0838B4244D8B3FA83F6002E45D1824250
:1006200040F2BF808B42C0F0BC803046EEE712B98A
:100630000125B5FBF2F5B5FA85F2002A7BD14A1BFC
:100640002F0C1FFA85FE0126230CB2FBF7F007FBE7
:1006500010220EFB00FC43EA02418C4507D94919E0
:1006600080F0A1808C4540F29E8002382944CCEB7A
:100670000101A4B2B1FBF7F307FB13110EFB03FE5C
:1006800044EA0144A64506D9641980F09080A64545
:1006900040F28D80023B43EA00403146BDE8F083E2
:1006A000002630463146BDE8F083C6F12005B34050
:1006B00002FA06F701FA06F4EA40E94020FA05F5E5
:1006C0001A4325434FEA124C4FEA154E93B2B1FB41
:1006D000FCF80CFB181103FB08F44EEA01418C42B4
:1006E00006D9891869D28C4267D9A8F10208114449
:1006F000091BADB2B1FBFCF40CFB141103FB04FEAF
:1007000045EA01439E4505D99B1854D29E4552D9CE
:10071000023C134444EA0844CEEB0303A4FB0789DC
:100720004B4503D351D1B04040454ED20026601E08
:100730003146BDE8F083C2F12006954001FA02F38C
:1007400000FA02F42F0CF140F0401FFA85FEB1FBD5
:10075000F7F6184307FB16110EFB06F24FEA104C92
:100760004CEA01439A4205D95B1929D29A4227D90A
:10077000023E2B449B1A80B2B3FBF7FC07FB1C33F1
:100780000EFB0CF140EA0343994206D95B1919D2DA
:10079000994217D9ACF1020C2B445A1A4CEA06467E
:1007A00052E7012032E7013861E7013818E7013BE1
:1007B00071E7013B27E7013CACE708F1FF3897E719
:1007C000013ED7E70CF1FF3CE7E7204600261DE796
:1007D00008B501280AD04FF0500372B683F3118890
:1007E000BFF36F8FBFF34F8F62B6FEE7054801215D
:1007F0000A4602F0E9F800E09847034B1B68002B1B
:10080000FAD108BD000402400000002008B50348EA
:100810000349242200F064FD08BD00BF143E0020FF
:100820009800002010B58AB01C4B1A6B42F0800271
:100830001A631A6B02F080020192019A1A6B42F05D
:1008400002021A631A6B02F002020292029A1A6BF7
:1008500042F008021A631A6B02F008020392039A2C
:100860001A6B42F001021A631B6B03F0010304933D
:10087000049B0B4C204644F28101002202F0A4F8B4
:1008800044F2810305930123069300230793089301
:10089000204605A901F0A6FF0AB010BD00380240AD
:1008A00000040240F0B4049E1A4D002403E015F841
:1008B000017B07550134032CF9DD00240471204627
:1008C00003E015F8014B0C5401301328F9DD00202A
:1008D0000875014603E015F8010B50540131032956
:1008E000F9DD002111710A4603E015F8011B995446
:1008F0000132032AF9DD00225A71134603E015F88C
:10090000012BF2540133032BF9DD00237371F0BC8A
:10091000704700BF98000020F0B591B002AD00957F
:100920000EA808A906AA04ABFFF7BCFF0EA803F0A7
:1009300078FD044606A803F074FD074604A803F0FA
:1009400070FD0646284603F06CFD54B9194808A905
:1009500000F014FB002827DD164808A900F0DCFA97
:1009600022E00546012C10D102F012FE03281BD80C
:10097000104C0095204608A93A46334600F038FA54
:10098000204608A900F020FB0EE0022C0CD10948FB
:1009900008A900F0F3FA002806DD0095054808A92B
:1009A0003A46334600F07EFA034A044B1A6011B00F
:1009B000F0BD00BF843E00200D08000800000020AC
:1009C000F0B58DB005460F461446302003F068FDA3
:1009D000064610B93E4803F047FE06A8394603F024
:1009E000FFFE04A83B492A4603F0D6FE01A83A4977
:1009F000224603F0D1FE04A804F0E0F8042806D94A
:100A000034461AE0302304F8013B013501E0344656
:100A1000002504A804F0D2F8C0F104008542F1D307
:100A2000002504AF04E017F8013B04F8013B013551
:100A300004A804F0C3F88542F5D300238DF81430E0
:100A400006A804F0BBF8142805D919E0302304F8EF
:100A5000013B013500E0002506A804F0AFF8C0F125
:100A600014008542F2D3002506AF04E017F8013BDD
:100A700004F8013B013506A804F0A0F88542F5D33F
:100A800000238DF82C3001A804F098F8082805D927
:100A900019E0302304F8013B013500E0002501A8EE
:100AA00004F08CF8C0F108008542F2D3002501AFB4
:100AB00004E017F8013B04F8013B013501A804F0FC
:100AC0007DF88542F5D30023237030460DB0F0BD8C
:100AD000FC5B0008045C0008085C0008014A024B4B
:100AE0001A60704719090008000000202DE9F04144
:100AF000804682684368C3EB03139B004FF4616632
:100B000006FB023602F03EFD074600240EE0224DB1
:100B100028468021012201F057FF192002F050FEE3
:100B200028468021002201F04FFF0134042CEEDD25
:100B300002F028FDC01B194CA4FB0034A409B442E8
:100B400024D8D8F8180000214FF47A720B4603F02D
:100B5000EFFA01280DD1D8F800102246FFF730FF38
:100B60000446D8F8180000210A460B4603F0F8F9AD
:100B700000E00024204604F021F882B20848214613
:100B8000FF2300F035FC204603F092FC4FF47A700E
:100B900002F016FEB9E700BF00040240D34D621018
:100BA000143E00202DE9F041804682684368C3EB83
:100BB00003139B004FF4616606FB023602F0E2FC71
:100BC0000746002410E0234D28464FF480410122BF
:100BD00001F0FAFE192002F0F3FD28464FF480419F
:100BE000002201F0F1FE0134042CECDD02F0CAFC1D
:100BF000C01B194CA4FB0034A409B44225D8D8F872
:100C0000180000214FF47A720B4603F091FA012884
:100C10000ED10220D8F800102246FFF7D1FE04467C
:100C2000D8F8180000210A460B4603F099F900E0B5
:100C30000024204603F0C2FF82B208482146FF2369
:100C400000F0D6FB204603F033FC4FF47A7002F03C
:100C5000B7FDB6E700040240D34D6210143E0020F9
:100C6000FEE700BF08B50C480C4B03604FF4E133BE
:100C7000436000238360C36003610C22426183618F
:100C8000C3610362436200F049FF20B104484FF49E
:100C9000EE71FFF7E5FF08BD143E0020004800405C
:100CA0000C5C000800B5B9B0354B1A6C42F08052AC
:100CB0001A641B6C03F080530093009B314B1A683D
:100CC00042F440421A601B6803F440430193019BC5
:100CD00002232B9301222E9210222F923193002275
:100CE000329208223392D8223492359336932BA82D
:100CF00000F04AFF20B1244840F2A111FFF7B0FFF5
:100D000001F07CFE20B120484FF4D471FFF7A8FF1A
:100D10000F23269302232793002328934FF4A053F5
:100D200029934FF480532A9326A8072101F07CF9D8
:100D300020B115484FF4DB71FFF792FF4FF4807339
:100D400002930023159302A801F04AFA20B10E483D
:100D500040F2BD11FFF784FF01F01CFA0B4BA3FB1F
:100D60000030800900F052FA042000F065FA4FF0DC
:100D7000FF300F21002200F00DFA39B05DF804FBBE
:100D800000380240007000400C5C0008D34D621037
:100D900010B584B001F098FEFFF784FF0E4800F014
:100DA00023F8FFF73FFDFFF75DFF002204AB43F898
:100DB000042D00920193094809498022012302F081
:100DC000AFFA044602F094FBB4F1FF3F02D10548AC
:100DD00003F04AFCFEE700BF843E0020D107000874
:100DE000185C0008245C000800230360704700BF03
:100DF0002DE9F04383B006460F46914698460023FE
:100E000000930193202003F04BFB3468054610B992
:100E1000214803F029FC384603F0D0FE013003F0EE
:100E20003FFB286010B91C4803F01EFCC5F8089071
:100E3000C5F804800A9BEB60012003F06DF9A861FE
:100E40002868394603F0CCFC7CB9144B2B610CE0CC
:100E50002369124A934202D10123009304E0104A0D
:100E6000934201D101230193E469002CF0D1009B4E
:100E700013B90A4B2B6107E0019B13B9084B2B6197
:100E800002E0002003F0D2FA3368EB613560012004
:100E900003B0BDE8F08300BF345C0008ED0A000831
:100EA000A50B0008F8B50D4617461E46046813E06A
:100EB000A06900210A220B4603F03AF901280BD160
:100EC00020682946FFF7CAF940B1A06900210A4607
:100ED0000B4603F045F8E469002CE9D1A4B1606940
:100EE00002F024FDA7606660069BE36041F2883053
:100EF00001F008FE606902F0B5FAA06900210A4617
:100F00000B4603F02DF802E0024803F02DFC01200F
:100F1000F8BD00BF445C0008F8B506460F460468FB
:100F2000002514E0A06900210A220B4603F000F915
:100F300001280CD120683946FFF790F948B1A06923
:100F400000210A460B4603F00BF82546E469002C05
:100F5000E8D18CB115B9E369336001E0E369EB6175
:100F6000606902F00FFAA06903F0CEF9206803F07F
:100F70009FFA204603F09CFA0120F8BD38B50D46D3
:100F8000046813E0A06900210A220B4603F0D0F8A0
:100F900001280BD120682946FFF760F940B1A0690C
:100FA00000210A460B4602F0DBFFE469002CE9D180
:100FB0003CB1A06900210A460B4602F0D1FF012096
:100FC00038BD002038BD00BF70B582B006460D4662
:100FD000046813E0A06900210A220B4603F0A8F878
:100FE00001280BD120682946FFF738F940B1E469A0
:100FF000A06900210A460B4602F0B2FF002CE9D19D
:10100000DCB1206904F11403002200920193294607
:101010008022234602F084F9B0F1FF3F06D109484F
:1010200003F022FB30462946FFF776FFA069002136
:101030000A460B4602F094FF02E0034803F014FB5B
:1010400002B070BD245C0008505C0008704700BF0F
:10105000FEE700BFFEE700BFFEE700BFFEE700BF00
:10106000704700BF08B501F03BFD03F0A9F908BDCA
:1010700008B5024800F074FA08BD00BF143E002015
:1010800000B583B0214B1A6C42F080521A641A6C7E
:1010900002F080520092009A5A6C42F480425A64E4
:1010A0005B6C03F480430193019B032000F060F824
:1010B0006FF00B0000210A4600F06CF86FF00A0098
:1010C00000210A4600F066F86FF0090000210A4688
:1010D00000F060F86FF0040000210A4600F05AF8B2
:1010E0006FF0030000210A4600F054F86FF0010091
:1010F0000F21002200F04EF84FF0FF300F210022A8
:1011000000F048F803B05DF804FB00BF003802406F
:101110000268154B9A4225D110B586B003F5F83315
:101120001A6C42F480221A641B6C03F4802300932F
:10113000009B4FF440730193022302930024039415
:101140000323049307230593084801A901F04AFBF0
:1011500027200521224600F01DF8272000F04AF83C
:1011600006B010BD704700BF00480040000C0240B0
:1011700000F00700054AD36823F4E0631B041B0C4E
:1011800043EA0020024B0343D360704700ED00E0C8
:101190000000FA0530B4144BDC68C4F30224C4F137
:1011A0000705042D28BF0425231D062B01D9033C68
:1011B00000E00024012303FA05F5013D2940A14088
:1011C000A340013B1A400A43002806DA00F00F0052
:1011D0001201D2B2054B1A5403E01201D2B2044BF1
:1011E0001A5430BC704700BF00ED00E014ED00E081
:1011F00000E400E0410900F01F0001238340024A9F
:1012000042F82130704700BF00E100E00138B0F142
:10121000807F0AD2064B5860F021064A82F82310DC
:101220000020986007221A6070470120704700BFB5
:1012300010E000E000ED00E0042805D1054A136845
:1012400043F0040313607047024A136823F0040359
:101250001360704710E000E090F86930DBB2212B9A
:101260002DD1B0F852309BB25BB90268136823F0FD
:10127000800313600268136843F04003136000208A
:1012800070478368B3F5805F0BD103694BB9C36CBA
:1012900002681B88C3F308039362C36C0233C36400
:1012A00005E00268C36C591CC1641B789362B0F8F6
:1012B0005230013B9BB2A0F8523000207047022010
:1012C000704700BF0268136823F4907313600268CC
:1012D000936823F001039360202380F86A307047FD
:1012E00090F86A30DBB2202B48D1002A18BF0029C1
:1012F00046D090F86830012B44D0012380F8683044
:101300004165A0F85820A0F85A208368B3F5805FA3
:101310000AD1036923B940F2FF13A0F85C301AE048
:10132000FF23A0F85C3016E04BB903691BB9FF231B
:10133000A0F85C300FE07F23A0F85C300BE0B3F145
:10134000805F08D103691BB97F23A0F85C3002E0FD
:101350003F23A0F85C300023C366222280F86A2075
:1013600080F8683001688A6842F001028A6001688A
:101370000A6842F490720A6018467047022070476B
:1013800001207047022070472DE9F04106460C46C7
:1013900017469846069D1EE0B5F1FF3F1BD02DB1C4
:1013A00001F0AAFBC8EB0000A84214D3326813680E
:1013B00023F4D07313603268936823F001039360C1
:1013C000202386F8693086F86A30002386F8683072
:1013D0000320BDE8F0813368DB692340A34214BFDA
:1013E00000230123BB42D7D00020BDE8F08100BF1D
:1013F0002DE9F04182B004461E4690F86930DBB218
:10140000202B4DD10D469046002A18BF002949D007
:1014100090F86830012B47D0012380F86830002312
:10142000C366212380F8693001F066FB0746A4F803
:101430005080A4F852801EE0B4F85230013B9BB2B9
:10144000A4F8523000962046802100223B46FFF748
:101450009BFF58BBA368B3F5805F08D1236933B9FC
:10146000226835F8023BC3F30803936203E0236864
:101470002A789A620135B4F852309BB2002BDBD146
:1014800000962046402100223B46FFF77DFF0346A1
:1014900070B9202284F86920002284F8682008E0CE
:1014A000022306E0012304E0022302E0032300E01C
:1014B0000323184602B0BDE8F08100BF704700BFAB
:1014C00008B501680B6823F040030B60202380F807
:1014D0006930FFF7F3FF002008BD00BF08B5B0F882
:1014E0005C2090F86A30DBB2222B2DD18368B3F5F3
:1014F000805F0AD1036943B9416D03685B6A1A4092
:101500000A80436D0233436506E0416D4B1C436521
:1015100003685B6A1A400A70B0F85A30013B9BB20C
:10152000A0F85A30BBB90268136823F490731360B3
:101530000268936823F001039360202380F86A30E7
:10154000FFF7CCFA002008BD0268936943F0080356
:101550009361022008BD002008BD00BF704700BF96
:1015600038B504460268D3691068916813F00F0516
:1015700009D113F0200F06D010F0200F03D0204621
:10158000FFF7ACFF38BD002D6ED011F0010102D184
:1015900010F4907F68D013F0010F07D010F4807F13
:1015A00004D001251562E26E2A43E26613F0020FB1
:1015B00007D031B1226802251562E26E42F00402C2
:1015C000E26613F0040F07D031B1226804251562DA
:1015D000E26E42F00202E26613F0080F09D010F04A
:1015E000200F00D129B1226808211162E26E0A435E
:1015F000E266E26E002A4AD013F0200F05D010F008
:10160000200F02D02046FFF769FFE36E13F0080FAA
:1016100004D123689B6813F0400F1FD02046FFF7CA
:1016200051FE23689A6812F0400F13D09A6822F096
:1016300040029A60636E4BB1154A1A65606E01F004
:10164000C9F920B3606E036D984738BD2046FFF797
:1016500085FF38BD2046FFF781FF38BD2046FFF7E4
:101660007DFF0023E36638BD13F0800F06D010F035
:10167000800F03D02046FFF7EFFD38BD13F0400F79
:1016800005D010F0400F02D02046FFF719FF38BDFB
:101690009516000808B5806B0023A0F85A30A0F812
:1016A0005230FFF75BFF08BD38B504468268036916
:1016B0001A4343691A43C369134301680868A34A7C
:1016C000024013430B6021684B6823F44052E368E7
:1016D00013434B60A269236A134321688A6822F48A
:1016E000306213438B602568994B9D4213D103F5FB
:1016F0009433D3F8903003F00303032B03D8DFE8CF
:1017000003F0D40604081023E0E00223DEE0042303
:10171000DCE00823DAE08F4B9D4218D103F5FA3361
:10172000D3F8903003F00C030C2B08D8DFE803F05B
:10173000BF0707070B070707090707070D00102357
:10174000C4E00223C2E00423C0E00823BEE0824BD1
:101750009D4218D103F5F833D3F8903003F03003ED
:10176000102B0CD003D8002B00F0A38003E0202B1B
:1017700003D0302B05D01023A8E00223A6E00423D9
:10178000A4E00823A2E0754B9D4218D103F5F6337F
:10179000D3F8903003F0C003402B0CD003D8002BBB
:1017A00000F0898003E0802B03D0C02B05D01023EC
:1017B0008CE002238AE0042388E0082386E0684B5B
:1017C0009D421AD103F5F433D3F8903003F44073FB
:1017D000B3F5807F0DD002D8002B6ED005E0B3F5B5
:1017E000007F04D0B3F5407F05D010236EE00223C4
:1017F0006CE004236AE0082368E05A4B9D421AD14A
:1018000003F59233D3F8903003F44063B3F5806F5F
:101810000DD002D8002B52D005E0B3F5006F04D0F4
:10182000B3F5406F05D0102350E002234EE00423AF
:101830004CE008234AE04C4B9D4219D103F5E033BC
:10184000D3F8903003F44053B3F5805F0CD001D847
:10185000BBB305E0B3F5005F04D0B3F5405F05D03E
:10186000102333E0022331E004232FE008232DE08E
:101870003E4B9D4227D103F5DE33D3F8903003F47D
:101880004043B3F5804F0CD001D8F3B105E0B3F578
:10189000004F04D0B3F5404F05D0102316E00223CB
:1018A00014E0042312E0082310E001230EE00023DB
:1018B0000CE000230AE0002308E0002306E00123F7
:1018C00004E0002302E0102300E00023E269B2F507
:1018D000004F59D1082B4DD8DFE803F005101B4C01
:1018E000244C4C4C2F0000F05BFC63685A0802EB60
:1018F0004000B0FBF3F39BB200203DE000F060FC41
:1019000063685A0802EB4000B0FBF3F39BB200207F
:1019100032E06268164B03EB5203B3FBF2F39BB267
:10192000002029E000F030FB63685A0802EB400019
:10193000B0FBF3F39BB200201EE06268530803F58E
:101940008033B3FBF2F39BB2002015E0F369FFEFA5
:10195000001001400044004000480040004C00409E
:10196000005000400014014000780040007C00401E
:101970000048E8010120002323F00F02C3F34203D3
:1019800013432268D36038BD082B3BD8DFE803F04F
:1019900005101B3A253A3A3A300000F001FC636822
:1019A00000EB5300B0FBF3F080B2E860002038BDDC
:1019B00000F006FC636800EB5300B0FBF3F080B26C
:1019C000E860002038BD62680F4B03EB5203B3FBA5
:1019D000F2F39BB2EB60002038BD00F0D5FA6368EB
:1019E00000EB5300B0FBF3F080B2E860002038BD9C
:1019F0006268530803F50043B3FBF2F39BB2EB605C
:101A0000002038BD012038BD0024F400436A13F0E3
:101A1000010F06D001684B6823F40032836A134338
:101A20004B60436A13F0020F06D001684B6823F441
:101A30008032C36A13434B60436A13F0040F06D02D
:101A400001684B6823F48022036B13434B60436AA5
:101A500013F0080F06D001684B6823F40042436B73
:101A600013434B60436A13F0100F06D001688B6874
:101A700023F48052836B13438B60436A13F0200F6F
:101A800006D001688B6823F40052C36B13438B604C
:101A9000436A13F0400F11D001684B6823F48012A1
:101AA000036C13434B60036CB3F5801F06D10168D0
:101AB0004B6823F4C002436C13434B60436A13F03A
:101AC000800F06D001684B6823F40022836C134317
:101AD0004B60704710B582B004460023C36601F026
:101AE0000BF82268126812F0080F0AD003466FF054
:101AF0007E42009220464FF400110022FFF744FC82
:101B000040B9202384F8693084F86A30002084F8D2
:101B1000680000E0032002B010BD00BF80B310B524
:101B2000044690F8693013F0FF0F04D1002380F8C9
:101B30006830FFF7EDFA242384F8693022681368CF
:101B400023F0010313602046FFF7AEFD012819D0F2
:101B5000636A13B12046FFF759FF2268536823F4E4
:101B6000904353602268936823F02A0393602268AD
:101B7000136843F0010313602046FFF7ABFF10BD6D
:101B80000120704710BD00BF002800F0D78170B55C
:101B900082B00446036813F0010F65D0A64B9B6822
:101BA00003F00C03042B0AD0A34B9B6803F00C0337
:101BB000082B0DD1A04B5B6813F4800F08D09E4B0F
:101BC0001B6813F4003F4FD06368002B4CD1B7E182
:101BD0006368B3F5803F05D1974A136843F48033B7
:101BE000136020E04BB9944B1A6822F480321A60DB
:101BF0001A6822F480221A6015E0B3F5A02F09D1EB
:101C00008D4B1A6842F480221A601A6842F48032BE
:101C10001A6008E0884B1A6822F480321A601A6849
:101C200022F480221A6063687BB100F065FF0546EC
:101C300005E000F061FF401B642800F283817E4BC9
:101C40001B6813F4003FF4D00EE000F055FF05468A
:101C500005E000F051FF401B642800F27581764BCF
:101C60001B6813F4003FF4D1236813F0020F54D023
:101C7000714B9B6813F00C0F0AD06F4B9B6803F0FD
:101C80000C03082B16D16C4B5B6813F4800F11D139
:101C9000694B1B6813F0020F03D0E368012B40F07F
:101CA0005581654A136823F0F803216943EAC103AB
:101CB000136032E0E368E3B15F4A136843F0010365
:101CC000136000F019FF054605E000F015FF401B0A
:101CD000022800F23D81584B1B6813F0020FF4D02C
:101CE000554A136823F0F803216943EAC1031360DE
:101CF00013E0514A136823F00103136000F0FCFE67
:101D0000054605E000F0F8FE401B022800F22281A3
:101D1000494B1B6813F0020FF4D1236813F0080F2E
:101D20002AD06369A3B1444A536F43F00103536758
:101D300000F0E2FE054605E000F0DEFE401B022852
:101D400000F20A813C4B5B6F13F0020FF4D013E0FA
:101D5000394A536F23F00103536700F0CDFE054667
:101D600005E000F0C9FE401B022800F2F780324B6C
:101D70005B6F13F0020FF4D1236813F0040F00F02F
:101D800083802D4B1B6C13F0805F0BD12A4B1A6C98
:101D900042F080521A641B6C03F080530193019B44
:101DA000012500E00025254B1B6813F4807F13D12B
:101DB000224A136843F48073136000F09DFE0646C8
:101DC00005E000F099FE801B642800F2C9801B4BDF
:101DD0001B6813F4807FF4D0A368012B05D1164A49
:101DE000136F43F0010313671FE04BB9124B1A6FD7
:101DF00022F001021A671A6F22F004021A6714E037
:101E0000052B09D10C4B1A6F42F004021A671A6FA6
:101E100042F001021A6708E0074B1A6F22F0010234
:101E20001A671A6F22F004021A67A368B3B100F0B0
:101E300063FE06460CE000BF003802400070004020
:101E400000F05AFE801B41F28833984200F28A80EB
:101E50004C4B1B6F13F0020FF2D00FE000F04CFE62
:101E6000064606E000F048FE801B41F288339842A7
:101E70007AD8444B1B6F13F0020FF3D125B1414ABE
:101E8000136C23F080531364A369002B6ED03D4A7A
:101E9000926802F00C02082A6AD0022B39D1394A22
:101EA000136823F08073136000F026FE054604E0FB
:101EB00000F022FE401B02285CD8324B1B6813F056
:101EC000007FF5D1E269236A1343626A43EA821311
:101ED000A26A5208013A43EA0243E26A43EA026311
:101EE000226B43EA0273274A5360136843F08073FE
:101EF000136000F001FE044604E000F0FDFD001B4D
:101F0000022839D81F4B1B6813F0007FF5D0002042
:101F100035E01C4A136823F08073136000F0ECFD79
:101F2000044604E000F0E8FD001B022826D8154B0B
:101F30001B6813F0007FF5D1002020E001207047DE
:101F400001201CE003201AE0032018E0012016E025
:101F5000032014E0032012E0032010E003200EE031
:101F600003200CE003200AE0032008E0002006E044
:101F7000012004E0032002E0032000E0032002B07F
:101F800070BD00BF0038024038B5244B9B6803F099
:101F90000C03042B3FD0082B01D0214838BD1F4B28
:101FA0005A6802F03F025B6813F4800F0AD01B4BA3
:101FB0005B68C3F388131B48A3FB00010023FEF7F3
:101FC00057F91FE0154B5B68C3F38813DC0000254D
:101FD000690141EAD4616001041B61EB0505A901B7
:101FE00041EA9461A001001B61EB0501C01841F1B9
:101FF00000018B0243EA90538402204619460023D5
:10200000FEF736F9054B5B68C3F3014301335B0010
:10201000B0FBF3F038BD034838BD00BF00380240C4
:102020000024F40040787D01002800F09C8070B509
:102030000446544B1B6803F00F038B420BD2514AEA
:10204000136823F00F030B431360136803F00F03AF
:102050008B4240F08A80236813F0020F17D013F0F0
:10206000040F04D0484A936843F4E0539360236814
:1020700013F0080F04D0444A936843F4604393601C
:102080004148836823F0F002A368134383600D4640
:10209000236813F0010F2ED06268012A05D13A4B54
:1020A0001B6813F4003F0DD161E0022A05D1364BC5
:1020B0001B6813F0007F05D15BE0334B1B6813F006
:1020C000020F58D030498B6823F0030313438B6011
:1020D00000F012FD064606E000F00EFD801B41F206
:1020E0008833984249D8284B9B6803F00C036268F8
:1020F000B3EB820FF0D1234B1B6803F00F03AB420D
:102100000AD9204A136823F00F032B431360136886
:1021100003F00F03AB4232D1236813F0040F06D053
:1021200019498B6823F4E052E36813438B602368FA
:1021300013F0080F07D0144A936823F46043216911
:1021400043EAC1039360FFF71FFF0F4B9B68C3F384
:1021500003130E4AD35CD8400D4B18600F2000F0DB
:102160008DFC002070BD01207047012070BD012052
:1021700070BD012070BD012070BD032070BD012025
:1021800070BD00BF003C024000380240605C0008A7
:102190000C000020014B1868704700BF0C000020A5
:1021A00008B5FFF7F7FF044B9B68C3F38223034A8C
:1021B000D35CD84008BD00BF00380240705C000806
:1021C00008B5FFF7E7FF044B9B68C3F34233034AAC
:1021D000D35CD84008BD00BF00380240705C0008E6
:1021E000F0B583B00446036813F0010F0CD04E4BDA
:1021F0009A6822F400029A609968426B0A439A60D6
:10220000436B1BB1002702E0002700E00127236891
:1022100013F4002F10D04449D1F88C3023F440122D
:10222000E36B1343C1F88C30E36BB3F5801F00D12F
:1022300001271BB1002502E0002500E001252368ED
:1022400013F4801F0FD03849D1F88C3023F44002AA
:10225000236C1343C1F88C30236CB3F5800F00D18D
:10226000012703B90125236813F0807F00D00127DF
:1022700013F0200F6AD02C4B1A6C42F080521A6473
:102280001B6C03F080530193019B284A136843F4AD
:102290008073136000F030FC064605E000F02CFC73
:1022A000801B642800F28C82204B1B6813F4807F13
:1022B000F4D01D4B1B6F13F4407326D0226B02F435
:1022C00040729A4221D0184B1A6F22F44072196F53
:1022D00041F480311967196F21F4803119671A6749
:1022E0001B6F13F0010F10D000F006FC064607E04C
:1022F00000F002FC801B41F28833984200F26282B7
:10230000094B1B6F13F0020FF2D0236B03F44072E2
:10231000B2F5407F0ED10448826822F4F811044AD5
:102320001A400A4382600AE0003802400070004010
:10233000FFFCFF0F974A936823F4F8139360954AC4
:10234000116F236BC3F30B030B431367236813F065
:10235000100F0CD08F4BD3F88C2022F08072C3F872
:102360008C20D3F88C10A26B0A43C3F88C2023680E
:1023700013F4804F08D08749D1F8903023F44032CD
:10238000636E1343C1F89030236813F4004F08D0F4
:102390008049D1F8903023F44022A36E1343C1F852
:1023A0009030236813F4803F08D07A49D1F89030F8
:1023B00023F44012E36E1343C1F89030236813F402
:1023C000003F08D07349D1F8903023F44002236FC6
:1023D0001343C1F89030236813F0400F08D06D49C3
:1023E000D1F8903023F00302636C1343C1F89030AE
:1023F000236813F0800F08D06649D1F8903023F09D
:102400000C02A36C1343C1F89030236813F4807F4F
:1024100008D06049D1F8903023F03002E36C1343C8
:10242000C1F89030236813F4007F08D05949D1F8DF
:10243000903023F0C002236D1343C1F8903023681D
:1024400013F4806F08D05349D1F8903023F44072D0
:10245000636D1343C1F89030236813F4006F08D004
:102460004C49D1F8903023F44062A36D1343C1F876
:102470009030236813F4805F08D04649D1F890303B
:1024800023F44052E36D1343C1F89030236813F4F2
:10249000005F08D03F49D1F8903023F44042236ECA
:1024A0001343C1F89030236813F4800F08D03949E2
:1024B000D1F8903023F08062A36F1343C1F89030BD
:1024C000236813F4001F0DD03249D1F8903023F067
:1024D0000062E36F1343C1F89030E36FB3F1006F14
:1024E00000D10125236813F0080F00D0012513F453
:1024F000802F08D02749D1F8903023F04072636FC5
:102500001343C1F89030236813F4000F09D0214918
:10251000D1F8903023F08052D4F880301343C1F8C2
:102520009030236813F0806F09D01A49D1F89030A9
:1025300023F00052D4F884301343C1F8903023685C
:1025400013F0006F09D01349D1F88C3023F00072DA
:10255000D4F888301343C1F88C30236813F0805FBF
:1025600009D00C49D1F88C3023F08062D4F88C303B
:102570001343C1F88C3027B92368B3F1007F40F0D2
:102580009480044A136823F08063136000F0B4FA67
:10259000064607E00038024000F0AEFA801B6428CF
:1025A00000F212818E4B1B6813F0006FF4D1236888
:1025B00013F0010F13D0636B8BB98949D1F88420D4
:1025C000D1F88430606802F4403242EA801203F0AD
:1025D00070631343A26843EA0273C1F8843023682E
:1025E00013F4002F03D0E26BB2F5801F06D013F472
:1025F000801F1ED0236CB3F5800F1AD1784AD2F811
:102600008430D2F88410606803F4403343EA8013C6
:10261000E06843EA006301F0E0410B43C2F8843014
:10262000D2F88C3023F01F01636A013B0B43C2F8E0
:102630008C30236813F0807F11D06948D0F8842053
:10264000D0F8843066682169090441EA861102F0F5
:1026500070620A4303F0E0431343C0F884302368F8
:1026600013F0007F0DD0626823691B0443EA8213D4
:10267000E26843EA0263A26843EA0273584AC2F876
:102680008430574A136843F08063136000F034FAD3
:10269000064605E000F030FA801B642800F29680C0
:1026A0004F4B1B6813F0006FF4D0002D00F09080AA
:1026B0004B4A136823F08053136000F01DFA05465F
:1026C00005E000F019FA401B642800F28380444BB7
:1026D0001B6813F0005FF4D1236813F4002F01D0BE
:1026E000E26B22B113F4801F1DD0236CDBB93C4A8E
:1026F000D2F88830D2F88810606903F4403343EA96
:102700008013A06943EA006301F0E0410B43C2F883
:102710008830D2F88C3023F4F853A16A013943EAA7
:102720000123C2F88C30236813F4001F15D0E36F27
:10273000B3F1006F11D12A48D0F88820D0F8883042
:102740006569216A090441EA851102F070620A4351
:1027500003F0E0431343C0F88830236813F0080FF8
:1027600019D01F4AD2F88830D2F88810606901F475
:10277000403141EA801103F070630B43E16943EAA1
:102780000173C2F88830D2F88C3023F44031E36A08
:102790000B43C2F88C30124A136843F08053136025
:1027A00000F0AAF9044604E000F0A6F9001B642832
:1027B00012D80B4B1B6813F0005FF5D000200CE023
:1027C00003200AE0032008E0032006E0032004E0E1
:1027D000002002E0032000E0032003B0F0BD00BFB2
:1027E000003802402DE9F04182B00023DEE09C4633
:1027F00001229A400C681440944240F0D6804D6803
:10280000122D18BF022D14D14FEAD30808F1080881
:1028100050F8287003F0070E4FEA8E0E0F2505FAC8
:102820000EF527EA05060D6905FA0EF5354340F861
:10283000285006684FEA430E032505FA0EF5ED43CE
:1028400005EA06074E6806F0030606FA0EF63E4352
:1028500006604E68771E112E18BF012F01D9122E67
:1028600012D1866805EA0607CE6806FA0EF63E43E0
:102870008660476827EA02074E68C6F3001202FA2C
:102880000CF646EA07024260C2682A408D6805FAE3
:102890000EF51543C5604A6812F0805F00F0858030
:1028A000454A556C45F480455564526C02F48042AB
:1028B0000192019A9A08961C404D55F8266003F043
:1028C0000307BF000F25BD4026EA05063C4DA84280
:1028D00037D005F58065A84231D005F58065A8425E
:1028E0002BD005F58065A84225D005F58065A84266
:1028F0001FD005F58065A84219D005F58065A8426E
:1029000013D005F58065A8420DD005F58065A84275
:1029100007D005F58065A84201D1092512E00A25F6
:1029200010E008250EE007250CE006250AE0052545
:1029300008E0042506E0032504E0022502E0012565
:1029400000E00025BD40354302321C4E46F82250BF
:102950001C4A1568E24302EA05064F6817F4803FF7
:1029600001D044EA0506174D2E606D6802EA05069F
:102970004F6817F4003F01D044EA0506114D6E6020
:10298000AD6802EA05064F6817F4801F01D044EADB
:1029900005060C4DAE60ED682A404E6816F4001F27
:1029A00001D044EA0502074CE26001330F2B7FF6A9
:1029B0001EAF02B0BDE8F08100380240003801408F
:1029C00000000240003C01400AB1816170470904E7
:1029D0008161704790F83530DBB2022B03D0802341
:1029E000436501207047052380F83530026813687D
:1029F00023F0010313600020704700BF10B582B0C0
:102A00001C4B1A6C42F080521A641B6C03F080530A
:102A10000193019B184A136843F48033136000F05C
:102A20006BF8044605E000F067F8001BB0F57A7F0C
:102A30001AD8114B5B6813F4803FF4D00E4A136828
:102A400043F40033136000F057F8044605E000F04B
:102A500053F8001BB0F57A7F08D8074B5B6813F476
:102A6000003FF4D0002002E0032000E0032002B089
:102A700010BD00BF003802400070004010B5044691
:102A80000E4B18784FF47A73B3FBF0F30C4A1068CE
:102A9000B0FBF3F0FEF7BAFB58B90F2C0BD84FF090
:102AA000FF3021460022FEF775FB064B1C6000201C
:102AB00010BD012010BD012010BD00BF0800002086
:102AC0000C0000200400002008B50320FEF750FB96
:102AD0000F20FFF7D3FFFEF7D3FA002008BD00BF99
:102AE000034A1368034909780B441360704700BF19
:102AF000883E002008000020014B1868704700BF86
:102B0000883E002038B50446FFF7F6FF0546B4F1CD
:102B1000FF3F02D0044B1B781C44FFF7EDFF401B26
:102B20008442FAD838BD00BF0800002010B40F4A14
:102B3000D2F8883043F47003C2F888300C4B19681F
:102B400041F001011960002098601C68094921408A
:102B5000196009495960196821F480211960D86009
:102B60004FF0006393605DF8044B704700ED00E0A8
:102B700000380240FFFFF6FE10300024124A12F027
:102B8000070F07D0D11D21F00701C1F57053134481
:102B90000A4601E04FF470530C4802600021416086
:102BA0001344083B23F00703094803605960196088
:102BB000991A51601360074B1960074B19604FF069
:102BC0000042064B1A607047CC000020C400002071
:102BD000C0000020D03C0020BC000020CC3C0020E5
:102BE000134A00E01A4613688342FBD310B45168BD
:102BF0005418844203D14068014451601046416832
:102C000044189C420CD10B4C2468A34206D05B684C
:102C10001944416013681B68036002E0046000E02F
:102C20000360824200D010605DF8044B704700BF23
:102C3000C4000020C000002070B5044600F09AFCDB
:102C4000354B1B680BB9FFF799FF344B1B681C42CF
:102C500049D134B1083414F0070F02D024F007042E
:102C60000834002C41D02E4B1B689C423FD82D4B82
:102C70001D6801E02B4615466A68A24202D22A6806
:102C8000002AF7D1244A1268954232D01E680836CD
:102C90002A681A606B681B1B102B12D9281910F0B8
:102CA000070F0AD04FF0500372B683F31188BFF3B9
:102CB0006F8FBFF34F8F62B6FEE743606C60FFF724
:102CC0008FFF6A6816490B689B1A0B6016490968E2
:102CD0008B4201D214490B60104B1B6813436B608D
:102CE00000232B6006E0002604E0002602E0002618
:102CF00000E0002600F0E6FC16F0070F0AD04FF0C7
:102D0000500372B683F31188BFF36F8FBFF34F8FF9
:102D100062B6FEE7304670BDC0000020CC3C00200B
:102D2000BC000020C4000020D03C0020002838D087
:102D300038B50346A0F1080550F8042C1949096874
:102D400012EA01040AD14FF0500372B683F31188DE
:102D5000BFF36F8FBFF34F8F62B6FEE750F8080CDA
:102D600050B14FF0500372B683F31188BFF36F8FE9
:102D7000BFF34F8F62B6FEE794B188B91C4622EAD2
:102D8000010243F8042C00F0F5FB54F8041C064A39
:102D900013680B4413602846FFF722FF00F092FCF3
:102DA00038BD7047CC3C0020BC0000200D4B1B6898
:102DB000B3F1FF3F0AD04FF0500372B683F311888E
:102DC000BFF36F8FBFF34F8F62B6FEE74FF0500334
:102DD00072B683F31188BFF36F8FBFF34F8F62B664
:102DE000FEE700BF1000002006480068006880F37E
:102DF000088862B661B6BFF34F8FBFF36F8F00DFF5
:102E000000BF000008ED00E0DFF80C00016841F4AD
:102E1000700101607047000088ED00E04FF08073A2
:102E200040F8043C21F0010140F8081C054B40F833
:102E30000C3C40F8202C6FF0020340F8243C44384E
:102E4000704700BFAD2D000800000000000000002A
:102E5000074B19680868B0E8F04F80F30988BFF3A2
:102E60006F8F4FF0000080F311887047AFF3008040
:102E70009C3D00204FF0500372B683F31188BFF3DE
:102E80006F8FBFF34F8F62B60B4A13680133136025
:102E9000012B0FD1094B1B6813F0FF0F0AD04FF025
:102EA000500372B683F31188BFF36F8FBFF34F8F58
:102EB00062B6FEE7704700BF1000002004ED00E09E
:102EC0000A4B1B6853B94FF0500372B683F3118855
:102ED000BFF36F8FBFF34F8F62B6FEE7013B034A2C
:102EE00013600BB983F31188704700BF10000020F6
:102EF000EFF30980BFF36F8F154B1A681EF0100FA8
:102F000008BF20ED108A20E9F04F10604DF8043D15
:102F10004FF0500072B680F31188BFF34F8FBFF3AC
:102F20006F8F62B600F0B4FC4FF0000080F31188A0
:102F300008BC19680868B0E8F04F1EF0100F08BF11
:102F4000B0EC108A80F30988BFF36F8F704700BF21
:102F50009C3D002008B54FF0500372B683F31188F2
:102F6000BFF36F8FBFF34F8F62B600F017FB18B13E
:102F70004FF08052024B1A60002383F3118808BD82
:102F800004ED00E0064B1B68064AA2FB03239B09E5
:102F9000013B054A13600722044B1A60704700BFCB
:102FA0000C000020D34D621014E000E010E000E0BF
:102FB00000B583B0224B1A78D2B20192FF221A7068
:102FC0001B78DBB28DF803309DF8033003F050031B
:102FD0001C4A137007221C4B1A6009E01A4A136836
:102FE000013B13609DF803305B00DBB28DF80330CA
:102FF0009DF8033013F0800FF0D1134A13681B02C1
:1030000003F4E0631360019BDBB20D4A13700F4BB6
:103010001A6842F470021A601A6842F070421A602C
:10302000FFF7B0FF00220A4B1A60FFF7EDFE094AD6
:10303000136843F040431360FFF7D6FEFFF7B6FE78
:1030400000E400E0D43C0020D83C002020ED00E06B
:103050001000002034EF00E0024650B94FF050035A
:1030600072B683F31188BFF36F8FBFF34F8F62B6D1
:10307000FEE741690A4B994201D1012300E0002398
:1030800043B1926A07498A4206D002B100232BB9A4
:1030900000207047002070470020704701207047D3
:1030A000EC3D0020A03D00200A4B1B681B680BB9BB
:1030B000012300E0002323B14FF0FF32064B1A60DA
:1030C0007047044B1B68DB68DB685A68024B1A6068
:1030D000704700BFE03C0020BC3D002010B5044616
:1030E000006BFFF723FE2046FFF720FE10BD00BF58
:1030F0002DE9F04781469846089D099F0A9C236B5D
:103100006FF04046164403EB860626F007060023C0
:1031100006E0C85CE21882F83400CA5C12B10133E0
:103120000F2BF6D9002384F84330062D00D906254D
:10313000E56265644FF0000AC4F848A0201D01F064
:1031400003F904F1180001F0FFF82461C5F1070547
:10315000A5616462C4F84CA084F850A0304649468A
:103160004246FFF75BFE206007B13C60BDE8F08798
:1031700038B5002407E004EB84039B000E48184494
:1031800001F0D6F80134062CF5D90C4D284601F093
:10319000CFF80B4C204601F0CBF80A4801F0C8F8F4
:1031A000094801F0C5F8094801F0C2F8084B1D6054
:1031B000084B1C6038BD00BF043D0020C43D00200A
:1031C000D83D0020A03D0020E83C0020EC3D002040
:1031D000E03C0020FC3C002010B50446FFF74AFE0E
:1031E000204A1368013313601F4B1B683BB91E4B09
:1031F0001C601368012B0DD1FFF7BAFF0AE01B4BCF
:103200001B683BB9184B1B68DA6AE36A9A4201D81B
:10321000154B1C60164A136801331360E06A0123E2
:10322000834014490A6813430B6000EB8000800060
:10323000114B1844211D01F08BF8FFF741FE0B4B99
:103240001B686BB1084B1B68DA6AE36A9A4207D2C3
:103250004FF08052094B1A60BFF34F8FBFF36F8F4F
:1032600010BD00BF983D00209C3D0020E43C0020A4
:10327000C03D0020003E0020043D002004ED00E0A1
:1032800070B504460E461F4B1D681F4B186804306E
:1032900001F084F848B91C4B1B68DA6A012393409B
:1032A0001A490A6822EA03030B60B4F1FF3F14BF16
:1032B00000230123002E08BF002333B1124B1968ED
:1032C0001348043101F044F870BD2C440E4B1B68C8
:1032D0005C60AC4207D20F4B18680B4B1968043185
:1032E00001F042F870BD0C4B1868074B19680431A7
:1032F00001F03AF8094B1B689C4201D2074B1C6055
:1033000070BD00BFB83D00209C3D0020003E002065
:10331000EC3D0020FC3C0020E03C0020BC3D0020B7
:103320002DE9F04385B080460F4615461E469000B5
:10333000FFF782FC60B181465420FFF77DFC044614
:1033400010B1C0F8309004E04846FFF7EFFC00E011
:1033500000248CB10C9B00930D9B019302940023DD
:103360000393404639462A463346FFF7C1FE2046BE
:10337000FFF732FF012001E04FF0FF3005B0BDE85C
:10338000F08300BF38B50446FFF774FD0CB92B4B32
:103390001C68251D284601F001F870B9E26A02EBAD
:1033A00082039B002649CB583BB9012303FA02F262
:1033B00024490B6823EA02030B60A36A1BB104F1E2
:1033C000180000F0EBFF204A1368013313601B4B19
:1033D0001B689C4208D11D48294600F0B9FF1C4AD1
:1033E00013680133136008E01A4A1368013B136045
:1033F0002046FFF773FEFFF757FEFFF761FD164B00
:103400001B68CBB10D4B1B689C4215D1134B1B683D
:1034100053B14FF0500372B683F31188BFF36F8F2F
:10342000BFF34F8F62B6FEE74FF080520C4B1A602D
:10343000BFF34F8FBFF36F8F38BD00BF9C3D00209F
:10344000043D0020003E0020C03D0020E83C00205C
:10345000943D0020983D0020E43C0020903D002059
:1034600004ED00E038B550B94FF0500372B683F365
:103470001188BFF36F8FBFF34F8F62B6FEE704462C
:1034800068B3174B1B68984229D0FFF7F3FC20461E
:10349000FFF7E2FD08B3251D284600F07FFFE36A31
:1034A000012202FA03F10F4802680A43026003EBAB
:1034B00083039B000C481844294600F049FFE26A48
:1034C000074B1B68DB6A9A4207D34FF08052074BC9
:1034D0001A60BFF34F8FBFF36F8FFFF7F1FC38BD5A
:1034E0009C3D0020003E0020043D002004ED00E053
:1034F00000B583B000230093184A01921848194977
:103500008022FFF70DFF012816D14FF0500372B64D
:1035100083F31188BFF36F8FBFF34F8F62B64FF005
:10352000FF32114B1A600122104B1A600022104B1F
:103530001A60FFF73DFD0DE0B0F1FF3F0AD14FF0FB
:10354000500372B683F31188BFF36F8FBFF34F8FB1
:1035500062B6FEE703B05DF804FB00BFB43D002097
:1035600069380008785C0008BC3D0020E43C00207D
:10357000B83D0020024A136801331360704700BF52
:10358000903D0020014B1868704700BFB83D0020F7
:10359000014B1868704700BF983D0020F8B53E4BBE
:1035A0001B68002B6BD13D4B1D6801351D60D5B9E3
:1035B0003B4B1B681B6853B14FF0500372B683F34B
:1035C0001188BFF36F8FBFF34F8F62B6FEE7344AA7
:1035D0001168344B186810601960334A136801335E
:1035E0001360FFF761FD314B1B689D4203D200243D
:1035F0003AE0012400E00024294B1B681B680BB94A
:10360000012300E0002323B14FF0FF32274B1A6063
:103610002AE0234B1B68DB68DE6873689D4202D298
:10362000224A136020E0371D384600F0B7FEB36A27
:103630001BB106F1180000F0B1FEF36A012202FA94
:1036400003F11B4802680A43026003EB83039B00FB
:1036500018481844394600F07BFEF26A164B1B6886
:10366000DB6A9A42C5D2C7E7134B1B68DB6A03EBE0
:1036700083039B000F4AD358012B06D806E00F4A5C
:10368000136801331360002400E001240C4B1B6815
:1036900003B101242046F8BD903D0020B83D002034
:1036A000E03C0020FC3C0020DC3C0020BC3D002035
:1036B000003E0020043D00209C3D0020003D0020F5
:1036C000043E002038B5354B1B6853B94FF050030A
:1036D00072B683F31188BFF36F8FBFF34F8F62B65B
:1036E000FEE7FFF7C7FB2D4B1A68013A1A601B680B
:1036F000002B4CD12A4B1B6833BB00244AE0294BDA
:10370000DB68DC6804F1180000F048FE251D28463F
:1037100000F044FEE36A012202FA03F12248026843
:103720000A43026003EB83039B00204818442946A8
:1037300000F00EFEE26A1E4B1B68DB6A9A4204D35D
:1037400001221C4B1A6000E00024164B1B68002B62
:10375000D5D10CB1FFF7A8FC174B1C6854B1FFF78B
:103760001DFF10B10122134B1A60013CF7D100225A
:10377000114B1A600F4B1B685BB14FF080520F4B1F
:103780001A60BFF34F8FBFF36F8F012402E0002454
:1037900000E00024FFF794FB204638BD903D002058
:1037A000983D0020A03D0020003E0020043D002068
:1037B0009C3D0020043E0020003D002004ED00E080
:1037C00010B5B8B10446114B1B6853B14FF050030C
:1037D00072B683F31188BFF36F8FBFF34F8F62B65A
:1037E000FEE7FFF7C7FE20460021FFF749FDFFF780
:1037F00069FF00E0002038B94FF08052044B1A6096
:10380000BFF34F8FBFF36F8F10BD00BF903D0020FF
:1038100004ED00E010B51BE0FFF7ACFE0F4B1C6899
:10382000FFF750FFA4B1FFF725FB0C4BDB68DC680A
:10383000201D00F0B3FD0A4A1368013B1360094ADA
:103840001368013B1360FFF73BFB2046FFF746FC84
:10385000044B1B68002BDFD110BD00BFE83C0020EB
:10386000983D0020943D002008B5FFF7D3FF064B9C
:103870001B68012BF9D94FF08052044B1A60BFF33B
:103880004F8FBFF36F8FF0E7043D002004ED00E0A1
:10389000214B1B681BB10122204B1A60704700228C
:1038A0001E4B1A601E4B1B68B3FA83F3DBB2C3F1E5
:1038B0001F0303EB830292001A498A5852B94FF052
:1038C000500372B683F31188BFF36F8FBFF34F8F2E
:1038D00062B6FEE710B4134C9A00D1188900214457
:1038E0004868406848601A44920008322244904276
:1038F00005D1416803EB830292002244516003EB3F
:1039000083039B00074A13445B68DA68064B1A601E
:103910005DF8044B704700BF903D0020043E00203E
:10392000003E0020043D00209C3D002038B50446A8
:10393000FFF7A0FA0CB92B4B1C68251D284600F098
:103940002DFD70B9E26A02EB82039B002649CB5839
:103950003BB9012303FA02F224490B6823EA02036C
:103960000B60A36A1BB104F1180000F017FD20489A
:10397000294600F0EDFCFFF7A3FA1E4B1B682BB1A4
:10398000FFF778FAFFF790FBFFF79AFA154B1B68E1
:103990009C4225D1174B1B68B3B1174B1B6853B121
:1039A0004FF0500372B683F31188BFF36F8FBFF3EC
:1039B0004F8F62B6FEE74FF08052104B1A60BFF394
:1039C0004F8FBFF36F8F38BD094B1A680C4B1B68C4
:1039D0009A4203D10022034B1A6038BDFFF758FF0B
:1039E00038BD00BF9C3D0020043D0020003E00206B
:1039F000EC3D0020E43C0020903D002004ED00E080
:103A0000983D002050B94FF0500372B683F31188EF
:103A1000BFF36F8FBFF34F8F62B6FEE710B50C4652
:103A2000044B1968183100F09FFC20460121FFF774
:103A300027FC10BD9C3D002038B5C368DC6854B934
:103A40004FF0500372B683F31188BFF36F8FBFF34B
:103A50004F8F62B6FEE704F11805284600F09EFC81
:103A6000134B1B68A3B9251D284600F097FCE36A99
:103A7000012202FA03F10F4802680A43026003EBD5
:103A800083039B000C481844294600F061FC03E0C6
:103A90000A48294600F05CFCE26A094B1B68DB6AB5
:103AA0009A4203D90120074B186038BD002038BD69
:103AB000903D0020003E0020043D0020A03D00205D
:103AC0009C3D0020043E002050B94FF0500372B6D8
:103AD00083F31188BFF36F8FBFF34F8F62B6FEE79A
:103AE000034A12680260034A12684260704700BFCE
:103AF000DC3C0020B83D002038B550B94FF05003F1
:103B000072B683F31188BFF36F8FBFF34F8F62B626
:103B1000FEE7044651B94FF0500372B683F31188A3
:103B2000BFF36F8FBFF34F8F62B6FEE70D46FFF70F
:103B3000A1F9114B19682A68B2F1FF3F13D0206830
:103B40000E4B1B68984202D063688B420DD96368A4
:103B5000C81A82420BD95B1A13442B602046FFF728
:103B6000B3FF002404E0002402E0012400E001246B
:103B7000FFF7A6F9204638BDB83D0020DC3C002008
:103B80000122014B1A607047043E0020054B1B6860
:103B900023B1054B1B681BB90220704701207047F9
:103BA00000207047E43C0020903D0020002849D0D0
:103BB00038B50346C16A244A1268D26A914240D29B
:103BC0008269002A05DB204A1268D26AC2F1070224
:103BD00082615969DA6A02EB820292001B48024450
:103BE000914201D1012200E0002232B31C461D1D8A
:103BF000284600F0D3FB68B9E26A02EB82039B001F
:103C00001249CB5833B90123934011490A6822EA7B
:103C100003030B600C4B1B68D86AE06201238340EE
:103C20000B490A6813430B6000EB80008000074BD0
:103C30001844294600F08CFB38BD034A1268D26A4A
:103C4000DA6238BD704700BF9C3D0020043D002073
:103C5000003E002000284FD038B50346294A12689C
:103C600090420AD04FF0500372B683F31188BFF32D
:103C70006F8FBFF34F8F62B6FEE7826C52B94FF081
:103C8000500372B683F31188BFF36F8FBFF34F8F6A
:103C900062B6FEE7013A8264C06A596C88422DD050
:103CA00072BB1C461D1D284600F078FB70B9E26A05
:103CB00002EB82039B001449CB583BB9012303FA62
:103CC00002F212490B6823EA02030B60606CE062A7
:103CD000C0F10703A361012404FA00F10B4A136841
:103CE0000B43136000EB80008000074B184429460B
:103CF00000F02EFB204638BD00207047002038BD64
:103D0000002038BD9C3D0020043D0020003E0020E6
:103D1000054B1B6823B1044B1A68936C0133936401
:103D2000014B1868704700BF9C3D002010B5044649
:103D3000FFF7A0F8A26BE36B9A4201D1012400E0E7
:103D40000024FFF7BDF8204610BD00BF10B50446A3
:103D5000FFF790F8A36B0BB9012400E00024FFF7F4
:103D6000AFF8204610BD00BF70B504461646856BFF
:103D7000026C3AB9036843BB4068FFF76BFF00234E
:103D8000636029E06EB9806800F09AFBA268236C3A
:103D90001344A3606268934219D32368A360002090
:103DA0001AE0C06800F08CFB236C5B42E2681A44A6
:103DB000E26021688A4202D262681344E360022E04
:103DC00007D145B1013D002006E0002004E00020BD
:103DD00002E0002000E000200135A56370BD00BFB7
:103DE000026C72B110B5C3681344C3604468A34247
:103DF00001D30368C36003460846D96800F060FB3E
:103E000010BD704738B50546FFF734F895F84540C2
:103E1000E4B20AE06B6A5BB105F12400FFF70CFE27
:103E200008B1FFF7ADFE013CE4B263B2002BF1DC58
:103E3000FF2385F84530FFF743F8FFF71BF895F8A7
:103E40004440E4B20AE02B695BB105F11000FFF7D2
:103E5000F3FD08B1FFF794FE013CE4B263B2002B1E
:103E6000F1DCFF2385F84430FFF72AF838BD00BFA6
:103E700038B550B94FF0500372B683F31188BFF3D1
:103E80006F8FBFF34F8F62B6FEE704460D46FEF715
:103E9000F1FF2168E26B236C03FB021060600020DD
:103EA000A063A160013A02FB0313E360FF2384F8DF
:103EB000443084F845307DB92369ABB104F110007A
:103EC000FFF7BAFD80B14FF08052094B1A60BFF383
:103ED0004F8FBFF36F8F07E004F1100000F028FA56
:103EE00004F1240000F024FAFEF7EAFF012038BDB7
:103EF00004ED00E010B5029B0C4609B91B6000E020
:103F00001A60D8631C6418460121FFF7B1FF10BD89
:103F100050B94FF0500372B683F31188BFF36F8F1F
:103F2000BFF34F8F62B6FEE7F0B583B0034611B121
:103F300001FB00F000E000201D4617460C4648300B
:103F4000FEF77AFE064638B100902846214606F173
:103F500048023B46FFF7CEFF304603B0F0BD00BF3E
:103F6000F0B585B0019250B94FF0500372B683F3AB
:103F70001188BFF36F8FBFF34F8F62B6FEE7044621
:103F800019B9026C1AB9012202E0012200E00022F4
:103F900052B94FF0500372B683F31188BFF36F8F9D
:103FA000BFF34F8F62B6FEE7022B03D1E26B012A0B
:103FB00002D102E0012200E0002252B94FF050038A
:103FC00072B683F31188BFF36F8FBFF34F8F62B662
:103FD000FEE71D460E46FFF7D9FD18B9019B1BB938
:103FE000012302E0012300E0002353B94FF0500306
:103FF00072B683F31188BFF36F8FBFF34F8F62B632
:10400000FEE70027FEF736FFA26BE36B9A4201D36F
:10401000022D21D1204631462A46FFF7A5FE636ACC
:104020006BB104F12400FFF707FD88B14FF0805217
:10403000324B1A60BFF34F8FBFF36F8F08E038B178
:104040004FF080522D4B1A60BFF34F8FBFF36F8F2D
:10405000FEF736FF01204EE0019B1BB9FEF730FF53
:10406000002048E01FB902A8FFF72EFD0127FEF748
:1040700027FFFFF77FFAFEF7FDFE94F844305BB2AE
:10408000B3F1FF3F02D1002384F8443094F8453067
:104090005BB2B3F1FF3F02D1002384F84530FEF755
:1040A0000FFF02A801A9FFF727FDF0B92046FFF78F
:1040B0003DFEA0B104F110000199FFF7A3FC2046DA
:1040C000FFF7A0FEFFF7FEFA00289BD14FF08052C9
:1040D0000A4B1A60BFF34F8FBFF36F8F92E72046F2
:1040E000FFF790FEFFF7EEFA8CE72046FFF78AFE17
:1040F000FFF7E8FA002005B0F0BD00BF04ED00E0D6
:1041000048B108B5002343600360C36019461A46EE
:10411000FFF726FF08BD704710B5024601200021B9
:10412000FFF7F6FE0446FFF7EBFF204610BD00BF89
:104130002DE9F04184B0019250B94FF0500372B6AE
:1041400083F31188BFF36F8FBFF34F8F62B6FEE723
:10415000044619B9026C1AB9012202E0012200E0FA
:10416000002252B94FF0500372B683F31188BFF3A7
:104170006F8FBFF34F8F62B6FEE71F468846FFF78B
:1041800005FD18B9019B1BB9012302E0012300E0E2
:10419000002353B94FF0500372B683F31188BFF375
:1041A0006F8FBFF34F8F62B6FEE70026FEF762FE09
:1041B000A56B85B3E66820464146FFF711FEB7B907
:1041C000013DA563236813B9FFF7A2FD6060236971
:1041D000EBB104F11000FFF72FFCC0B14FF080529B
:1041E0003D4B1A60BFF34F8FBFF36F8F0FE0E66058
:1041F000636A63B104F12400FFF71EFC38B14FF08D
:104200008052354B1A60BFF34F8FBFF36F8FFEF7AD
:1042100057FE01205DE0019B1BB9FEF751FE002017
:1042200057E01EB902A8FFF74FFC0126FEF748FE33
:10423000FFF7A0F9FEF71EFE94F844305BB2B3F12D
:10424000FF3F02D1002384F8443094F845305BB23C
:10425000B3F1FF3F02D1002384F84530FEF730FE72
:1042600002A801A9FFF748FC38BB2046FFF76EFD06
:10427000E8B1236833B9FEF7FDFD6068FFF796FCEF
:10428000FEF71EFE04F124000199FFF7BBFB204658
:10429000FFF7B8FDFFF716FA002887D14FF08052DC
:1042A0000D4B1A60BFF34F8FBFF36F8F7EE7204631
:1042B000FFF7A8FDFFF706FA78E72046FFF7A2FD13
:1042C000FFF700FA2046FFF741FD00283FF46EAFEC
:1042D000002004B0BDE8F08104ED00E000230EE012
:1042E000084A02EBC3025268824207D1054A002104
:1042F00042F8331002EBC303596070470133072BB8
:10430000EED970478C3E002050B94FF0500372B682
:1043100083F31188BFF36F8FBFF34F8F62B6FEE751
:1043200010B50446FFF7DAFF2046FEF7FFFC10BD8C
:1043300000F1080343604FF0FF328260C360036105
:1043400000230360704700BF00230361704700BF74
:1043500043684B609A688A609A6851609960086106
:10436000036801330360704730B40D68B5F1FF3F57
:1043700001D1026907E000F1080200E01A46536823
:104380001C68AC42FAD953684B6099608A605160EE
:10439000086103680133036030BC704703694268F9
:1043A000816891608268416851605A68824201D197
:1043B00082685A60002202611868013818607047EC
:1043C00008B5FFF7E3FB012801D0FEF7C3FD08BDE8
:1043D000DFF834D0002103E00C4B5B58435004312C
:1043E0000B480C4B42189A42F6D30B4A02E00023CA
:1043F00042F8043B094B9A42F9D3FEF797FB00F0D1
:1044000029F8FCF7C5FC704700000820C8640008C4
:10441000000000207C0000207C000020D03E002016
:10442000FEE700210A2200F057BC000008B5074B48
:10443000044613B10021AFF30080054B1868836A6E
:1044400003B19847204601F0CBFB00BF00000000FD
:10445000845C000870B50E4B00250E4C1E46E41A15
:10446000A410A54204D056F8253001359847F8E746
:1044700001F0B8FB084C094B0025E41A1E46A410B5
:10448000A54204D056F8253001359847F8E770BDAD
:10449000C0640008C0640008C4640008C064000868
:1044A000024B0146186800F063B800BF740000209A
:1044B000024B0146186800F017B800BF74000020D6
:1044C000431E0A4410B5914204D011F8014B03F881
:1044D000014FF8E710BD02440346934202D003F8AF
:1044E000011BFAE77047000030B500293DD051F8B4
:1044F000042C0B1F1D49002A0C46B8BF9B180A68E4
:1045000012B95A600B6030BD93420DD21968581829
:10451000904201BF5A5852181A60426823605A608C
:1045200030BD994203D80A4651680029F9D1146870
:1045300015199D420AD11B682344D0181360884284
:1045400013D10868034413604B680DE002D90C23B3
:10455000036030BD1C681819884202BF08684968AA
:104560000019596008BF1860536030BD0C3E002030
:1045700070B5CC1C064624F0030408340C2C38BF5C
:104580000C24002C03DA0C230020336070BD8C4215
:10459000F9D3204A136810461946A1B10A68121BC4
:1045A0000ED40B2A03D90A608B188C501FE08B4263
:1045B0000BBF5A684A6802605A6018BF0B4616E083
:1045C0000B464968E9E7144D2B681BB9304600F0EB
:1045D000D3F828603046214600F0CEF8421C03464E
:1045E000D1D0C51C25F0030585420AD11C6003F11A
:1045F0000B001A1D20F00700821A0AD05142995070
:1046000070BD3046E91A00F0B7F80130BBD02B4638
:10461000ECE770BD0C3E0020083E002037B50D468B
:10462000044618B183690BB900F01AFD4DB12B781F
:104630003BB1E168284600F0FFFD0A48E16800F060
:10464000FBFD20462168012201AB00F0D1F810B13A
:10465000E16800F0F1FDE1680A2000F08FFD03B091
:1046600030BD00BF885C0008024B01461868FFF7A8
:10467000D5BF00BF7400002070B50E46054618B1C6
:1046800083690BB900F0ECFCAB69AC6813B9284640
:1046900000F0E6FC314B9C4201D16C6808E0304BE5
:1046A0009C4201D1AC6803E02E4B9C4208BFEC68F1
:1046B000A389190701D5236983B92846214600F04B
:1046C0006FFB58B14FF0FF3070BD002B0EDB23683D
:1046D00016F8012C1A70236801332360A36816F8BA
:1046E000012B013BA360002AEFD116E0A26993429F
:1046F00009DB236816F8012C1A70236819780A2937
:10470000EAD1284602E0284616F8011C224600F0AD
:10471000F3FA421C50425041D3E7002B15DAA2694C
:10472000934208DB23680A221A70236819789142A1
:104730000FD1284601E028460A21224600F0DCFA83
:10474000431C5842584130B1BCE723680A221A7012
:104750002368013323600A2070BD00BF2464000871
:104760004464000864640008024B01461868FFF7BF
:1047700083BF00BF7400002038B50023054C0546F8
:104780000846236001F016FA431C02D1236803B1E6
:104790002B6038BDCC3E00200EB44FF4027100B542
:1047A0009CB0ADF814106FF000411DAB0290049165
:1047B00007914FF6FF7153F8042BADF81610074917
:1047C0000690086802A9019300F004FE0022029BF3
:1047D0001A701CB05DF804EB03B070477400002041
:1047E000034611F8012B03F8012B002AF9D1704779
:1047F00010B5044608468E2800F22F81DFE810F03D
:1048000039018F00910093009500970099009B005B
:104810009D00A100A300A700A900AB00AD002D01E1
:10482000AF00B100B300B500B700BD00BF00C500C8
:10483000C700C900CB00CD00D100D500D700D900FA
:10484000DB00DD00DF00E100E3002D012D012D0183
:104850002D012D012D012D012D01E700EB002D0172
:104860002D012D012D012D012D012D012D012D01D8
:104870002D012D012D012D01ED000701EF00F100AB
:104880002D012D012D01F3002D012D012D01F5002C
:104890002D012D01F9002D012D01FB002D012D0110
:1048A0002D012D012D012D012D012D012D012D0198
:1048B000FD002D01FF00010103012D012D01250146
:1048C0002D012D012D012D012D012D012D012D0178
:1048D0001301050109010B010D010F012D0111014A
:1048E00015011901E900C1002B01B900CF00BB007F
:1048F0009F00A5002901F7002D011701C3001D012C
:104900001B012D012D012D012D012D01D3002D01A4
:104910002D012D01E50027011F012101230156482A
:1049200010BD564810BD564810BD564810BD5648DB
:1049300010BD564810BD564810BD564810BD5648CB
:1049400010BD564810BD564810BD564810BD5648BB
:1049500010BD564810BD564810BD564810BD5648AB
:1049600010BD564810BD564810BD564810BD56489B
:1049700010BD564810BD564810BD564810BD56488B
:1049800010BD564810BD564810BD564810BD56487B
:1049900010BD564810BD564810BD564810BD56486B
:1049A00010BD564810BD564810BD564810BD56485B
:1049B00010BD564810BD564810BD564810BD56484B
:1049C00010BD564810BD564810BD564810BD56483B
:1049D00010BD564810BD564810BD564810BD56482B
:1049E00010BD564810BD564810BD564810BD56481B
:1049F00010BD564810BD564810BD564810BD56480B
:104A000010BD564810BD564810BD564810BD5648FA
:104A100010BD564810BD564810BD564810BD5648EA
:104A200010BD564810BD564810BD564810BD5648DA
:104A300010BD564810BD564810BD564810BD5648CA
:104A400010BD564810BD564810BD564810BD5648BA
:104A500010BD564810BD564810BD1146002B14BF5E
:104A60001A46224600F046F9524B002808BF184665
:104A700010BD514810BD00BF935C00089D5C00084C
:104A8000B75C0008C75C0008DF5C0008E95C000850
:104A9000035D0008155D0008275D0008405D000803
:104AA000505D00085C5D0008795D00088B5D0008C2
:104AB0009C5D0008AE5D0008BA5D0008D25D00088C
:104AC000DE5D0008F05D0008FF5D00080F5E000875
:104AD0001C5E00083B5E00084A5E00085B5E000842
:104AE0007F5E00089D5E0008BB5E0008DB5E00087C
:104AF000F25E0008015F0008105F0008245F0008F4
:104B00003C5F00084A5F0008575F00086D5F0008BF
:104B10007C5F0008885F0008B75F0008C85F000876
:104B2000E35F0008F65F00080C60000815600008ED
:104B30002C600008346000084160000856600008DE
:104B40006A6000088260000891600008A2600008A6
:104B5000B5600008C1600008DA600008EE60000877
:104B600009610008216100083B61000843610008F9
:104B70007361000892610008B1610008C861000813
:104B8000DB610008F46100080B6200082162000884
:104B9000426200085A6200087662000889620008D2
:104BA0009F620008B3620008D5620008FB6200083B
:104BB0000C630008896400088B5C0008034613F846
:104BC000012B002AFBD1181A013870472DE9F04754
:104BD000404C0F46D4F800903D4615F801EB09EB28
:104BE0000E04667806F0080404F0FF060CB12F46A8
:104BF000F2E774462D2C03D1BD1C7C78012603E01E
:104C00002B2C04BFBD1C7C7813B1102B0AD15BE0A8
:104C1000302C57D12C7804F0DF04582C4DD16C780F
:104C200010230235002E4FF0000714BF4FF000484C
:104C30006FF00048BE46B8FBF3FA03FB1A8809EB95
:104C4000040C9CF801C01CF0040F01D0303C0BE0B8
:104C50001CF0030C1BD0BCF1010F0CBF4FF0370C44
:104C60004FF0570CCCEB04049C4210DAB7F1FF3F35
:104C70000AD0D64506D801D1444503DC03FB0E4ECD
:104C8000012701E04FF0FF3715F8014BD7E77C1CF7
:104C900073460AD1002E4FF0220114BF4FF000439B
:104CA0006FF0004301602AB911E00EB1CEF10003AC
:104CB0006AB107B1691E116009E03024002BB1D13F
:104CC0000823AFE70A23ADE7302CABD1A2E71846A3
:104CD000BDE8F0877800002030B5134605460C4645
:104CE000034A294610682246BDE83040FFF76EBFF0
:104CF000740000200020704770B50D46144606462B
:104D000018B183690BB900F0ABF9224B9C4201D179
:104D1000746808E0204B9C4201D1B46803E01F4B4B
:104D20009C4208BFF468A369A360A3891A0709D548
:104D300023693BB12368EDB22069181A6369984270
:104D40000FDB08E03046214600F02AF80028F1D0B9
:104D50004FF0FF3070BD3046214600F011F90028B9
:104D6000F6D1A3680130013BA36023685A1C22607E
:104D70001D706369984204D0A389DB0707D50A2D0B
:104D800005D13046214600F0FBF80028E0D1284646
:104D900070BD00BF24640008446400086464000817
:104DA000314B70B51D6806460C4625B1AB6913B989
:104DB000284600F055F92D4B9C4201D16C6808E063
:104DC0002B4B9C4201D1AC6803E02A4B9C4208BFAC
:104DD000EC68A3899AB211071DD4D50602D4092222
:104DE000326038E0500712D5616B41B104F14403E1
:104DF000994202D03046FFF777FB00236363A38913
:104E000023F02403A3810023636023692360A38923
:104E100043F00803A38123694BB9A38903F42073EA
:104E2000B3F5007F03D03046214600F02DFAA38968
:104E300013F0010205D00022A26062695242A26111
:104E400003E0990758BF6269A26022694AB903F07A
:104E5000800080B230B143F040034FF0FF30A381B7
:104E600070BD002070BD00BF7400002024640008E5
:104E700044640008646400088A892DE9F04105460D
:104E800010070C4657D44B68002B02DC0B6C002B30
:104E900018DDE66AB6B102F4805200232F6892B2A0
:104EA0002B600AB1626D10E0216A28460123B047E9
:104EB000411C024609D12B683BB11D2B01D0162B9A
:104EC00046D12F600020BDE8F081A3895B0705D59E
:104ED0006368D21A636B0BB1236CD21AE66A0023A3
:104EE0002846216AB047461CA38905D12A681AB111
:104EF0001D2A01D0162A19D10022D9046260226924
:104F0000226004D5421C01D12B6803B96065616B36
:104F10002F600029D6D004F14403994202D02846DC
:104F2000FFF7E2FA00206063BDE8F08143F0400340
:104F3000A381BDE8F0810F69002FC3D093070E68ED
:104F40000F600CBF4B690023C7EB06088B6012E0B3
:104F5000A3894FF0FF3043F04003A381BDE8F08107
:104F60002846216A3A464346A66AB0470028EFDD44
:104F70000744C0EB0808B8F1000FF1DCA2E700001D
:104F800038B50B6905460C46DBB118B183690BB91E
:104F900000F066F80C4B9C4201D16C6808E00B4BAA
:104FA0009C4201D1AC6803E0094B9C4208BFEC680D
:104FB000B4F90C302BB128462146BDE83840FFF744
:104FC0005BBF002038BD00BF2464000844640008B3
:104FD00064640008014900F039B900BF814F00083E
:104FE000002310B50446036043605C3040F8543C35
:104FF00020F8501C1946836020F84E2C082240F8F7
:105000004C3C40F8483C40F8443CFFF764FA054B00
:1050100024626362044BA362044BE362044B236388
:1050200010BD00BF595900087B590008B35900084A
:10503000D759000870B568234D1E0E465D4305F133
:105040007401FFF795FA044640B1002105F16802AA
:1050500080E842000C30A060FFF73DFA204670BDAA
:10506000836910B5044633BB8364C3640365124B84
:10507000124A1B688262984204BF0123836100F0D8
:105080001FF86060204600F01BF8A060204600F08A
:1050900017F80421E06000226068FFF7A1FFA06814
:1050A00009210122FFF79CFFE06812210222FFF78D
:1050B00097FF0123A36110BD845C0008D54F000851
:1050C000F8B51B4B07461E68B36913B93046FFF7A6
:1050D000C7FF4836B4687368013B04D4B4F90C5078
:1050E00075B16834F8E733682BB938460421FFF707
:1050F000A1FF306008B13668ECE70C233B60F8BDD7
:105100004FF6FF736566256004F15C00E3810123BF
:10511000A5602946A3810822656025616561A561B6
:10512000FFF7D9F96563A5632046A564E564F8BD7A
:10513000845C000870B50E461446054618B18369B4
:105140000BB9FFF78DFF0A4B9C4201D16C6808E058
:10515000084B9C4201D1AC6803E0074B9C4208BF5E
:10516000EC68284631462246BDE8704000F0B8BBE6
:1051700024640008446400086464000803460A4686
:10518000024908681946FFF7D5BF00BF7400002028
:1051900070B50D461446064618B183690BB9FFF782
:1051A0005FFF224B9C4201D1746808E0204B9C4277
:1051B00001D1B46803E01F4B9C4208BFF468A38987
:1051C0001A0701D523699BB930462146FFF7E8FD50
:1051D00070B14FF0FF3070BDA368013B002BA3609E
:1051E0000BDB236815F8012C1A7023680133236048
:1051F00015F8010B0028EFD116E0A269934209DBF4
:10520000236815F8012C1A70236819780A29EDD142
:10521000304602E0304615F8011C2246FFF76CFDCF
:10522000431C58425841D3E770BD00BF24640008B6
:10523000446400086464000803460A46024908689A
:105240001946FFF7A5BF00BF740000202DE9F84301
:105250008046894600F14804002694B1A568676835
:10526000013F0CD4AB89012B07D9B5F90E300133BE
:1052700003D040462946C84706436835F0E724680E
:10528000EBE73046BDE8F8838B89F0B59D0791B018
:1052900006460C4625D4B1F90E10002908DAA38978
:1052A000002513F0800F14BF40274FF480670DE0F6
:1052B00001AA00F0B7FB0028F1DB029D4FF48067E4
:1052C00005F47045A5F500514D424D413046394633
:1052D000FFF74EF960B9A3899A051DD443F0020384
:1052E000A38104F14703236023610123636113E079
:1052F0000A4BB362A389206043F080032061676199
:10530000A3814DB13046B4F90E1000F09DFB18B1E9
:10531000A38943F00103A38111B0F0BDD54F00086C
:105320002DE9F0478E6882460C469046B342994676
:1053300040D38A8912F4906F3AD025680223096914
:105340006F1A656905EB450595FBF3F57B1C4B442E
:105350009D4238BF1D4653050FD52946FFF708F972
:10536000064698B121693A46FFF7AAF8A38923F4C3
:10537000906343F08003A38113E02A4600F0AFFB63
:10538000064670B950462169FFF7AEF80C234FF07E
:10539000FF30CAF80030A38943F04003A381BDE881
:1053A000F08726613E446561ED1B26604E46A56090
:1053B000B14500D24E4632462068414600F074FBAB
:1053C000A36800209B1BA36023681E442660BDE8E1
:1053D000F08700002DE9F0439DB006460D4690464B
:1053E00003938B891C060CD50B6953B94021FFF739
:1053F000BFF82860286110B90C233360CCE040234B
:105400006B610023099320238DF8293030238DF818
:105410002A3043461C4613F8012B1AB9B4EB08098D
:105420000FD002E0252AF5D1F8E73046294642465A
:105430004B46FFF775FF013000F0A980099B4B44F4
:1054400009932378002B00F0A28000234FF0FF3255
:1054500004F1010804930793059206938DF85330E5
:105460001A934446DFF84891052208F1010848469E
:10547000217800F00BFB049B30B1C9EB0000012246
:10548000824013430493ECE7D80644BF20228DF8F2
:105490005320190744BF2B228DF8532022782A2A43
:1054A00002D0079923460EE0039A0134111D1268B9
:1054B000002A0391BBBF524243F0020307920792B6
:1054C000B8BF04930AE01C4601332278303A092A17
:1054D00003D80A2000FB0121F5E7079123782E2B42
:1054E0001AD163782A2B0AD1039B02341A1D1B6838
:1054F000002B0392B8BF4FF0FF3305930CE0611C03
:1055000000220C4601312378303B092B03D80A20B6
:1055100000FB0232F5E70592DFF89880032221783C
:10552000404600F0B3FA38B1C8EB00004023049ABB
:10553000013483401343049321780622194804F16F
:1055400001088DF8281000F0A1FA88B1164B33B984
:10555000039B073323F007030833039313E003ABE4
:10556000304604A92A460093104BAFF3008007E0B1
:1055700003AB304604A92A4600930C4B00F092F886
:10558000421C074603D0099B3B44099341E7AB8982
:105590005B0601D4099801E04FF0FF301DB0BDE873
:1055A000F08300BF8E640008000000002153000853
:1055B000846400088A6400082DE9F84391461F4678
:1055C0008A6806460B690C46DDF820809342B8BF16
:1055D0001346C9F8003091F8432012B10133C9F8DD
:1055E00000302368990642BFD9F800300233C9F869
:1055F0000030256815F006051CD094F84330226869
:10560000003318BF012392061FD5E1185A1C302021
:105610000233224481F8430094F8451082F8431085
:1056200013E03046394604F119020123C047013026
:1056300007D00135E368D9F800209B1A9D42F0DBC2
:10564000DBE74FF0FF30BDE8F8833046394604F120
:105650004302C0470130F4D02268D9F800504FF01F
:10566000000902F00602E368042A226908BF5D1BF4
:10567000A36814BF002525EAE5759342C4BF9B1AB1
:10568000ED18A9450ADA3046394604F11A02012319
:10569000C0470130D5D009F10109F2E70020BDE88B
:1056A000F88300002DE9FF410C4617469846064650
:1056B000227E43310A9B6E2A00F0AF8012D8632A03
:1056C00023D00AD8002A00F0BC80582A40F0CB80B2
:1056D00084F84520DFF800E257E0642A1ED0692AEA
:1056E0001CD0C0E0732A00F0B08009D86F2A2ED0F9
:1056F000702A40F0B880226842F0200222603FE029
:10570000752A24D0782A3BD0ADE01A6804F142050E
:10571000111D1960136884F84230A8E020681A68E7
:1057200010F0800F02D0101D186008E010F0400F3C
:1057300002F10400186002D0B2F9003000E01368F2
:10574000002B3EDA2D225B4284F8432039E02068AA
:105750001A6810F0800F02D0101D186007E010F0DA
:10576000400F02F10400186001D0138800E01368B4
:10577000227EDFF864E16F2A0CBF08220A221CE0B7
:105780007822DFF858E184F845202268186812F082
:10579000800F00F104051D6003D1550601D5038873
:1057A00000E00368D00744BF42F0200222601BB92A
:1057B000226822F0200222601022002084F8430098
:1057C00002E0DFF814E10A226568002DA560A2BF9F
:1057D000206820F00400206003B965B10D46B3FBDA
:1057E000F2F002FB10331EF8033005F8013D0346CA
:1057F0000028F4D100E00D46082A0BD12368DA070F
:1058000008D5236962689A42DEBF302305F8013C5F
:1058100005F1FF35491B21612EE025681A6815F056
:10582000800F606903D0151D1D60136808E015F036
:10583000400F02F104051D60136801D0188000E0DC
:10584000186000230D46236116E01A68111D1960C7
:10585000002115686268284600F018F908B1401B5D
:105860006060636804E004F1420584F8422001238B
:105870002361002384F84330CDF800803046214670
:1058800003AA3B46FFF798FE013002D14FF0FF30EC
:105890001FE0304639462A462369C0470130F5D01B
:1058A00023689B0705D4E068039B9842B8BF18465D
:1058B0000FE00025E368039A9B1A9D42F3DA304615
:1058C000394604F119020123C0470130DED0013509
:1058D000F0E704B0BDE8F08195640008A664000814
:1058E00070B50E461446054618B183690BB9FFF72B
:1058F000B7FB164B9C4201D16C6808E0144B9C42EC
:1059000001D1AC6803E0134B9C4208BFEC68A3686C
:10591000013B002BA36011DAA269934207DB2368E5
:105920001E70236819780A290BD1284601E0284601
:1059300031462246BDE87040FFF7DEB923681E708D
:1059400023685A1C2260187870BD00BF24640008C8
:10595000446400086464000810B50C46B1F90E10E8
:1059600000F0E4F80028ABBF636DA3891B1823F493
:105970008053ACBF6365A38110BD2DE9F0411D4686
:105980008B8907460C46DB05164605D5B1F90E1086
:105990000022022300F068F8A3893846B4F90E10FB
:1059A000324623F48053A3812B46BDE8F04100F03A
:1059B00017B810B50C46B1F90E1000F055F8431C9D
:1059C000A38915BF606523F4805343F48053A381FA
:1059D00018BFA38110BDB1F90E1000F013B800007C
:1059E00038B50546064C00202060084611461A4688
:1059F00000F0EEF8431C02D1236803B12B6038BDE0
:105A0000CC3E002038B50023054C054608462360EF
:105A100000F0A8F8431C02D1236803B12B6038BD05
:105A2000CC3E002038B50023064C054608461146FA
:105A3000236000F09FF8431C02D1236803B12B6060
:105A400038BD00BFCC3E002038B50023054C0546CC
:105A50000846236000F096F8431C02D1236803B186
:105A60002B6038BDCC3E002038B50546064C0020E2
:105A70002060084611461A4600F08CF8431C02D1FB
:105A8000236803B12B6038BDCC3E0020C9B202446C
:105A900010B59042034605D01C7801308C42F8D1F5
:105AA000184610BD002010BD814201EB020310B565
:105AB00001D3421E0BE09842FBD28118D21AD34286
:105AC00004D013F8014D01F8014DF8E710BD9942DB
:105AD00004D011F8014B02F8014FF8E710BDF8B5FA
