:020000040800F2
:1000000000000220E59C0008597500085D75000895
:10001000617500086575000869750008000000003A
:10002000000000000000000000000000359D0008F6
:100030006D75000800000000359D0008359D000822
:10004000359D0008359D0008359D0008359D000848
:10005000359D0008359D000871750008359D000824
:10006000359D0008359D0008359D0008359D000828
:10007000359D0008359D0008359D0008359D000818
:10008000359D0008359D0008359D0008359D000808
:10009000359D0008359D0008359D0008359D0008F8
:1000A000359D00087D750008359D0008359D0008C8
:1000B000359D0008359D0008359D0008359D0008D8
:1000C000359D0008359D0008359D0008359D0008C8
:1000D000359D0008359D0008216C0008359D0008FD
:1000E000359D0008359D0008359D0008359D0008A8
:1000F000359D0008359D0008359D0008359D000898
:10010000359D0008359D0008359D0008359D000887
:10011000359D0008359D0008359D0008359D000877
:10012000359D0008359D0008359D0008359D000867
:10013000359D00080000000000000000359D00080B
:10014000359D0008359D0008359D0008359D000847
:10015000359D0008359D0008359D0008359D000837
:10016000359D0008359D0008359D0008359D000827
:10017000359D0008359D0008359D000800000000F1
:1001800000000000359D0008000000000000000095
:10019000359D00080000000000000000359D0008AB
:1001A000000000000000000000000000359D000875
:1001B000359D0008359D0008359D0008359D0008D7
:0401C000359D000861
:100200000348044B834202D0034B03B118477047A5
:10021000F0010020F0010020000000000548064920
:100220000B1AD90F01EBA301491002D0034B03B104
:1002300018477047F0010020F00100200000000086
:1002400010B5064C237843B9FFF7DAFF044B13B11E
:100250000448AFF300800123237010BDF00100209B
:1002600000000000389D000808B5044B1BB104498C
:100270000448AFF30080BDE80840CFE7000000006D
:10028000F4010020389D0008002101F053BF00BF99
:100290000A22002102F0BAB80A23002202F0A8B80C
:1002A00070B50D4E0D4D761BB61006D000240134EE
:1002B00055F8043B9847A642F9D1094E094D761BE3
:1002C00009F03AFDB61006D00024013455F8043B7D
:1002D0009847A642F9D170BD7CA800087CA8000808
:1002E00080A800087CA80008844641EA000313F0B7
:1002F00003036DD1403A41D351F8043B40F8043B2D
:1003000051F8043B40F8043B51F8043B40F8043BEF
:1003100051F8043B40F8043B51F8043B40F8043BDF
:1003200051F8043B40F8043B51F8043B40F8043BCF
:1003300051F8043B40F8043B51F8043B40F8043BBF
:1003400051F8043B40F8043B51F8043B40F8043BAF
:1003500051F8043B40F8043B51F8043B40F8043B9F
:1003600051F8043B40F8043B51F8043B40F8043B8F
:1003700051F8043B40F8043B403ABDD2303211D32F
:1003800051F8043B40F8043B51F8043B40F8043B6F
:1003900051F8043B40F8043B51F8043B40F8043B5F
:1003A000103AEDD20C3205D351F8043B40F8043B2F
:1003B000043AF9D2043208D0D2071CBF11F8013B2D
:1003C00000F8013B01D30B8803806046704700BFF3
:1003D000082A13D38B078DD010F003038AD0C3F102
:1003E0000403D21ADB071CBF11F8013B00F8013BE4
:1003F00080D331F8023B20F8023B7BE7043AD9D3A3
:10040000013A11F8013B00F8013BF9D20B78037077
:100410004B7843708B78837060467047F0B48607E2
:1004200046D0541E002A3CD0CAB2034602E014F162
:10043000FF3436D303F8012B9D07F8D1032C29D9BB
:10044000CDB245EA05250F2C45EA054533D9A4F17F
:100450001006360903F1200707EB061703F1100217
:1004600042E9045542E902551032BA42F8D1721CF1
:1004700014F00C0F03EB021204F00F0613D0331F1D
:1004800023F003030433134442F8045B9342FBD18B
:1004900006F003042CB1C9B21C4403F8011B9C42B2
:1004A000FBD1F0BC704734461346002CF3D1F8E77B
:1004B00014460346C2E71A462646E0E72DE9F04710
:1004C00057EC106B84B0002F894692461946DDE93F
:1004D0000D545EDB0023662D0B7018D0462D16D010
:1004E00025F02003452B36D003AA02ABCDE900321C
:1004F00002210C9B4A4647EC106B02F007F9672D6E
:10050000804636D11AF0010F35D1039B1CE003AAB7
:1005100002ABCDE9003203210C9B4A4647EC106B3D
:1005200002F0F4F8804600EB090598F80030302B13
:1005300034D00C9B1B681D443046394600220023F2
:1005400005F0C0FFD0B12B46A3EB08034046236063
:1005500004B0BDE8F08703A902AB09F10109CDE9B8
:1005600000314A460C9B022147EC106B02F0CEF89A
:100570008046472DC6D008EB0905DDE7039B9D4269
:10058000E2D930215A1C03921970039BAB42F9D374
:10059000DAE707F100431F462D239CE700220023E2
:1005A0003046394605F08EFF0028C2D10C9AC9F1B9
:1005B00001031360BFE700BFF0B400290446BABFCF
:1005C00049422D232B23092904F8022B82B04370C2
:1005D0002DDD0DF107063546194F01E01546194688
:1005E00087FB0132CB17C3EBA20303EB8302A1EB22
:1005F00042023032632905F8012C05F1FF32EDDCAF
:100600003033A91EDBB28E4202F8013C0BD92146E1
:1006100001E012F8013B01F8013BB242F9D10DF1C2
:1006200009035D1B2C44201A02B0F0BC7047303126
:100630003023041DC1708370201A02B0F0BC7047D3
:10064000676666662DE9F04F8DB00C46DDF8588080
:1006500016461F46054603F0E3FD03680693184659
:1006600000F02EFD00230A93D8F8003007900733DE
:1006700023F0070393ED007B08338DED047BD4F862
:1006800000B094F818A0C8F80030DDE9042323F086
:1006900000499046104684ED127B49464FF0FF32E8
:1006A000AF4B05F041FF40B9404649464FF0FF329D
:1006B000AB4B05F01BFF00287BD0DDE904010246AF
:1006C0000B4605F031FF002840F035826168481C78
:1006D0004BF480622CD0BAF1670F64D0BAF1470FA7
:1006E00061D0002322600AA8039309AB0290009313
:1006F000CDF804A00DF123039DED040B2846FFF770
:10070000DDFE8046BAF1650F099B33D8013B1946DF
:10071000524604F150000993FFF74EFF0A9A13184E
:10072000012A8146236140F37E810133236133E056
:1007300006216160002322600AA8039309AB02909E
:100740000093CDF804A00DF123039DED040B284682
:10075000FFF7B4FE0AF0DF03472B8046D2D1099B96
:10076000D91C80F2E280AAF1020A5FFA8AFABAF191
:10077000650FCBD9BAF1660F00F0DE800A9A9A4273
:1007800040F3E580002BD4BFC3F1020101210A44EC
:100790002261A3654FF000099DF823300BB32D2390
:1007A00084F843301DE0002940F01381012161608D
:1007B000C0E7DDE904010022002305F08DFE10B141
:1007C0002D2384F84330674867492BF00402032344
:1007D0002260BAF1470F94BF8046884623614FF0EC
:1007E0000009009733460BAA2146284600F0C2F9BB
:1007F000013024D0236858052CD423694246314661
:100800002846B84701301AD022680B98E36892074F
:100810001AD51A1A002A17DD04F119094FF0000839
:1008200004E0E3680B981A1A42450DDD01234A469D
:1008300031462846B847013008F10108F1D14FF0A0
:10084000FF300DB0BDE8F08F9842B8BF18460DB02C
:10085000BDE8F08FBAF1650F33D900220023D4E947
:10086000120105F02FFE002800F0828001233F4A8C
:1008700031462846B8470130E1D0DDE909239A42E4
:1008800002DB2268D107C0D5DDE9062331462846C0
:10089000B8470130D3D00A9B012BB5DD04F11A090A
:1008A0004FF0000803E00A9B013B4345ACDD012308
:1008B0004A4631462846B847013008F10108F2D1CE
:1008C000BDE70A9A012A40F39A8001234246314645
:1008D0002846B8470130B2D0DDE906233146284624
:1008E000B8470130ABD000220023D4E91201DDF873
:1008F00028A005F0E7FD002800F09080BAF1010F74
:1009000040F3888004F11A0A4FF0000803E00A9BC4
:10091000013B43457EDD0123524631462846B84718
:10092000013008F10108F2D189E7626893423FF78C
:100930001AAF4FF0670A21E7002B626878DD236168
:10094000002A00F0A68001321A44226121E72268C1
:100950002361D2077FF51DAF5A1C226119E700BF42
:10096000FFFFEF7FE4A60008E8A60008F4A6000851
:10097000099B002B63DD0A9BD4F858A05345A8BF00
:100980005346002B9B4608DD424631462846B84771
:1009900001303FF454AFD4F858A02BEAEB7BAAEB1C
:1009A0000B03002B40F3828004F11A034FF000097F
:1009B0009A4604E0A36DA3EB0B024A4575DD0123C3
:1009C000524631462846B847013009F10109F1D1B4
:1009D00035E7002322600AA8039309AB0290009335
:1009E000CDF804A00DF123039DED040B2846FFF77D
:1009F00065FD099BD91C8046FFF6B5AE95E7D90782
:100A00003FF563AF4246012331462846B8470130DF
:100A10003FF415AF4B4604F15002F0E60AF1FF3304
:100A200008F10102F0E72268D2077FF5B5AE7CE657
:100A3000002A33D12168C90730D40122A8E6012356
:100A4000494A31462846B84701303FF4F8AEDDE95F
:100A50000923134324D0DDE9062331462846B8474D
:100A600001303FF4ECAE099B002B79DA04F11A0A4D
:100A70004FF0000903E0099B5B424B4570DD012309
:100A8000524631462846B847013009F10109F2D1F2
:100A9000D5E62168C8077FF57CAE54E7023277E6D9
:100AA0002268D3077FF5B1AED5E79A46DDE9092183
:100AB0008A4202DB2368D80709D5DDE906233146DF
:100AC0002846B84701303FF4BAAEDDE90921524566
:100AD000A1EB0203D4BFA1EB0A099946B9F1000FBB
:100AE0000BDD08EB0A024B4631462846B847013079
:100AF0003FF4A5AEDDE909239B1A29EAE979A3EBC6
:100B00000903002B7FF780AE04F11A0A4FF00008AA
:100B100007E0DDE909239B1AA3EB090343457FF7AF
:100B200073AE0123524631462846B847013008F1DA
:100B30000108EED183E6059B0C490D4A002BBCBF92
:100B40002D2384F843302BF0040323600323BAF1F0
:100B5000470F94BF8846904623614FF0000940E656
:100B600042460A9B4BE600BFF4A60008ECA600082C
:100B7000F0A600082DE9F0470C4691460A698968FD
:100B8000DDF820808A42B8BF0A46C9F8002094F8F0
:100B9000431006461F4611B10132C9F800202368F0
:100BA00099065CD5D9F800200232C9F800202368E4
:100BB00013F0060F19461DD1E1688A1A002AD8BF22
:100BC000194617DD04F1190A002505E0E368D9F894
:100BD00000209B1AAB420CDD0123524639463046B9
:100BE000C047013005F10105F0D14FF0FF30BDE8FD
:100BF000F087216894F84330003318BF01238A0638
:100C00000AD5E1185A1C302081F84300224494F898
:100C1000451082F84310023304F14302394630464E
:100C2000C0470130E1D02368A268216903F00603C0
:100C3000042B1DD08A4226DD4FF00009521A914440
:100C40001A34002501E04D451DDA012322463946BC
:100C50003046C047013005F10105F4D1C5E713F076
:100C6000060F13D094F84330003318BF0123D3E7A5
:100C7000D9F80000E3688A42A3EB000323EAE37992
:100C8000DCDC002BDCDC0020BDE8F087E168D9F873
:100C900000208A1A002AD8BF194693DCAAE700BFB1
:100CA0002DE9F0430C46097E85B06E2906461746AD
:100CB0000C98984604F1430E6DD039D9732900F091
:100CC000F68044D9752900F00481782940F011811B
:100CD00078232268DFF858C284F845300168150689
:100CE00051F8043B016040F1A180D10744BF42F0BC
:100CF00020022260002B00F093801022002184F853
:100D000043106068A0600028C0F2C880216821F00C
:100D100004012160002B40F0A380002840F0C08037
:100D20007546082A00F0AC80AEEB0503236141E074
:100D3000632900F0E5801AD8002938D0582940F0FE
:100D4000D88084F845102268DFF8E8C1C6E76F292B
:100D500000F0BF80702940F0CC802268DFF8D0C15D
:100D600042F020027823226084F84530B6E76429F7
:100D700002D0692940F0BD8022680368110603F1A2
:100D8000040557D5196805600B46002959DBDFF8C3
:100D9000A4C10A22B5E70368226861691D1D0560C8
:100DA00015061B6802D4500600F1BD8019600023AF
:100DB00075462361CDF800803B4603AA21463046A4
:100DC000FFF7D8FE013020D02A4623693946304645
:100DD000C047013019D022680398E368920719D5FB
:100DE0001A1A002A16DD04F11909002504E0E36847
:100DF00003981A1AAA420DDD01234A4639463046A5
:100E0000C047013005F10105F1D14FF0FF3005B0C9
:100E1000BDE8F0839842B8BF184605B0BDE8F0833E
:100E2000226822F020022260102267E7500648BFA5
:100E30009BB25AE75106A5D5B3F9003005601946B3
:100E4000A3E76168A1602D200029C3F1000384F8A5
:100E5000430002DB22F004022260DFF8D8C00A223D
:100E6000754600E00B46B3FBF2F102FB11309342F2
:100E70001CF8000005F8010DF4D2082A7FF454AFE5
:100E80002368DB077FF550AF626823699A423FF71A
:100E90004BAF302305F8013C013D45E7002BDFD186
:100EA0009CF8003084F8423004F1420539E70368C9
:100EB0006268191D01601D680021284603F060FA70
:100EC000002832D0401B60602061002384F843304A
:100ED00070E72268036812F0800F03F104051AD04E
:100EE0001B6805606F290CBF08220A22DFF844C086
:100EF00004E7012384F84210236104F14205E4E78A
:100F000003681A68191D0123016004F1420584F881
:100F100042202361D9E712F0400F0DBF1B68056026
:100F20001B880560DEE7198041E76068CCE700BFF9
:100F30000CA70008F8A600080EB410B5044683B04C
:100F400008B1836963B106A803460190059AA168B8
:100F5000204604F08DF803B0BDE8104003B07047A0
:100F600002F006FDEFE700BF0FB410B50B4B1C6895
:100F700082B00CB1A36963B105A803460190049A3D
:100F8000A168204604F074F802B0BDE8104004B037
:100F90007047204602F0ECFCEEE700BF00000020A6
:100FA00083692DE9F04180460E4633B384682F4BA8
:100FB0009C4230D02E4B9C4239D02E4B9C4208BFD5
:100FC000D8F80C40A3891B072AD5236943B3013EF7
:100FD000A36816F8015F013BA3609DB3002B07DAFD
:100FE000A7699F4222462946404623DC0A2D21D08C
:100FF00023685A1C22601D70EAE702F0B9FCD8F899
:101000001830D8F80840002BD1D1404602F0B0FC8F
:10101000164B9C42CED1D8F80440A3891B07D4D4E8
:101020002146404601F05EFA0028D0D006E0D8F80C
:101030000840C7E701F0F6F90130C9D14FF0FF30A1
:10104000BDE8F081002B09DA224640460A2101F072
:10105000E9F90130F2D00A20BDE8F08123680A22C4
:10106000591C21601A701046BDE8F081049F0008E9
:10107000E49E0008C49E0008024B01461868FFF772
:101080008FBF00BF00000020000000000000000033
:101090000000000000000000000000000000000050
:1010A0000000000000000000000000000000000040
:1010B0000000000000000000000000000000000030
:1010C00090F800F06DE9024520F007016FF0000C88
:1010D00010F0070491F820F040F049804FF0000430
:1010E0006FF00700D1E9002391F840F000F108000B
:1010F00082FA4CF2A4FA8CF283FA4CF3A2FA8CF343
:101100004BBBD1E9022382FA4CF200F10800A4FAA9
:101110008CF283FA4CF3A2FA8CF3E3B9D1E90423FD
:1011200082FA4CF200F10800A4FA8CF283FA4CF334
:10113000A2FA8CF37BB9D1E9062301F1200182FAEE
:101140004CF200F10800A4FA8CF283FA4CF3A2FAF4
:101150008CF3002BC6D0002A04BF04301A4612BA02
:10116000B2FA82F2FDE8024500EBD2007047D1E905
:10117000002304F00305C4F100004FEAC50514F094
:10118000040F91F840F00CFA05F562EA05021CBF65
:1011900063EA050362464FF00004A9E7000000007F
:1011A00070B504460D4645EC104B164603F0C6FCE0
:1011B00051EC100B7EB1C5F30A53C3F16B03002B46
:1011C00009DD1B0503F17F55002405F54015224676
:1011D0002B4604F00FFF70BD2DE9F04F734CA3B008
:1011E0002468079488468146002120461D46002435
:1011F0000023CDE9043406921E91FFF761FFCDF87C
:101200007480834643469A4613F8014B2D2C00F216
:10121000B380DFE804F01EB1B1B1B1B1B1B1B1AF8B
:10122000AFAFAFAFB1B1B1B1B1B1B1B1B1B1B1B1B6
:10123000B1B1B1B1B1B1AFB1B1B1B1B1B1B1B1B1A0
:10124000B1ACB12C002D40F0B6800B9B034340F0B5
:10125000B180069B13B1069BC3F800804FF0000AD3
:101260004FF0000B4BEC10AB23B0BDE8F08F012327
:101270000A930AF101031D939AF80140002CE8D06B
:10128000302C9A467CD000230B93A4F13003DAB2C1
:10129000092A00F29D840026374635465046013023
:1012A0001D90082D047807EB8702CABF06EB86065F
:1012B00003EB420703EB4606A4F13003DAB2092A36
:1012C00005F10105EBD907995A4604F0A9F8002861
:1012D00000F02C810020652C8346844608956AD056
:1012E000452CAFD000230C93002D00F0B080089B5C
:1012F0001A46002B08BF2A463846089204F000FE22
:101300000C9B102DA3EB0B032C46A8BF1024092D1A
:10131000CDE904010B9313DD254B03EBC40353E923
:10132000122304F067FECDE90401304604F0E8FD25
:1013300002460B46DDE9040104F0A6FCCDE90401F8
:101340000F2D00F306810B9B002B00F082840B9B7A
:1013500040F38783162B40F37A850B9AC5F125035A
:10136000934280F28A850B9B2C1B1C44F7E00023E0
:101370000A937EE71D9346E70023302C0A9382D11F
:101380009AF80130582B00F06784782B18BF534629
:1013900000F0628401331D931C78302CFAD09A46F9
:1013A000002C00F0AF8001230B936EE724A000080F
:1013B00040A000080025DDF8748008F101031D93AA
:1013C00098F801402B2C00F0E1822D2C00F0738264
:1013D0004FF0000EA4F13003092B00F27482302C80
:1013E00005D11D9B01331D931C78302CFAD0A4F13C
:1013F0003103082B3FF676AF1D9907914A1C1D92C9
:10140000A4F130034C78A4F13001092900F276846C
:1014100001321D9203EB830304EB43031478A4F120
:1014200030010929A3F13003F2D90799521A082A89
:1014300040F3648444F61F630C93BEF1000F3FF445
:1014400053AF0C9B5B420C93002D7FF450AF0B9B72
:10145000034357D1BCF1000F7FF4FBAE493C252C70
:101460003FF6F7AE01A353F824F000BFAB1A000813
:1014700053120008531200085312000853120008B8
:10148000871A00085312000853120008531200086C
:101490005312000853120008531200085312000898
:1014A0005312000853120008531200085312000888
:1014B0005312000853120008531200085312000878
:1014C0005312000853120008531200085312000868
:1014D0005312000853120008531200085312000858
:1014E000531200085312000853120008AB1A0008E8
:1014F0005312000853120008531200085312000838
:10150000871A00084FF0000A4FF0000B069A0AB144
:101510001D9B13600A9B002B3FF4A4AE0BF100430C
:101520009B464BEC10AB23B0BDE8F08F1D9B08959C
:1015300003EB0B021D9213F80B408346A4F130021B
:10154000092A40F2B183652C4FF0010C7FF4C8AE3C
:1015500031E70B9B2C1B1C44002C40F3E58214F05C
:101560000F030AD0BA4901EBC301D1E90001DDE95B
:10157000042304F03FFDCDE9040134F00F0440F0F2
:1015800059820023079300972B46089A51464846F4
:1015900002F0FCFF1390002800F004840B9A0C9BCF
:1015A0000021002AABEB0303A8BF0B460E9322EAEF
:1015B000E2730F4612938B46139C4846616802F013
:1015C0002FFF8046002800F0588122699DED047BA2
:1015D0000232920004F10C010C308DED087BFEF715
:1015E00083FE9DED080B20AA1FA9484603F02AFBA5
:1015F0001E90002800F01A810121484603F06CF883
:101600000746002800F039811F9B002BC0F2118192
:101610000E9A129D9E180799209C8E4A5B1A2344AD
:10162000013B9342C4F1360480F2C580D21A1F2ACE
:10163000A4EB020400F33781012393400C930023B1
:1016400010932544079B3444A6421D443346A8BF4B
:101650002346AB42A8BF2B46002B02DDE41AED1A4D
:10166000F61A0E9B002B00F3BF80002C00F3D580F0
:101670000B9B002B00F3F880002D00F30A81002E55
:1016800008DD39463246484603F044F9074600284B
:1016900000F0F38042461E99484603F0BBF98346AA
:1016A000002800F0EA800023C268C36039460F9228
:1016B00003F094F90028C0F25E84059E00F0F483E4
:1016C0003946584603F028FB55EC104B00224FF0EA
:1016D000804310EE100A294604F008FF00286FD05E
:1016E0000F9B002B00F0F9809FED557B5A4C002397
:1016F000CDE90C348DED107B584D594B06EA0504AD
:101700009C4200F00F81079B53B3B4F1D46F27D8EC
:10171000DDE910564CA3D3E900232846314604F0F6
:10172000E5FEC0B12846314604F03CFF002800F039
:10173000F28204F0E5FBCDE910010F9B002B40F095
:10174000E582DDE9101202F1004316911793DDE9FD
:101750001623CDE90C230D9B03F1D6631B1B0D93C0
:101760009DED080BDDE90C5603F0E8F9284653EC33
:10177000102B314604F03EFCDDE9082304F084FA26
:10178000CDE904010D46079B23B9344B2B409C4205
:1017900000F0FF801E99484602F082FE414648460E
:1017A00002F07EFE3946484602F07AFE5946484627
:1017B00002F076FE00E70023109301230C9340E72C
:1017C000284B20462946002204F014FC0F9BCDE94B
:1017D0001001002B7CD101F1004314901593DDE939
:1017E0001434CDE90C3487E739461A46484603F0ED
:1017F0002FF80746002840D001461E9A484602F0BE
:1018000081FF002839D00F901E99484602F048FE0B
:101810000F9B1E93002C7FF72BAF22461E99484644
:1018200003F078F81E9000287FF422AF5E4604464D
:1018300025E0129A0E9ED51AEDE600BFAFF30080A8
:10184000000000000000F03F0000C0FFFFFFDF418C
:1018500040A0000802FCFFFF0000F03F0000F07F06
:101860000000E07F0000E03F4146129A484602F047
:10187000EFFF804600287FF4FFAE5E461E9C9E4B25
:101880000593002222230492DDE904ABC9F800305D
:10189000A8E041462A46484603F03CF88046002826
:1018A0007FF4EDAEE9E7954AD31A012202FA03F379
:1018B00010930C92C5E64FF0010E08F102031D9340
:1018C00098F8024086E50023CDF874800C930BE570
:1018D0009DED107B8DED147B81E7049B002B40F088
:1018E0009680C6F31303002B40F097800022844BB0
:1018F0002046294604F0F0FD002840F0B582002281
:10190000804B2046294604F075FB0A460146CDE986
:10191000101202F100431A901B93DDE91A34CDE94D
:101920000C34E9E6A6F1547305939DED047BDDE9E3
:101930000C01B0EE470AF0EE670ACDE90C0103F0A6
:10194000FDF8DDE90C0153EC102B04F053FBDDE94D
:10195000042304F099F905EA010C0B46CDE90401D2
:10196000DDE90801684A05460E469445CDE918565A
:101970005CD9664B994203D1B0F1FF3F3FF47DAF94
:1019800062494FF0FF33CDE9043103E74FF0000E19
:1019900093E7DDE9100104F08DFE04F0FDFA024644
:1019A0000B46DDE9100104F06DF90F9B049AC5F3B5
:1019B000130513432B43CDE9080149D046A3D3E9CE
:1019C000002304F089FD48B9DDE9080144A3D3E907
:1019D000002304F09FFD00283FF4DCAE5E46DDE905
:1019E00004AB1E9C2146484602F05AFD414648463B
:1019F00002F056FD3946484602F052FD139948461A
:101A000002F04EFD3146484602F04AFD7EE5049B59
:101A1000012B02D1002E00F040839FED337B3C4C24
:101A20000023CDE90C348DED107B65E603F1547590
:101A30000595A8E6B4F59A7F40F372812E4B059385
:101A4000002222230492DDE904ABC9F800305DE5F1
:101A500027A3D3E9002304F03FFD00283FF49AAE0A
:101A6000BCE71633FFF675AD0C9A2A4BABEB020BB5
:101A700003EBCB03DDE90401D3E9002304F0E4FB2D
:101A800082468B4642E51DA8234902F0E1FA002870
:101A90003FF4DFAB1D9B1B78282B00F097821F487B
:101AA00003F056FC5BEC10AB30E51DA81C4902F0BE
:101AB000CFFA00283FF4CDAB1D9B1A49013B1DA86E
:101AC0001D9302F0C5FA10B91D9B01331D930A4BFB
:101AD0000593DDE904AB19E59535A094FFFFDF3FE1
:101AE00035E5AF350000E03F000000000000F03FAA
:101AF0009535A094FFFFCF3F0000F07FE2FBFFFF92
:101B00000000F03F0000E03FFFFF9F7CFFFFEF7F02
:101B10000000F0BF40A000082CA700085CA200084D
:101B200020A7000824A700083FF42BAD644214F05E
:101B30000F020AD0BA4B03EBC203DDE90401D3E97B
:101B4000002304F081FBCDE9040124113FF419AD19
:101B50001F2C35DC14F01003DDE9040118BF6A23E3
:101B6000B04E07930023E20704D5D6E9002304F022
:101B700041FA0123641006F10806F4D10BB1CDE956
:101B80000401079B9BB1DDE90412C2F30A53C3F1C0
:101B90006B03002B11460ADD1F2B40F36B820022E2
:101BA000342B049240F371824FF05C730593002252
:101BB0000023DDE9040104F085FC00283FF4E3ACD8
:101BC0002223C9F800304FF0000A4FF0000B9DE4CB
:101BD00007995A46504603F023FC0890002840F02D
:101BE00072821D9A02EB0B031D9312F80B40302CEE
:101BF00008BFC3F1010240F0E080981801331D9343
:101C00001C78302CF9D0A4F13103082B12D8DDF860
:101C100074A00027A4F1300E00F1010B54463E469B
:101C2000012507EB87070EEB47070020631C1D9378
:101C3000647883E4652C2FD0452C2DD04FF0010C17
:101C400005E4794B0593240742BF059B43F000430D
:101C50000593DDE904AB59E40A9A02951EABCDE980
:101C600000321DA91FAB714A484601F041FF10F038
:101C7000070504463FF446AC062D40F0A080069AC6
:101C80000AF10103002A3FF4E9AA13604FF0000AA9
:101C90004FF0000BFFF7E6BA4FF0000B5E465F46D1
:101CA0004FF0010CFFF7D1BA013096461D9C002A77
:101CB000BCD00128834405F1010100F001822844D1
:101CC00000F1FF3C03E04F0063451D460BD0082D9B
:101CD00005F1010307EB8701F5DD102BDCBF06EBF7
:101CE00086067600F0E70546082B9ADD102DDCBF4E
:101CF00006EB860602EB4606002097E744F61F62D5
:101D00009342A8BF13460C93FFF797BB9DED107B42
:101D10008DED167B1BE59FED407B8DED107B0CE57B
:101D20002411012C424B40F36581DDE904011E467C
:101D300007930023984614F0010F08F101084FEAB9
:101D4000640404D0D6E9002304F054F90123012CE3
:101D500006F10806EFD10BB1CDE90401059B324C29
:101D6000344EA3F154730593079B03EBC808D8E9DD
:101D70000001DDE9042304F03DF901EA0403B34264
:101D80000A46CDE9040100F2D4802B498B4240F28F
:101D9000C9802A4B0593002307934FF0FF33049328
:101DA000FFF7F1BB204B0593139B04932223DDE93E
:101DB00004ABC9F80030FFF7A9BB089823E71E9AC7
:101DC0003AB1352120A802F0F7FF48461E9902F0EB
:101DD00067FB013D042D3FF636AF01A353F825F014
:101DE000FF1D0008F51D0008431C0008411E0008E7
:101DF000FF1D0008209B0493219B059323E7DDE949
:101E000020131F9A049102F2334223F4801343EA11
:101E10000253059317E700BF000000000000F03FE9
:101E200040A00008989D00080000F07F709D000809
:101E300030A100080000A07C0000907CFFFFEF7F35
:101E40004FF0FF336FF00045CDE90435FBE6AA49BA
:101E500001EBC301D1E90001DDE9042304F0CAF874
:101E600082468B46FFF752BB9FED9F7B8DED1A7B21
:101E70009FED9F7B8DED107B4FE59F4CC5F10F05CE
:101E800004EBC501DDE90423D1E9000104F0B2F857
:101E90000B9B5D1B04EBC504D4E9002304F0AAF8F6
:101EA00082468B46FFF732BB0F990B963346934A17
:101EB0005E46C3F31303DDE908AB002943D0934228
:101EC00000F0B680109B002B7BD00B9A134210D0F1
:101ED0000F9B079ADDE90401002B00F08F80FFF7CC
:101EE0005FF902460B465046594603F0CDFE824646
:101EF0008B46079B1E9C002B3FF474AD804A002349
:101F0000CDE918325046DDE91823594604F072F83D
:101F100003460B4308BF222382468B4608BFC9F8FD
:101F200000305FE502F15473059300230793FFF738
:101F30002ABB0023049305942223DDE904ABC9F8EE
:101F40000030FFF7E3BA049A1343BBD1079B002B81
:101F500040F0A5806B4B0B9A1A401346A3F58013F3
:101F60006FEA13536FEA035305934FF0FF33049363
:101F7000DDE904ABBDE7DDE904450F9B23435A4689
:101F80005E46DDE908ABB4D1C5F313030B95002B16
:101F9000AFD125F000431B0D1B05B3F1D66FA8D9B7
:101FA000536913B91369012BA3DD31460122484659
:101FB00002F0B0FC3946064602F010FD002898DD1C
:101FC000C4E70C9B049A134293D081E71DA820AA72
:101FD0004D4902F055F805287FF461AD219B43F08F
:101FE000FF4343F4E0030593209B0493DDE904AB36
:101FF000FFF78CBA07934FF00008AFE6FFF7D0F871
:1020000002460B465046594603F03CFE0022002390
:1020100082468B4604F056FA00283FF46AAF22232A
:10202000C9F800301E9C4FF0000A4FF0000BD9E4B5
:10203000079B049933B3334B0B9A1340B3F1D46F1E
:1020400020D81B0DC3F16B034FF0FF3202FA03F3EC
:1020500099427FF437AF2D4B0B9A9A422CD0294BE3
:102060000B9A1A4002F58013059300230493DDE9CF
:1020700004AB3EE74FF0FF3202FA03F3049A1A4032
:10208000049294E54FF0FF33E2E7203B4FF0FF323C
:1020900002FA03F30B40059389E55E46BFE7194B4F
:1020A0000B9A1A40B2F1D66F13463FF757AFB2F111
:1020B0005C7FB4DD1E9C21E70131D0D1FFF7DEBB90
:1020C0002B460D4610E60023652C08931E461F463E
:1020D00018469B4603D01D469C46FFF701B99C4617
:1020E000FFF7B3B8AFF30080000000000000E0BFCE
:1020F000000000000000E03F40A00008FFFF0F00CC
:10210000000050390000F07F849D0008FFFFEF7F42
:10211000014BFFF761B800BF6800002010B4044C09
:1021200013460A46014620685DF8044BFFF754B891
:102130000000002010B4044C044B0A4601462068FD
:102140005DF8044BFFF748B800000020680000204D
:102150002DE9F041DFF8A88013462DED028B0A46E9
:102160000146D8F80000FFF737F855EC104B10EE99
:10217000102A2B4610EE100A294604F0D5F950BB60
:102180002046294604F02EFA08EE100ADFED197AEF
:10219000B0EEC87AB4EE677AF1EE10FA15DD25F0EC
:1021A0000047204639464FF0FF32134B04F0BCF98C
:1021B00038B9204639464FF0FF320F4B04F096F9FC
:1021C00018B1D8F8003022221A60B0EE480ABDECEF
:1021D000028BBDE8F081002D084804DA03F0D2F844
:1021E000B1EE408AF1E7BDEC028BBDE8F04103F0AF
:1021F000C9B800BFFFFF7F7FFFFFEF7F5CA2000831
:10220000000000202DE9F041DFF8AC80264B0A46A3
:102210002DED028B0146D8F80000FEF7DDFF55ECEE
:10222000104B10EE102A2B4610EE100A294604F02F
:102230007BF950BB2046294604F0D4F908EE100A79
:10224000DFED1A7AB0EEC87AB4EE677AF1EE10FAE2
:1022500015DD25F00047204639464FF0FF32144B7C
:1022600004F062F938B9204639464FF0FF32104B7E
:1022700004F03CF918B1D8F8003022221A60B0EE10
:10228000480ABDEC028BBDE8F081002D094804DA54
:1022900003F078F8B1EE408AF1E7BDEC028BBDE8BF
:1022A000F04103F06FB800BF68000020FFFF7F7FA0
:1022B000FFFFEF7F5CA2000800000020012B2DE94A
:1022C000F84F41D0242B98463ED80F46DFF81CC16A
:1022D00000E02F463D4615F8014B1CF8046016F04F
:1022E0000806F6D12D2C6CD02B2C0ABF95F800B027
:1022F000A346BD1C002B46D0102B57D0002E14BF78
:102300004FF000496FF000490027B9FBF8FEBC46CA
:1023100008FB1E9A07E0E64513D32FD00CFB084CB0
:10232000012715F801BBABF13004092C05D9ABF13D
:102330004104192C0FD8ABF13704A34213DD002F51
:10234000E9DA4FF0FF37ECE701F04CF916230360B0
:102350000020BDE8F88FABF16104192C03D8ABF174
:102360005704A342EBDC002F25DB0EB1CCF1000CAF
:102370000AB177BB11606046BDE8F88FA245CDDA9F
:102380004FF0FF37CDE7BBF1300F03D04FF00A0815
:102390004346B3E72B7803F0DF03582B1BD14FF0F4
:1023A000100895F801B043460235A7E7BBF1300F9E
:1023B00015D09846A2E7222303603AB1691ECC46A5
:1023C000D8E795F800B00126BD1C93E7CC466046DF
:1023D000D2E7E146F2E74FF0080843468EE72C7853
:1023E00004F0DF04582CDAD0984687E7C19D000836
:1023F00064E700BF10B4044C13460A460146206847
:102400005DF8044B5AE700BF0000002010B4044CF4
:1024100013460A46014620685DF8044B4EE700BFAC
:1024200000000020F8B50D461446064608B1836941
:1024300043B3254B9C422AD0244B9C4229D0244BA9
:102440009C4208BFF468A389A269A2601A0722D53A
:10245000236903B322686169D31AEDB299422F460A
:1024600029DD0133A168501C0139A160206015707D
:1024700062699A4216D0A389DB0701D50A2D11D0D3
:102480003846F8BD01F074FA0F4B9C42D4D1746801
:10249000D9E7B468D7E72146304600F023F838B9C9
:1024A0002369D7E72146304601F038F90028E7D004
:1024B0004FF0FF37E4E72146304601F02FF90028BE
:1024C000F6D122680123CDE7049F0008E49E0008AE
:1024D000C49E0008024B0A4601461868FFF7A2BFD7
:1024E000000000203B4B70B51D6806460C460DB140
:1024F000AB69DBB1384B9C421ED0384B9C424AD072
:10250000374B9C4208BFEC68B4F90C2093B2190712
:1025100018D5206908B313F001022CD0636900229A
:102520005B42A361A26060B3002070BD284601F049
:102530001FFA294B9C42E0D16C68B4F90C2093B28D
:102540001907E6D4DD063CD5580726D4206942F0A9
:102550000803A3819BB20028DDD103F42072B2F5F9
:10256000007FD8D03046214601F090FEA389206933
:1025700013F00102D2D1990758BF6269A260002806
:10258000D2D1B4F90C301A06CFD543F04003A38161
:102590004FF0FF3070BDAC68B6E7616B51B104F12C
:1025A0004403994204D0304602F064FCB4F90C2094
:1025B0000023636300232069636022F0240220600B
:1025C000C5E742F04002092333604FF0FF30A2819B
:1025D00070BD00BF00000020049F0008E49E0008BA
:1025E000C49E0008000000002DE9F04F03690F6948
:1025F000BB4283B0C0F28680013F01F1140600F1B6
:10260000140A56F827305AF82720BC0001330094EA
:1026100006EB04099A425444B2FBF3F801943AD30E
:1026200000252A46B646D4465EF8044BDCF8003056
:102630001FFA84FB08FB0B554FEA154B240C08FBD3
:1026400004B4ADB2551BA2B2C2EB134215FA83F328
:1026500002EB23429BB243EA0243F1454FEA1445A1
:102660004CF8043B4FEA2242DED2009B5AF803307A
:102670008BB9019A131F9A450CD252F8043C4BB9FE
:10268000A2F1080302E01A68043B1AB99A4507F15F
:10269000FF37F8D30761044602F0A0F900282DDBCC
:1026A00008F101085046002356F8041B05688AB259
:1026B0009A1A0B0C12FA85F2C3EB154303EB224373
:1026C00092B242EA0342B14540F8042B4FEA234359
:1026D000EAD25AF827200AEB87037AB91A1F9245E3
:1026E0000BD253F8042C42B9083B02E01A68043BB1
:1026F0001AB99A4507F1FF37F8D32761404603B06E
:10270000BDE8F08F002003B0BDE8F08F2DE9F04F59
:1027100055EC104B97B0466A209F039182460A926F
:102720000793CDE90045002E00F03683316851B1A2
:1027300072684A60012393408B6001F0B1FEDAF8C1
:10274000243000221A602E1EB4BF012300233B60F8
:10275000774BBCBF26F000460196B34300F0B08033
:102760009DED007B0022002351EC170B8DED047BC7
:1027700003F0A8FE054678B1079A01231360219B58
:10278000002B00F023836B4B219A1360013B0293D3
:10279000029817B0BDE8F08FDDE9047814AA15A9F6
:1027A00048EC107B504602F04DFA340D834640F061
:1027B0009D80DDE914542C4404F23243202B40F375
:1027C000CD83C3F140039E40009B04F2124023FAE4
:1027D00000F0304303F094FBA1F1F87301210246AD
:1027E000013C0E91104619460022534B03F04AFA61
:1027F00049A3D3E9002303F0FDFB49A3D3E9002358
:1028000003F042FA064620460F4603F089FB46A332
:10281000D3E9002303F0EEFB02460B46304639466F
:1028200003F032FA06460F4603F094FE002281467A
:1028300000233046394603F04FFE002840F0B982AD
:102840002C1BB9F1160F04F1FF3800F299823B4BB3
:1028500003EBC903D3E90023DDE9040103F03CFEE7
:10286000002871D00023B8F1000F09F1FF390D9352
:10287000C0F28C8200230993B9F1000F6ADA099B38
:10288000CDF81890A3EB09030993C9F100030C9349
:10289000039BDAF82400092B4FF0000964D8052BBC
:1028A00040F35A83043B03930024039B023B032B16
:1028B00000F26486DFE813F0660463043E04560405
:1028C000079A42F20F731360009BC6F3130633435B
:1028D00018D1219B002B00F06086194B029308331E
:1028E000219A0298136017B0BDE8F08FC8F3130166
:1028F00041F07F530E953A46A4F2FF3443F440135F
:10290000149D6FE7219B002B40F003840D4B029335
:102910003EE700BFAFF3008061436F63A787D23FFC
:10292000B3C8608B288AC63FFB799F501344D33FBE
:102930000000F07FF5A600080000F83F40A0000866
:1029400030A700083CA70008B8F1000FC0F2A3842C
:102950000D90099000230C93039BCDF81890092B40
:10296000C844DAF824009AD9002301240393CDE95E
:102970000A344FF0FF3308930021089B41600F9306
:10298000504601F04DFD0290002800F0FF85DAF876
:102990002430029A1A60089B0E2B00F20A81002C48
:1029A00000F007810699002940F37784B14B01F0CC
:1029B0000F0203EBC20393ED007B0C11E2068DEDD9
:1029C000107B40F11484AC4BDDE90401D3E908230A
:1029D00003F03AFCCDE9000104F00F0403267CB1BA
:1029E000DDE91001A44DE30704D5D5E9002303F088
:1029F00001FB0136641005F10805F4D1CDE91001A1
:102A0000DDE90001DDE9102303F01EFCCDE9000142
:102A10000D9B53B1DDE900450022984B2046294625
:102A200003F05AFD002840F03585304603F078FA6F
:102A3000DDE9002303F0DEFA914B002203F024F9D4
:102A4000089B0446A1F15075002B00F00884069BFA
:102A50001293089B1093DDE900673946304603F076
:102A600079FD009003F05CFA02460B463046394689
:102A700003F008F97F4B009A0F461099064603EBC6
:102A8000C1030B9802993032CDE90045D5B24C1CF8
:102A900053E90223002800F0A1840020794903F0C3
:102AA000D3FBDDE9002303F0EDF8029B32461D70F5
:102AB0003B46CDE9000103F02DFD002840F0DE8407
:102AC00032463B4600206D4903F0DCF802460B46D7
:102AD000DDE9000103F01EFD002840F03D85109B5C
:102AE000012B62D0029ACDF840901344CDF84C806F
:102AF000DDE90089CDF800B0D3469A460EE03246B3
:102B00003B4600205D4903F0BDF842464B4603F0CA
:102B1000E3FC002840F0FC8454453FD04046494641
:102B20000022594B03F066FA0022574B8046894633
:102B30003046394603F05EFA0F46064603F00AFDBA
:102B4000054603F0EDF902460B463046394603F0E0
:102B500099F83035EDB204F8015B42464B46064623
:102B60000F4603F0B9FC0028C9D0129BDA460133A6
:102B7000DDF800B006935946504601F091FC002361
:102B80002370079B1A46069B1360219B002B3FF482
:102B9000FFAD02981C6017B0BDE8F08FDA46DDF893
:102BA0004090DDF84C80DDF800B0DDE90434CDE97B
:102BB0000034159B002BC0F2C680069A0E2A00F343
:102BC000C2802C4B03EBC203D3E900890A9B002B84
:102BD00017DA089F002F14DC40F05A8300222B4B99
:102BE0004046494603F006FADDE9002303F088FC7D
:102BF000002800F0D283089F3D460A9B029CDB43DD
:102C0000DEE2DDE9004542464B462046294603F018
:102C10001BFB03F09FFC0646009003F081F942463F
:102C20004B4603F0E7F902460B4620462946029C34
:102C30003546303503F026F8069E04F8015B089D02
:102C40000136012D02460B46069652D000220E4B4D
:102C500003F0D0F90022002306460F4603F032FCB1
:102C6000002888D1CDF800B00125DDF820B0CDF8DE
:102C70000CA01AE040A0000830A100080000F03FBE
:102C800000001C400000E03F000024400000144011
:102C90000022BF4B03F0AEF90022002306460F4688
:102CA00003F010FC002840F06D8342464B4630464E
:102CB000394603F0C9FA03F04DFC824603F030F9BF
:102CC00042464B4603F096F902460B4630463946DB
:102CD00002F0D8FF01350AF13006AB4502460B463B
:102CE00004F8016BD4D1DDF800B0CDF800A0DDF818
:102CF0000CA01046194602F0C7FF42464B46064656
:102D00000F4603F007FC60B942464B463046394651
:102D100003F0D8FB00283FF42EAF009BD9077FF5C6
:102D20002AAF14F8015C029A631E04E09A4200F094
:102D3000D78313F8015D392D03F10104F6D06A1C25
:102D4000D2B21A7017E70B9A002A45D0039A012ACB
:102D500040F36382089B5E1E0C9BB342C0F241822B
:102D60009E1B089B002BC0F21383099A14461A4439
:102D7000984409920121504601F0AEFC05462EE030
:102D80000123B8F1000F0D93BFF674ADC4F1010338
:102D900009934FF000086FE5102001F0C1FACAF85E
:102DA0002400002800F0DD83C0E901660660C660EB
:102DB000C9E4484603F0B4F832463B4603F082FBD0
:102DC00000287FF43DAD09F1FF3939E5714B0293DD
:102DD000029817B0BDE8F08F0C9E099C0B9D002C4B
:102DE0000CDDB8F1000F09DD4445099A2346A8BF60
:102DF0004346D21A0992E41AA8EB03080C9BD3B1FC
:102E00000B9B002B00F07E81002E10DD2946324600
:102E1000504601F01DFD5A4601460546504601F058
:102E200071FC59460746504601F03AFBBB460C9BE5
:102E30009A1B40F068810121504601F04DFCB9F128
:102E4000000F074600F39080039B012B40F366813F
:102E500000260120B9F1000F40F09180404410F0AD
:102E60001F0077D0C0F12003042B40F39A83C0F1F8
:102E70001C00099B0344099304448044099B002BD4
:102E800005DD59461A46504601F044FD8346B8F127
:102E9000000F05DD39464246504601F03BFD07462E
:102EA0000D9B002B40F01381089B002B40F3FA8010
:102EB0000B9B002B7ED1069B01330693029CDDF811
:102EC0002080012607E0594600230A22504601F0DF
:102ED0000DFB0136834639465846FFF785FBB04562
:102EE00000F1300004F8010BEDDC03464FF000095F
:102EF000594601225046009301F00CFD39468346A5
:102F000001F06CFD002814F8012C40F37881631E59
:102F1000029904E0994200F08D8113F8012D392ABD
:102F200003F10104F6D001321A703946504601F01F
:102F3000B7FA002D3FF41FAEB9F1000F05D0A94537
:102F400003D04946504601F0ABFA2946504601F0FD
:102F5000A7FA10E61C208CE70124A6E4C3F12006A2
:102F6000009B03FA06F035E401464A46504601F05C
:102F70006FFC039B012B074640F3B98100263B6998
:102F800007EB8303186901F057FBC0F1200065E7E8
:102F900000002440F4A60008294600230A225046D7
:102FA00001F0A4FA0F9B002B054640F3CC82CDF82C
:102FB00018800893002C00F30D81002E40F0CB8187
:102FC000A846009B0399029E03F001020B920A435C
:102FD0000A92089A731E1A44099239465846FFF716
:102FE00003FB29460090584601F0F8FC4246814612
:102FF0003946504601F00EFD009BC268044630334E
:10300000002A41D101465846089301F0E7FC2146C9
:103010000490504601F044FA049A089B1AB90A99A0
:10302000002900F07C82B9F1000F06F10104C0F222
:103030007581039941EA09090B9951EA090100F0E8
:103040006D81002A00F3AB81099A3370B24200F01F
:10305000B281594600230A22504601F047FA4545FD
:10306000834629464FF000034FF00A02504613D022
:1030700001F03CFA4146054600230A22504601F081
:1030800035FA26468046A8E701465046049301F0EB
:1030900007FA0122049BC6E701F028FA26460546F6
:1030A00080469AE7039B022B73DC0B9B002B81D19C
:1030B00039465846FFF798FA069A029C00F1300309
:1030C0000132069204F8013B4FF0000910E739463F
:1030D000584601F083FC0028BFF6E6AE59460023AF
:1030E0000A22504601F002FA069B03F1FF380B9BBF
:1030F0008346002B7FF450AF0F9B002B40F31C82C4
:103100000893DBE60C9A5946504601F0A1FB834632
:1031100091E6AC4B02930333FFF7E2BBDDE900120B
:1031200000297FF495AEC2F31303002B00F0EA8070
:10313000009E8EE601230B930A9D002D5ADD0F950C
:1031400008950021172D41607FF71AAC0122042356
:103150005B0003F11406AE42114602F10102F7D9F9
:1031600041600DE401230B930A9B069A13440F93CD
:103170000133012B1D460893B8BF0125E1E7002369
:103180000B93F1E700230B93D6E70F9B0893CDF841
:103190001880089B002B7FF430AD3946052250463D
:1031A00001F0A4F901460746584601F017FC002833
:1031B0007FF723AD029C069B312204F8012B0133DB
:1031C000013339465046069301F06AF9002D7FF429
:1031D000BCAED0E429462246504601F09BFB054692
:1031E000EBE60C9B0C96F31A99440026B9E50226EF
:1031F000FFF7F5BB01230A930893FFF7BDBB03D18B
:10320000009BDB073FF583AE631E01E013F8012D41
:10321000302A03F10104F9D087E60E9A002A00F063
:10322000328103F23343099A0C9E14461A4498449F
:1032300009929FE5069A01320692029A3123137091
:1032400073E6304602F06CFEDDE9002302F0D2FEA8
:1032500000225D4B02F018FD0446A1F150750022DA
:103260005A4BDDE9000102F00DFD22462B460646D1
:103270000F4603F04FF9002840F08E80224605F1FA
:1032800000433046394603F027F900283FF48DAC5F
:1032900000273D46B1E40D9078E500F0F880069BEC
:1032A0005C424B4B04F00F0203EBC203D3E9002353
:1032B000DDE9040102F09EFE2411CDE9000100F0D9
:1032C000E680444D00230226E70705D5D5E9002313
:1032D00002F090FE01360123641005F10805F3D1D8
:1032E000002B3FF495ABCDE90001FFF791BB009BAC
:1032F000002B7FF443AEDDE90012C2F31303002B71
:103300007FF43CAE344E1640002E3FF4A2AD099B34
:103310000133099308F1010801269AE50699002A6C
:1033200001F10101069112DD594601225046039335
:1033300001F0F0FA3946834601F050FB0028039B68
:1033400040F3E080392B00F0D280009B3133A94656
:1033500033704546E9E56968504601F061F8044676
:10336000002800F004812B6902339A0005F10C015A
:103370000C30FCF7B9FF21460122504601F0CAFA91
:1033800080461EE6DDF800B0DDF80CA0FFF7F3BBC9
:10339000DDE908239C1AEDE400273D460AE7069A7A
:1033A000392B02F10102069200F0A1800133A946F7
:1033B00033704546B9E5069A0132A946069245465C
:1033C00096E500BF3CA7000800001C400000144028
:1033D00040A0000830A100080000F07FDDE90001F6
:1033E00002F008FE029B1D70109B012BCDE900012D
:1033F00023D0109B029ACDF840901344C1469846C2
:103400000022714B3046394602F0F4FD0F46064665
:1034100003F0A0F8054602F083FD303502460B4666
:103420003046394602F02EFC04F8015B444506465E
:103430000F46E5D1C846DDF84090644B0022DDE937
:10344000000102F021FC32463B4603F045F800281B
:1034500052D1DDE9002300205C4902F013FC324622
:103460003B4603F057F800283FF49FAB00E01446BA
:1034700014F8013C302B04F1FF32F8D0129B0133D9
:103480000693FFF778BB149BC3F13603CBE6022605
:10349000FFF7BEBA089B002B3FF4D3AE0F9F002F5F
:1034A0007FF783AB0022484B2046294602F0A2FD5D
:1034B00004460D46701CCDE9004502F031FD224660
:1034C0002B4602F097FD424B002202F0DDFB069BEB
:1034D0001097013B0446A1F150751293FFF7BBBA58
:1034E000069A0132069231221A70FFF744BB392244
:1034F000A946327045460AE5129B0133069314F83B
:10350000015C10E47FF423AFDA077FF520AF19E701
:10351000129B0133DA460693DDF800B003E4069A05
:10352000392B02F10102069206F10104DFD0B9F154
:10353000000F3FF70AAF0AE7039B022B3FF725AEC8
:10354000CDF81880B4E5039B022B3FF71EAE0F9B0E
:10355000CDF8188008932DE5129B01330693FFF7F1
:10356000E2BB02461B4B1C48EA2101F0D9FF024690
:103570001A4B194840F2EA2101F0D2FF00244460BE
:103580002146504600F04CFF029078B9134B124888
:1035900000224FF4D57101F0C3FF114B0293FFF7E6
:1035A000F7B83FF46BACC0F13C0062E4DAF82430C9
:1035B000029919604FF0FF32012308920A940F928A
:1035C0000B93FFF7F6BA00BF000024400000E03F75
:1035D00000001C4040A7000858A700088CA700085E
:1035E00030A70008014B1868704700BF000000209A
:1035F0008B891A072DE9F0410C46804641D44A6870
:10360000002A59DDE66A002E53D00022D8F8005077
:10361000216AC8F8002013F4805251D1012340469A
:10362000B047431C5FD0A389E66A216A5F0705D5CE
:103630006268636B801A0BB1236CC01A02460023C8
:103640004046B047461C45D1D8F80030B4F90C20AC
:10365000002B55D01D2B01D0162B5AD123690022E7
:10366000C4E90032616BC8F8005011B304F144039F
:10367000994202D0404601F0FDFB00206063BDE8A6
:10368000F0810E69AEB10D680E6099070CBF6369D9
:103690000023AD1BA3600AE02B463246A76A216ACD
:1036A0004046B8470028A5EB000506440ADD002D7A
:1036B000F2DC0020BDE8F0810A6C002AA2DCF8E709
:1036C000606DB3E7A38943F04003A3814FF0FF305F
:1036D000BDE8F0812269A389226000226260DA04D9
:1036E000C0D56065BEE7D8F80030002B9BD01D2BFD
:1036F0000CD0162B0AD0A38943F04003A381D9E74D
:103700002169C4E90013D304ACD5EAE7C8F8005036
:10371000CFE742F04002A281CCE700BF0B6923B3A0
:1037200010B5044682B008B18369BBB1104B994211
:1037300012D0104B994216D00F4B994208BFE16846
:10374000B1F90C302BB1204602B0BDE81040FFF7B4
:103750004FBF002002B010BD6168F1E7019100F099
:1037600007F90199E2E7A168EAE70020704700BF86
:10377000049F0008E49E0008C49E000820B1054B89
:1037800001461868FFF7CABF034B0449186800F0E8
:1037900035B900BF00000020689D00081D370008F3
:1037A00000207047014900F029B900BF1D3700080B
:1037B0000020704770B54A1E682505FB02F50E46CD
:1037C00005F1740101F0ACFB044640B100210C305E
:1037D000666005F168022160A060FCF71FFE2046CC
:1037E00070BD00BF1E4B70B51D68AB69064643B384
:1037F0004835D5E90134013B05D51EE0013B5A1C93
:1038000004F1680419D0B4F90C20002AF6D100257F
:10381000144B6566C4E90055A560C4E90455A5616B
:103820002946E360082204F15C00FCF7F7FDC4E9D7
:103830000D55C4E91255204670BD2C682CB12546A3
:10384000D7E7284600F010F8D2E704213046FFF70A
:10385000B1FF044628600028F1D10C233360EAE769
:10386000689D00080100FFFF2DE9F84F334B3449F4
:103870001A68816290424FF00003C0E91233036579
:1038800004BF012383610546FFF7ACFF686028464B
:10389000FFF7A8FFA8602846FFF7A4FF6E68E8605E
:1038A00000240423F3607466C6E90044B460C6E9EA
:1038B0000444B461214606F15C000822FCF7AEFD29
:1038C000DFF888B0AF68DFF888A0DFF88890DFF80D
:1038D00088801C4BC6F83080C6E9086BC6E90AA987
:1038E0002146FB6008227C66C7E90044BC60C7E94A
:1038F0000444BC6107F15C00FCF790FDEE68124BDC
:10390000C7F83080C7E9087BC7E90AA92146F360F8
:103910007466C6E90044B460C6E90444B46106F1C3
:103920005C000822FCF77AFD0123C6E9086BC6E9B2
:103930000AA9C6F83080AB61BDE8F88F689D000821
:10394000A537000809000100120002009153000889
:10395000B9530008F953000819540008024B0349F1
:10396000186800F04BB800BF689D00081D370008BC
:10397000836903B978E77047704700BF704700BF9D
:10398000704700BF704700BF024B0349186800F042
:103990000FB800BF00000020A1370008024B034908
:1039A000186800F005B800BF00000020B13700081B
:1039B0002DE9F04110F148071BD088460026D7E9D1
:1039C0000154013D0FD4A389012B05F1FF3506D920
:1039D000B4F90E300133204601D0C04706436B1CBA
:1039E00004F16804EFD13F68002FE8D13046BDE80C
:1039F000F0813E463046BDE8F08100BF2DE9F84336
:103A000010F148071FD0884606464FF00009D7E955
:103A10000154013D11D4A389012B05F1FF3508D9CB
:103A2000B4F90E3001332146304602D0C04749EA8E
:103A300000096B1C04F16804EDD13F68002FE6D14A
:103A40004846BDE8F883B9464846BDE8F88300BF5C
:103A50002DE9F04106694D11AE422EDD00F114074B
:103A600011F01F0107EB860C07EB85032BD057F8ED
:103A7000252004339C4522FA01F4C1F1200818D90D
:103A8000BE461A6802FA08F222434EF8042B53F895
:103A9000044B9C4524FA01F4F3D8731B9B00053BAF
:103AA0009B08013307EB830547F82340CCB104356D
:103AB00017E044613D46002CF9D100230361002347
:103AC0004361BDE8F0819C4588BF00F11002F4D944
:103AD00053F8041B42F8041F9C45F9D8751B07EBEB
:103AE0008505EB1B9B10BD420361E8D0BDE8F0816A
:103AF0002DE9F04FBC4C8DB02468089089462046D3
:103B000005920A930694FDF7DBFAD9F80030049089
:103B100021189A7811F8011C0191302A40F0E581B2
:103B20006FF00101C91A033301EB030A1C4613F8B5
:103B3000012B302AF8D0AD4FBB5C002B00F0F98090
:103B400023784FF00008FB5C4546264623B116F863
:103B5000013FFB5C002BFAD1049A0699304601F034
:103B60005FFC0290002800F099803378002D40F02F
:103B700098810295502B00F09B80702B00F098806C
:103B80003546C9F80060B8F1000F40F0C0802B1B2B
:103B9000013B072B414604DD5B10072B01F10101BE
:103BA000FADC089800F03CFC0390002800F03F820B
:103BB000039BAC4203F11403099380F0C5819B463B
:103BC000049B0026C3F10103B14607930FE0202EAA
:103BD00000F0A6803246043615F8013CFB5C5546E1
:103BE00003F00F039340A54249EA030918D915F8D9
:103BF000013C019A934205F1FF3A0BF10408E6D12A
:103C0000079B5344A342E2D31846049A06990B93A8
:103C100001F006FC0B9B0028D9D11D46A542E6D831
:103C2000099B039ACBF80090A8EB03084FEAA8037E
:103C3000136148464FEA431800F0FEFC059B1C68E0
:103C4000A8EB0000A04200F3AE80C0F22E81002657
:103C5000059B029A9B689342C0F26B810598029A79
:103C60004368934240F382809D1AAC4200F3C080C7
:103C7000C268022A00F09D81032A00F09581012A82
:103C800000F079810898039900F00AFC5025169AF3
:103C90000023284613600DB0BDE8F08F002D00F022
:103CA0001381AD1BAB0002933378502B7FF465AFCB
:103CB00073782B2B00F0F3802D2B70D0711C002516
:103CC000FB5C5A1E182A3FF65BAF4A78BA5C501E5E
:103CD0001828A3F1100301F101010BD811F8010F0D
:103CE00003EB830302EB43033A5C501E1828A3F155
:103CF0001003F3D905B15B42029A35461A440E46C9
:103D00000292C9F80060B8F1000F3FF440AFBAF179
:103D1000000F14BF0025062528460DB0BDE8F08F22
:103D20005B46002243F8089BC3469146984604260A
:103D300052E7049D06992A46204601F071FB0028AF
:103D400074D1625DBB5C6619002B71D0302A344699
:103D500004D114F8013F302BFBD0FB5CB3FA83F89D
:103D600035464FEA58184FF0010AEEE6012556B1E4
:103D7000059BDB68022B62D0032B64D0012B00F083
:103D8000858045F01005169B1A46039B13600A9B1D
:103D90001A46029B136028460DB0BDE8F08F01253E
:103DA000B378B11C8CE7039F051B2946384601F008
:103DB00027F8064678B16A1E099E511102F01F03CA
:103DC00056F82110012606FA03F30B4203D0B24243
:103DD00000F3C8800226DDE9023029462B44029315
:103DE000FFF736FE34E700BF24A00008249F000838
:103DF0006F1E002E40F0A680002F40F0AD807B119A
:103E0000099A039852F8232007F01F07012303FAA9
:103E100007F71742294618BF46F00206FFF718FEBB
:103E2000059B5B680293641B0225A0E72278264667
:103E3000502A5ED0702A5CD0C9F8006067E7179BF3
:103E4000C3F101031793179B002B9AD0039BDDF856
:103E500024C01E69B7000CEB07006346002103E095
:103E6000984243F8041C49D99E4653F8042BB2F1FA
:103E7000FF3FF5D00132022DCEF8002000F09E80E9
:103E800014F01F0440F0BC8021257CE7B2077FF5C9
:103E900078AF099B1B681E43F307D7D471E7002551
:103EA0007EE7AD1BAA00029264E6251A03990898E2
:103EB0002A4600F02FFD029B03905B1B02930346F2
:103EC000143309930026C3E60499735CFA5C7118F5
:103ED0000E46002A3FF44EAE16F8013FFA5C002A67
:103EE000FAD1891B8A00029244E69C1C4FF0000A1A
:103EF00021E6002302934FF00108D9E6039B9B685B
:103F00009E4262DA3346039800EB830201210133BB
:103F1000022D0361516151D09E42B1DA0121039813
:103F2000FFF796FD059B029A9B680132934202922D
:103F3000AADA0399089800F0B3FA169A00231360DE
:103F4000A325E9E601265AE7039BDDF824B003F137
:103F500018084FF0000963E63946039800F050FF57
:103F600006464CE7A91E384600F04AFF00283FF4F9
:103F700031AF03262FE7AC427FF484AE012C08D08A
:103F8000611E039800F03CFF00283FF47BAE059BC8
:103F90005B680A990B60039B099901221A610A6008
:103FA000169A62251360B7E6179A002A3FF46AAEA4
:103FB000EFE7179A002A7FF465AEEAE7059B1B68D6
:103FC000013BA34227D02225DDE6039B08985968D0
:103FD000013100F025FA804678B303990B6902336A
:103FE0009A000C310C30FCF77FF90399089800F027
:103FF00057FACDF80C8008F1140CD8F8103082E78D
:104000006744C4F1200457F8040C00F015FBA042EB
:10401000BFF63AAF82E7631104F01F045CF8232077
:104020000123A34013420CBF22252125ABE6024603
:10403000054B0648DE2101F073FA0246024B0348A5
:10404000842101F06DFA00BF8CA70008A0A700082A
:1040500030B40468013408E014F8013BA3F14105D1
:10406000192D98BF2033934207D111F8012B002A54
:10407000F2D10460012030BC7047002030BC704792
:104080002DE9F04F096885B04B1111F01F01019027
:1040900002EB8303039140F086801D1F009300987C
:1040A000DFF874910295002340F8043C19469A46C3
:1040B0001E469846019BD3F800E09EF80140AC46AE
:1040C0002B4693460EF10100B4B119F80450002DAF
:1040D0004BD1202C00F28E80564506DD634501D27F
:1040E000072974DD5B4555D8082186469EF80140B6
:1040F0000EF10100002CE8D1029D5A46002E7DD021
:10410000634513D2072911DCC1F1080189001E683B
:10411000C1F1200E1846476807FA0EF4344327FA17
:1041200001F6046040F8046F8445F4D893423ED908
:10413000114653F8040B41F8040B9D42F9D20023B9
:1041400041F8043BA942FBD9009B53F8041C21B160
:1041500058E055F8043D002B54D1AA42F9D101236F
:1041600005202B6005B0BDE8F08F0131082906F16C
:10417000010607DC1A68120105F00F0515431D60E2
:104180008646B3E75B45B0D943F8048C0022043B74
:104190000121F1E7A3F1040C43F8048CB246634615
:1041A00000218646A2E7191D00911D4677E7009C75
:1041B000039B54F8041C002BC9D0C3F120034FF01B
:1041C000FF3020FA03F3194044F8041CBFE7C1F1A3
:1041D000080189001F68C1F1200E1C46656805FAB8
:1041E0000EF23A4325FA01F7226044F8047FA44511
:1041F000F4D877E7292C029D5A4607D0042005B051
:10420000BDE8F08F052005B0BDE8F08F019C0EF1F0
:104210000200206072E700BF249F0008F030704762
:10422000004870475801002000487047580100209E
:1042300070B50C46B1F90E10002996B016461D4611
:1042400013DB6A4601F0C4F900280EDB019A02F480
:104250007042A2F50052B2FA82F252094FF4806322
:1042600000202A60336016B070BDA38900221B06AF
:104270002A6004D540230020336016B070BD4FF48F
:1042800080630020336016B070BD00BF8A8992073A
:104290000B4606D501F1470201211A60C3E904214A
:1042A000704770B582B001AB6A460C460646FFF710
:1042B000BFFF00990546304600F032FEB4F90C30DD
:1042C00070B11649B162019A0099206043F08003F1
:1042D000A381C4E904018AB92B43A38102B070BD54
:1042E0009A05FBD423F0030304F1470243F00203D1
:1042F0000121A3812260C4E90421EFE73046B4F92B
:104300000E1001F0FDFA10B9B4F90C30E4E7A389FE
:1043100023F0030343F001031BB2DDE7A5370008D8
:10432000024B0146186800F0FBBD00BF00000020F2
:10433000024B0146186800F09DBD00BF0000002040
:1043400010B4034CD4F8E440A4465DF8044B604735
:104350006800002082B049B15AB16BB113780B608C
:104360001278101C18BF012002B0704701A9002A62
:10437000F3D1104602B070476FF00100F4E700BFC0
:1043800001F0FF01102A2BDB10F0070F08D010F806
:10439000013B013A8B422DD010F0070F42B3F6D10A
:1043A000F0B441EA012141EA014122F007047FF023
:1043B00000070023F0E80256083C85EA010586EA7A
:1043C000010685FA47F5A3FA87F586FA47F6A5FAB6
:1043D00087F68EB9EED1F0BC01F0FF0102F00702C2
:1043E00032B110F8013B013A83EA010313B1F8D16D
:1043F0000020704701387047002D06BF354603384E
:10440000073815F0010F07D1013015F4807F02BF86
:10441000013015F4C03F0130F0BC0138704700BFD7
:1044200070B5446A06460D465CB1E368A3B153F823
:104430002500E8B1026843F825200023C0E90333D2
:1044400070BD1020FFF76CFF04467062E8B10023D6
:10445000C0E901330360C36021220421304600F02B
:10446000FBFC736AE060DB68002BE0D1002070BDCC
:10447000012101FA05F4621D3046920000F0ECFCC7
:104480000028F3D0C0E90154D7E70246024B0348A5
:10449000662101F045F800BF40A70008ECA700081E
:1044A00030B5456A83B0044655B139B1636A4A688C
:1044B000DB6853F82200086043F8221003B030BDD7
:1044C00010200191FFF72CFF0199606220B1C0E933
:1044D00001550560C560E8E70246024B02488A21A3
:1044E00001F01EF840A70008ECA70008F0B50C6921
:1044F00083B00D46064601F1140C0027DCF80000DD
:1045000081B202FB0133190C000C02FB00109BB2BC
:10451000013703EB0043BC424CF8043B4FEA104325
:10452000ECDC3BB1AA68A24207DD05EB8402013452
:1045300053612C61284603B0F0BD69680193304691
:104540000131FFF76DFF019B0746A0B12A69019376
:104550000232920005F10C010C30FBF7C5FE294632
:1045600030463D46FFF79CFF05EB8402019B5361FB
:1045700001342C61DEE70246024B0348B52100F00E
:10458000CFFF00BF8CA70008ECA700082DE9F84377
:10459000264C089E1D46083384FB034C092D4FEA28
:1045A000E373904607460C46C3EB6C0236DD0123ED
:1045B00000215B009A4201F10101FADC3846FFF765
:1045C0002FFF68B30123B8F1090FC0E9043613DCEB
:1045D0000A344FF0090845450CDDA5EB08052544D4
:1045E00014F8013B0146303B0A223846FFF77EFFB4
:1045F000A542F5D1BDE8F88304F109094E464444CB
:1046000016F8013B0146303B0A223846FFF76EFFA1
:10461000B442F5D1A8F108044C44DCE70021CDE711
:104620000246034B0348CE2100F07AFF398EE3386F
:104630008CA70008ECA70008020C12040346CAB9B4
:104640000304102013F07F4F04BF1B02083013F047
:10465000704F04BF1B01043013F0404F04BF9B0098
:104660000230002B05DB13F0804F00F1010008BF82
:10467000202070470020E5E7036813F00702014699
:1046800007D0DA0720D4980722D55B080B600120F9
:10469000704798B2B0B91B0C102013F0FF0F04BF85
:1046A0001B0A08301A0704BF1B0904309A0704BF0D
:1046B0009B080230DA0703D45B0800F1010005D043
:1046C0000B6070471046E8E70020704720207047D5
:1046D0009B080B600220704710B50C460121FFF7C4
:1046E0009FFE024618B10123C0E9043410BD034BFC
:1046F00003484FF4A07100F013FF00BF8CA700081F
:10470000ECA700082DE9F04F0E691769BE4283B08F
:104710000C46154605DB3A462B4637460D461646EF
:104720001C46D5E9011307EB06084345B8BF013124
:10473000FFF776FE009000287FD0009B03F1140A5B
:104740000AEB8809CA4505D25346002143F8041BE9
:104750009945FBD804F1140E0EEB860B05F11403FA
:10476000DE4503EB870753D2CDF80480984605E079
:10477000090C28D1F3450AF1040A47D95EF8041B55
:104780008EB2002EF4D045465446002355F8041B43
:1047900020688AB21FFA80FC06FB02C2090C000CDA
:1047A000134406FB010202EB13429BB243EA0243AD
:1047B000AF4244F8043B4FEA1243E7D823605EF867
:1047C000041C090CD6D0DAF8003040461A4654468C
:1047D0004FF0000C0588120C01FB052294449BB29B
:1047E00043EA0C4344F8043B50F8043B22681B0C9A
:1047F00095B201FB035303EB1C4387424FEA134C72
:10480000E8D8F34523600AF1040AB7D8DDF804803C
:10481000B8F1000F0BDD59F8043CA9F104091BB1F4
:1048200005E059F8043D13B9B8F10108F9D1009831
:10483000C0F8108003B0BDE8F08F0246024B034879
:1048400040F25D1100F06CFE8CA70008ECA7000898
:104850002DE9F04312F0030383B0144607462DD12F
:104860000E46A4101CD07A6A8AB39568002D39D000
:10487000E3074FF0000906D4641011D0286898B1FE
:104880000546E307F8D531462A463846FFF73AFF92
:10489000314680463846FFF703FE64104646EDD1A8
:1048A000304603B0BDE8F0832A4629463846FFF774
:1048B00029FF2860C0F800900546E2E7013B124A54
:1048C00052F823200023FFF711FE0646C9E7102007
:1048D000FFF726FD0246786280B10023C0E901336C
:1048E0000360C36040F2712138460192FFF7F4FE85
:1048F000019A0023906005460360B9E7034B044822
:104900004FF4D77100F00CFE30A0000840A700085B
:10491000ECA700082DE9F0470E690D464FEA621A30
:10492000D1E901135644741C9C429146074604DDAC
:104930005B009C4201F10101FADC3846FFF770FD93
:10494000804600283FD0BAF1000F00F114000EDDC0
:104950000AF1050A4FEA8A0A08EB0A010346002217
:1049600043F8042B8B42FBD1AAF1140A5044296965
:1049700005F1140319F01F0903EB810C1BD0C9F1D9
:10498000200E0022196801FA09F1114340F8041BB6
:1049900053F8042B9C4522FA0EF2F3D80260002A49
:1049A00018BF26463846C8F810602946FFF778FD3C
:1049B0004046BDE8F087043853F8042B40F8042F34
:1049C0009C45F9D8EEE70246024B034840F2D91164
:1049D00000F0A6FD8CA70008ECA7000830B40B6916
:1049E00005460069C01A10D19B00143514311944D2
:1049F0002B4401E09D4208D253F8044D51F8042D98
:104A00009442F7D003D24FF0FF3030BC7047012002
:104A100030BC70472DE9F84316460B691269A3EBC9
:104A20000208B8F1000F0D4667D1920001F114079A
:104A300006F11401BB18114401E09F4261D253F802
:104A4000042D51F8044DA242F7D050D36968FFF706
:104A5000E7FC00285FD02F693369C0F80C8006F1AD
:104A60001402143505EB870C02EB830E00F11406DB
:104A7000002100E0264652F8044B55F8048B1FFA3B
:104A800084F911FA88F3210CA3EB0903C1EB184157
:104A900001EB234134469BB243EA014396454FEA7A
:104AA000214144F8043BA846E4D8AC4516D9264633
:104AB00058F8042B11FA82F3191401EB12419BB23E
:104AC00043EA0143C44546F8043B4FEA2141EFD88D
:104AD0000CF1FF36761B26F00306264423B956F860
:104AE000043D013F002BFAD00761BDE8F8832B4657
:104AF0004FF0010835461E46A8E7F8DB4FF00008E6
:104B0000A4E70021FFF78CFC60B101220023C0E97B
:104B10000423BDE8F8830246064B07484FF41071A2
:104B200000F0FEFC0246034B034840F2322100F045
:104B3000F7FC00BF8CA70008ECA70008124B10EE92
:104B4000902A1A40A2F15073002B04DD0020194670
:104B500041EC100B70475B421B15132B07DC4FF425
:104B60000022002042FA03F141EC100B7047143B85
:104B70001E2BDABF4FF0004222FA03F3012300217B
:104B8000184641EC100B70470000F07FF8B504693F
:104B900000F1140606EB840454F8045C2846FFF781
:104BA0004BFDC0F120030A280B60A4F1040131DDA4
:104BB0008E42A0F10B001AD254F8081C10B3C0F1B9
:104BC0002007854021FA07F31D4345F07F53A4F1E8
:104BD0000805AE4201FA00F043F4401303D254F842
:104BE0000C1CF9400843024643EC102BF8BD40B1C1
:104BF00005FA00F040F07F53002043F440130246D2
:104C0000F2E7014645F07F5343F440130A4643EC74
:104C1000102BF8BD8E42C0F10B0738BF54F8081CAA
:104C200025FA07FC00F115004CF07F5334BFF94022
:104C3000002105FA00F043F4401340EA010243EC7E
:104C4000102BF8BD2DE9F043884683B001211546AD
:104C500057EC106BFFF7E4FB0446002850D0C7F375
:104C60000A59C7F31303B9F1000F01D043F48013BD
:104C7000002E019325D068460096FFF7FDFC002822
:104C80003AD0DDE90013C0F1200203FA02F20A4330
:104C9000C34001936261002B14BF02210121A36173
:104CA0002161B9F1000F17D0A9F2334909EB0003D4
:104CB000C0F13500C8F800302860204603B0BDE8D8
:104CC000F08301A8FFF7D8FC019B6361012120302C
:104CD0002161B9F1000FE7D104EB8103A0F232406A
:104CE000C8F800001869FFF7A7FCC0EB4110286066
:104CF000204603B0BDE8F083DDE900236261CAE726
:104D00000246034B034840F20A3100F009FC00BFA1
:104D10008CA70008ECA700082DE9F04383B0884673
:104D200069468146FFF732FF404601A955EC104B1A
:104D3000FFF72CFFDDE90013D9F81020D8F8100098
:104D4000CB1A121A03EB4213002B57EC106B0DDD3C
:104D500005EB03594D4632463B462046294601F0B5
:104D600073FA41EC100B03B0BDE8F083C3EB0333DF
:104D700007EB03510F46EEE71728D0B504460CDDCC
:104D80000A490B4F0020002632463B4601F032F91B
:104D9000013CF9D141EC100BD0BD064B03EBC00434
:104DA000D4E9040141EC100BD0BD00BF0000F03F7E
:104DB0000000244030A0000870B414694E1E02F1B7
:104DC0001403761103EB840101368B4200EB860657
:104DD0000CD2041F53F8045B44F8045F9942F9D8DD
:104DE0008B1A153B23F0030304331844864204D97D
:104DF000002340F8043B8642FBD870BC704700BFDC
:104E000003694A11934210B400F1140410DA04EB60
:104E100083039C421ED253F8040C043B18B115E0E6
:104E200053F8042D92B99C42FAD35DF8044B7047B5
:104E300004EB8203EDDD11F01F01EAD054F82200EB
:104E400020FA01F202FA01F18842E2D001205DF875
:104E5000044B70470020E8E738B502FB01F4214617
:104E600000F05EF8054618B122460021FBF7D6FA9D
:104E7000284638BD00293CD038B551F8043C0C1FF9
:104E8000002BB8BFE418054600F0CAFD234B1A6892
:104E90002AB1A2420DD921686018824223D06260F3
:104EA00028461C60BDE8384000F0BCBDA34203D8D2
:104EB0001A465368002BF9D111685018A04219D036
:104EC00024D821686018834206D063605460284665
:104ED000BDE8384000F0A6BDD3E90003014463609B
:104EE00021605460F3E7D2E900020144626021606E
:104EF000D6E7704720680144501883421160E6D11C
:104F0000D3E90003014453601160E0E70C232B60F8
:104F10002846BDE8384000F085BD00BF0C020020E7
:104F2000F8B5CD1C25F0030508350C2D38BF0C2530
:104F3000002D064633DBA94231D82A4F00F070FD20
:104F40003A6852B113685B1B04D43FE023685B1BD3
:104F500029D522465468002CF8D1796800293BD025
:104F60002946304600F0FCF9431C28D0C41C24F02C
:104F70000304A04205D0211A304600F0F1F90130B7
:104F80001DD02560304600F04DFD04F10B0020F0EF
:104F90000700231DC21A01D01B1AA350F8BD0C2212
:104FA00032600020F8BD0B2B05D8A242636811D0F7
:104FB0005360E7E7144623601C442560E2E70C23B6
:104FC0003046336000F02EFD0020F8BD0B2BF1D8E9
:104FD000536814463B60D5E7304600F0C1F978606D
:104FE000BEE700BF0C0200209368013B002B9360DA
:104FF00011DA10B49469A34209DB0A2907D01368B7
:10500000581C1060197008465DF8044B70475DF835
:10501000044BFDF707BA1368581C10601970084656
:10502000704700BF9BB1F8B513440F4606465D1E9E
:10503000541E01E0AC4208D03A4614F8011F304635
:10504000FFF7D2FF431CF5D1F8BD0020F8BD0020CA
:10505000704700BF936810B5144613B953601846E3
:1050600010BD00F0C9FA0023C4E9013310BD00BF30
:105070002DE9F04F9FB08B4690461C46039018B127
:105080008369002B00F0B780A24B9B4500F0B980EC
:10509000A14B9B4500F0C780A04B9B4504BF039BE1
:1050A000D3F80CB0BBF80C30180740F1B280DBF835
:1050B0001030002B00F0AD8030238DF8323098F89E
:1050C00000300594002120220B918DF83120944E60
:1050D0000127002B00F08780252B00F01581454625
:1050E00003E0252B00F0A38025466B786C1C002B79
:1050F000F7D1B4EB080A76D0424653465946039896
:10510000FFF790FF01306ED00B9B6A7853440B93EE
:10511000002A68D000234FF0FF3201340693CDE916
:1051200008338DF85B301C93079205E0069A07FA66
:1051300003F313432C4606932546052215F8011B5D
:105140003046FFF71DF9AA46831B0028EED1069BC7
:10515000D90644BF20228DF85B2021781A0744BF6E
:105160002B228DF85B202A2966D1059A116804321A
:1051700000290592C0F29D8009916178A51C2E2915
:1051800073D0684C03222046FFF7FAF8002800F09D
:105190008680001B069B402404FA00F0034306931C
:1051A00005F10108297860488DF830100622FFF7D4
:1051B000E7F8002800F083805C4B002B72D005AB31
:1051C00000935A465A4B039806A9FBF73BFA8146CF
:1051D000B9F1FF3F07D00B9B4B440B9398F800307D
:1051E000002B7FF479AFBBF80C305B0618D40B981A
:1051F0001FB0BDE8F08FFEF7BBFB464B9B457FF42D
:1052000047AF039BD3F804B0BBF80C3018073FF549
:105210004EAF59460398FDF765F900283FF44CAFAF
:105220004FF0FF30E4E7039BD3F808B03AE7B4EB64
:10523000080A3FF46FAF5FE7A1F13002092A88BF87
:10524000A2469CD8099B01E02C460135297803EB46
:10525000830302EB4303A1F13002092AAA46F3D9E2
:105260002E2904F1020509938BD19AF801102A29FD
:105270002FD1059B9AF802101A6807920433002A6E
:1052800005930AF103050AF1020338DB254C0322DA
:1052900020469A46FFF774F800287FF47AAFA846B4
:1052A00055467FE7059B073323F007030833059333
:1052B00091E7494243F00203099106935DE705AB8C
:1052C00000935A461A4B039806A9FBF7E9FC81465E
:1052D0007EE7A1F130020023092A079301D915E0E6
:1052E0005546697803EB830302EB4303A1F13002D7
:1052F000092A05F1010AF3D90235079341E74FF076
:10530000FF329A4607923CE7444603E7AA46013536
:1053100037E700BF049F0008E49E0008C49E000811
:1053200020A8000828A800082CA8000845060008A6
:105330002550000810B4044C13460A460146206864
:105340005DF8044BFFF794BE000000200000000051
:105350009FED010B704700BF000000000000F87FC8
:1053600038B5074C002305460846236000F076FC5C
:10537000431C00D038BD2368002BFBD02B6038BD08
:10538000801200209FED010A704700BF0000C07F1F
:1053900010B50C46B1F90E1000F06CFB002803DBD1
:1053A000636D0344636510BDA38923F48053A38117
:1053B00010BD00BF002070472DE9F0411646B1F93D
:1053C0000C201F46D3050C460546B1F90E1009D432
:1053D00022F48052A2813B4632462846BDE8F04185
:1053E00000F088B80022022300F09CFAB4F90C20E7
:1053F000B4F90E10ECE700BF10B50C46B1F90E1071
:1054000000F090FAA389421C0EBF23F4805343F4AA
:1054100080536065A38110BDB1F90E1000F0A4B8EF
:10542000002A46D040EA010313F00303F0B425D16B
:10543000032A23D904680D68AC423CD1043A35D024
:10544000A4F1013525EA040414F0803F2ED1071D94
:105450000D1D0DE057F8043B0E68A3F10134B34273
:1054600024EA030427D1043A20D014F0803F1DD150
:10547000032A2946384605F10405EBD803780D7850
:105480009D4202F1FF360ED186B17BB1044602E0A7
:1054900082180BD053B114F8013F11F8015FAB42F1
:1054A000A6EB0402F4D0581BF0BC70470020F0BCFF
:1054B00070471046704703780D789D4202F1FF3621
:1054C000E3D0F0E710B4034CD4F8E040A4465DF814
:1054D000044B60476800002049B1FF2A02D80A70D7
:1054E000012070478A2303604FF0FF307047084661
:1054F000704700BF70B50D46084C114606461A4667
:1055000028460023236001F051FB431C00D070BDEE
:105510002368002BFBD0336070BD00BF80120020D9
:1055200000B50A4C2668054685B01C46F06852B1A5
:10553000074B0091CDE9013206492B46224600F087
:1055400033F800F0ADFA044B1A46F2E700000020F1
:1055500034A8000844A800085CA2000808B5134657
:105560000022FFF7DDFF00BF38B5074C00230546DA
:105570000846236001F030FB431C00D038BD23688F
:10558000002BFBD02B6038BD801200200CB400B57E
:1055900083B004AB53F8042B0193FFF769FD03B00C
:1055A0005DF804EB02B070470EB410B583B005ABE4
:1055B000064C53F8042B019301462068FFF758FD71
:1055C00003B0BDE8104003B0704700BF00000020EA
:1055D00038B50B46074C0546114618460023236094
:1055E00001F016FB431C00D038BD2368002BFBD014
:1055F0002B6038BD801200209368002B00F00281E0
:105600002DE9F04FB1F90C309BB20C46190783B06D
:105610008246904635D522699AB313F00202D8F833
:1056200000603DD00027D4F828B0D4F820C0DFF8BF
:10563000CC923D464D452B463A4628BF4B466146E7
:105640005046D5B1D847002840F3D280D8F808306A
:105650001B1A07442D1AC8F80830002B00F0B78039
:10566000D4F820C0D4F828B04D452B463A4628BF80
:105670004B4661465046002DE4D1D6E90075083608
:10568000D8E721465046FCF72DFF002840F0308136
:10569000B4F90C30D8F800609BB213F00202C1D10B
:1056A00013F0010940F0B080A76820684D46002D36
:1056B00054D09A0540F1BC80AF42BB4600F2E7806F
:1056C00013F4906F2FD0D4E9041707EB4707A0EB32
:1056D000010B07EBD777681C7F105844B8423A4655
:1056E00084BF07463A465B0540F1E98011465046C3
:1056F000FFF716FC002800F0F5805A46216901905A
:10570000FAF7F2FDA289019B22F4906242F0800236
:10571000A281A7EB0B0203EB0B0067612361206002
:10572000A2602F46AB465A46494600F011F9A268DE
:105730002368D21B5B442F46A26023600025D8F863
:105740000830DB1BB944C8F80830002B3FD0B4F94F
:105750000C30A76820689BB2002DAAD1D6E900952D
:105760000836A4E70BF1080353E902679B460833A8
:10577000002FF9D03A460A213046FEF701FE0028F4
:1057800053D00130A0EB06094B46D4E9041220683F
:10579000BB4228BF3B46884203D9A5681544AB42AB
:1057A00019DC9A427DDC1346A56A216A32465046CE
:1057B000A847051E1CDDB9EB05096BD00120D8F800
:1057C00008305B1B2E447F1BC8F8083013BB002039
:1057D00003B0BDE8F08F31462A4600F0B9F82368DF
:1057E0002B44236021465046FDF798FF0028E2D065
:1057F000B4F90C3043F040034FF0FF30A38103B005
:10580000BDE8F08F0020704733469146104617469A
:105810004E469B46002FA5D00028B5D13A460A2116
:105820003046FEF7ADFD0028ABD17B1C9946ACE7B6
:105830002369834215D36169A94212D82E4BA76A06
:105840009D4294BF2B466FF000434A4693FBF1F311
:10585000504601FB03F3216AB847071EC8DDED1B64
:105860006DE7AF4228BF2F463A46494600F070F830
:10587000A3682268DB1B3A44A3602260002BEED1B0
:1058800021465046FDF74AFF0028E8D0B0E72F46F2
:10589000AB4648E721465046FDF740FF00288ED032
:1058A000A6E71A463146019300F052F8019BA16821
:1058B0002268C91A1A44A16022601D467BE750463F
:1058C00000F0B2F8034600287FF423AF2169504668
:1058D000FFF7D0FAB4F90C300C2223F08003CAF899
:1058E000002087E70C23CAF80030B4F90C3081E7B8
:1058F0004FF0FF306CE700BFFEFFFF7F00FCFF7F33
:1059000038B5074C002305460846236001F048F9E6
:10591000431C00D038BD2368002BFBD02B6038BD62
:105920008012002070B50D46084C114606461A46F6
:1059300028460023236001F055F9431C00D070BDB8
:105940002368002BFBD0336070BD00BF80120020A5
:105950008842F0B40DD98B1883420AD9841832B129
:10596000224613F8014D02F8014D9942F9D1F0BCDD
:1059700070470F2A0ED80346541E002AF7D0013470
:105980000C44013B11F8012B03F8012FA142F9D17E
:10599000F0BC704740EA01039B073BD1A2F110071E
:1059A0003F0901F1200606EB071601F1100300F193
:1059B000100453F8105C44F8105C53F80C5C44F885
:1059C0000C5C53F8085C44F8085C53F8045C44F839
:1059D000045C1033B34204F11004EAD17B1C1B01B8
:1059E00012F00C0F194402F00F05034415D0043DCA
:1059F000AD0803EB850C1C1F0E4656F8047B44F8DB
:105A0000047F6445F9D10135AD002B44294402F0EF
:105A10000302B1E7541E0346B1E72A46ACE700BFD4
:105A2000704700BF704700BF09B3F8B51446CAB14C
:105A300006460D4600F03CF8A04202D32F463846F9
:105A4000F8BD21463046FFF76BFA07460028F6D02E
:105A500022462946FAF748FC30462946FFF70AFA5B
:105A60003846F8BD2746FFF705FA3846F8BD114617
:105A7000FFF756BA70B50D46084C114606461A4651
:105A800028460023236001F0B1F8431C00D070BD0C
:105A90002368002BFBD0336070BD00BF8012002054
:105AA00008B5062000F092F8012000F0E5F800BFEC
:105AB00051F8043C181F002BBCBF0B58C01870478E
:105AC00010B580210446FFF72BFA606440B1031F34
:105AD00000227C3043F8042F8342FBD1002010BD0C
:105AE0004FF0FF3010BD00BF436C0BB1002070477A
:105AF000E6E700BF1F2970B5054608D8436C164677
:105B00000C464BB153F8240043F8246070BD1622B4
